:10310000B079002061450100E54501003945010025
:1031100000000000000000000000000000000000AF
:10312000000000000000000000000000ED4501006C
:103130000000000000000000ED450100ED45010029
:10314000ED450100ED450100ED450100ED450100B3
:10315000DD420000ED450100ED450100392C010084
:103160004D2C0100612C0100752C0100892C0100FF
:103170009D2C0100C9570000DD570000F1570000E9
:1031800005580000195800002D5800004158000053
:10319000555800005D3C0000ED450100ED45010083
:1031A000ED45010010B5064C2378002B07D1054BE7
:1031B000002B02D0044800E000BF0123237010BDA3
:1031C00074040020000000003489010008B5084B99
:1031D000002B03D00748084900E000BF07480368F8
:1031E000002B03D0064B002B00D0984708BDC046EB
:1031F00000000000348901007804002034890100B7
:103200000000000080B582B000AF78607B680022CB
:103210001A70BD4602B080BD80B582B000AF021CFE
:103220003960FB1D1A70FB1D1B78012B0AD0022B85
:103230000FD0002B14D10E4B0D4A91693A680A4306
:103240009A610FE00A4B0A4AD1693A680A43DA6187
:1032500008E0074B064A116A3A680A431A6201E01D
:10326000172300E00023181CBD4602B080BDC046F5
:103270000004004080B582B000AF78607B68802297
:103280001A707B6800225A707B6801229A707B68F2
:103290000022DA70BD4602B080BDC04680B582B063
:1032A00000AF021CFB1D1A70FB1D1B78002B02D007
:1032B000012B07D00DE0084B074A126C02210A438C
:1032C0001A6406E0044B044A126C04210A431A648F
:1032D000C046BD4602B080BD0008004080B584B045
:1032E00000AF78607B681B68FB60FB685B7EDBB2CD
:1032F000DBB25BB2002B01DA012300E00023181CD3
:10330000BD4604B080BDC04680B582B000AF7860D5
:103310007B6800221A707B6800225A707B6800224A
:103320005A807B6800221A717B6800221A767B68BB
:1033300000221A627B680022DA617B6800229A60B0
:103340007B6800221A737B68C0225201DA817B6895
:1033500000221A747B6800225A747B6800229A74D7
:103360007B680022DA747B6800221A757A682A2347
:103370000021D1547B6800225A757B6800229A751F
:103380007A6824230021D1547B680022DA847B6888
:1033900000221A857B680022DA757A682B230021C7
:1033A000D1547A682C230021D154BD4602B080BD8F
:1033B00080B598B000AF78603A1C0C32154B111CE8
:1033C0001A1C5023081C111C1A1C134B9847134B32
:1033D000FB657B68132B1AD83B1C0C337A68920070
:1033E000D358FB653B1C0833181C0D4B98473B1CFE
:1033F000083300229A703B1C083301221A70FB6DBF
:10340000DAB23B1C0833101C191C064B9847BD460A
:1034100018B080BD548201001D800100FFFF000034
:1034200075320000E1440100B0B588B000AF7860AB
:1034300039603B1C1F3300221A701023BB613B1CF8
:10344000173300221A70CC4B1A68F0231B0213406A
:103450001A0B3B1C13331A707B681B68FB603B1C08
:103460000833181CC54B98473B681A783B1C083337
:103470001A703B1C08331720191CC14B98471720A2
:10348000C04B98473A682C23D35C002B40D03B1CA0
:10349000163339682B228A5C1A703B68197B3B1CF7
:1034A00015333A1C163212788A181A703A682C238F
:1034B000D15C3B1C0B333A1C153212788A181A70F7
:1034C00018E03B1C16331A780F231A403B681B7B0D
:1034D000D318181CAC4B98473B1C15331A783B1C6F
:1034E000153301321A703B1C16331A783B1C163305
:1034F00001321A703A1C15323B1C0B3312781B78C0
:103500009A42DED33B68DB89181C9F4B984709E041
:103510003B681B7B181C9C4B98473B68DB89181C3D
:10352000994B98473B685B7D9B00DAB2FB681A7049
:103530003B689B7DDB01DAB23B685B78DBB213430F
:10354000DBB2DAB2FB685A703B681B79342B5AD86D
:103550009A008E4BD3181B689F463B1C1F333A685A
:10356000527C1A703B1C17333A68127C1A70102375
:10357000BB614AE03B1C1F3301221A703B1C17330E
:1035800002221A701023BB613FE03B1C1F33022252
:103590001A703B1C173304221A701023BB6134E0ED
:1035A0003B1C13331B78022B04D83B1C1F33032214
:1035B0001A7003E03B1C1F3301221A703B1C1733A7
:1035C00006221A701023BB611FE03B1C13331B78CB
:1035D000022B04D83B1C1F3304221A7003E03B1C4F
:1035E0001F3300221A703B1C173308221A70102355
:1035F000BB610AE03023BB6107E02023BB6104E02C
:103600000023BB6101E01723A9E13B1C1F331B789A
:103610001B01DAB270231340DAB23B1C17331B785C
:103620001343DAB2FB689A703B68DB7D3F2B01D90C
:10363000172394E13B68DA7DFB68DA70C0467B684B
:10364000181C534B9847031C002BF8D13B685A8831
:10365000BB699BB213439AB239682423CB5CDB006D
:103660009BB213439AB23B681B7D9B009BB21343F2
:103670009AB23B689B7CDB189BB213439AB23B68BF
:10368000DB7C13439AB2FB689A803B681B7E002B5D
:1036900000D1BFE0BB69102B00D194E002D8002B11
:1036A0004FD0B7E0202B25D0302B00D0B2E03B68C4
:1036B000DB7C002B13D03B68DB697F2B0DDC3B6888
:1036C000DB691A1C803208DB3B681B6A7F2B04DC39
:1036D0003B681B6A1A1C803201DA17233FE13B6802
:1036E000DB69FF2B03DC3B681B6AFF2B01DD172323
:1036F00035E18FE03B68DB7C002B15D03B68DA6955
:10370000244B9A420EDC3B68DA69234B9A4209DB70
:103710003B681A6A1F4B9A4204DC3B681A6A1F4BCB
:103720009A4201DB17231AE13B68DA691C4B9A4283
:1037300004DC3B681A6A1A4B9A4201DD17230EE13A
:1037400068E03B68DB7C002B30D03B68DA69154BC6
:103750009A420EDC3B68DA69134B9A4209DB3B68FC
:103760001A6A104B9A4204DC3B681A6A0E4B9A4262
:103770001CDA1723F3E0C046182000410532000090
:10378000C141010001420100B1330000A4820100E7
:10379000DD320000FF01000000FEFFFF01FEFFFF21
:1037A000FF030000FF07000000F8FFFF3B68DA6935
:1037B0006D4B9A4204DC3B681A6A6B4B9A4201DDFE
:1037C0001723CCE026E03B68DB7C002B15D03B6860
:1037D000DA69664B9A420EDC3B68DA69644B9A42BE
:1037E00009DB3B681A6A614B9A4204DC3B681A6A3F
:1037F0005F4B9A4201DA1723B1E03B68DA695D4B0F
:103800009A4204DC3B681A6A5A4B9A4201DD17233C
:10381000A5E0C046C0467B68181C574B9847031C60
:10382000002BF8D13B681A7EFB681A72C0467B6891
:10383000181C514B9847031C002BF8D13B68DB69DF
:103840009AB2FB689A83C0467B68181C4A4B98471B
:10385000031C002BF8D13B681B6A9AB2FB681A84E0
:103860003B1C143339682C228A5C1A703B1C1433BD
:103870001B78002B06D03B1C14331A783B1C1433E6
:10388000013A1A703B1C14331B780F2B04D83A688A
:103890002B23D35C0F2B01D9172360E0C0467B6834
:1038A000181C354B9847031C002BF8D13B689A68CD
:1038B00039682B23CB5C1B051A433B1C14331B7844
:1038C0001B041A433B68DB891A433B681B7B1A4382
:1038D000FB681A613A682A23D25CFB681A75FB6898
:1038E0000F229A753A682423D35C002B1DD03B68C5
:1038F000DA8C1D4B9A4201D9172330E03B68DA8CF1
:10390000FB689A843B681B8D1AB21C4B9A4205DCFB
:103910003B681B8D1AB21A4B9A4201DA17231EE03C
:103920003B681B8D9AB2FB68DA84164B1B68DB0878
:103930009BB21B029AB2E023DB00134099B2124BF8
:103940001A685B685801D40E0443DD0EA2B2FF234F
:1039500013409BB20B439AB2FB681A850023181CD4
:10396000BD4608B0B0BDC046FF0F0000FF7F00009D
:103970000080FFFFFFFF0000DD320000FF070000B6
:1039800000F8FFFF246080002060800080B586B0D2
:1039900000AFF860B9607A60FB68BA681A6080238B
:1039A0005B020220191C324B9847BB681B78DBB2C4
:1039B0001A1C0123134001D0052355E0BB681B7876
:1039C000DBB21A1C0223134001D01C234CE07B689D
:1039D0005A78FB681A71FB681B79002B02D1012011
:1039E000244B98473B1C173300221A700EE03B1CF7
:1039F00017331A78FB68023292000021D1503B1C29
:103A000017331A783B1C173301321A703B1C1733DB
:103A10001B78022BEBD9FB6800229A76FB68002208
:103A2000DA76FB6800221A83FB6800221A77124BB1
:103A3000FA681A607A682A23D35C002B0AD17B6863
:103A40001B7D01225340DBB2002B03D0FB68012217
:103A50005A7702E0FB6800225A77FA687B68101CEC
:103A6000191C064B9847031C181CBD4606B080BDA8
:103A7000193200009D320000440500202934000066
:103A800080B584B000AF78607B681B68FB60FB6822
:103A90005B7EDBB2DBB25BB2002B01DA012300E01C
:103AA0000023181CBD4604B080BDC04680B584B05C
:103AB00000AF78607B681B68FB60C0467B68181CA1
:103AC0000B4B9847031C002BF8D1FB681B7BDBB228
:103AD00002221343DAB2FB681A73C0467B68181CD3
:103AE000034B9847031C002BF8D1BD4604B080BDA2
:103AF000813A000080B584B000AF78600A1CFB1CDE
:103B00001A707B681B68FB60FB68FA1C1278DA7518
:103B1000BD4604B080BDC04680B584B000AF7860BB
:103B20000A1CFB1C1A707B681B68FB60FB68FA1C94
:103B300012789A75BD4604B080BDC04680B584B089
:103B400000AF021CFB1D1A70FB1D1A78404B92003F
:103B5000D358FB60FB681B681B7EDBB2BB60BA6896
:103B6000012313403ED0FB68DB7E1A1C0123134067
:103B700038D0FB689B7E1A1C0123134032D0FB68AF
:103B80001B6801221A76FB685B69991CFA6851610F
:103B9000FA681268528B92B21A80FB681B8B9BB238
:103BA000013B9BB2FA68191C1183002B08D0FB68FB
:103BB0005B7F002B16D0FB68181C264B984711E042
:103BC000FB681B7FDBB2052B0CD1FB6800221A7748
:103BD000FB68181C0121204B9847FB689B68FA681A
:103BE000101C9847BA680423134014D0FB681B6864
:103BF00004221A76FB68DB7E1A1C022313400AD0CB
:103C0000FB689B7E1A1C0223134004D0FB68DB6810
:103C1000FA68101C9847BA680223134014D0FB6856
:103C20001B6802221A76FB68DB7E1A1C04231340F1
:103C30000AD0FB689B7E1A1C0423134004D0FB6847
:103C40001B69FA68101C9847BD4604B080BDC04689
:103C500044050020AD3A0000193B000080B500AFDC
:103C60000020024B9847BD4680BDC0463D3B00004A
:103C700080B584B000AFF860B960FB1D1A70FB1D01
:103C80001A78FB6802329200B968D150FB689B7EBB
:103C9000DAB2FB1D1B780121081C9840031CDBB223
:103CA0001343DBB2DAB2FB689A76BD4604B080BD3E
:103CB00080B584B000AFF860B960BB1D1A80FB68A6
:103CC0001B8B9BB2002B04D1FB681B7FDBB2052B47
:103CD00001D1052317E0FB6805221A77FB68BA1D9E
:103CE00012881A83FB68BA685A61FB68181C0121A4
:103CF000074B9847FB685B7F002B03D0FB68181CC1
:103D0000044B98470023181CBD4604B080BDC04634
:103D1000F53A0000AD3A000080B584B000AF021C57
:103D20003960FB1D1A700023FB602B4B5A6B02237A
:103D3000134005D0284B284A526B02218A435A630C
:103D40003B681B881A1C3B681B791A433B685B88DD
:103D50001343FA681343FB603B685A8880235B0077
:103D60009A4204D1FB68802292001343FB603B68B7
:103D70009B79002B03D0FB6804221343FB603B6854
:103D8000DB79002B03D0FB6840221343FB60FB1D53
:103D90001B78002B1AD13B685B793F2B01D9172385
:103DA00015E00D4B3A6852791204111CFC22920363
:103DB0001140FA680A435A63C046074BDA68802309
:103DC0001B011340F9D0C046002300E01723181C44
:103DD000BD4604B080BDC0460008004080B582B03A
:103DE00000AF78607B6880221A707B6800225A706E
:103DF0007B6801229A707B680022DA70BD4602B0AF
:103E000080BDC04680B584B000AF021CFB1D1A7097
:103E10003B1C0F33FA1D127852091A703B1C0F33EA
:103E20001B78002B0BD1084BBB603B1C0F331B785E
:103E30009B001022D219D318083B1B6800E0002316
:103E4000181CBD4604B080BD0018004080B582B08B
:103E500000AF0F4B3B6000237B6011E07B689B0051
:103E60000822D219D318083B1B685B78DBB2DBB29F
:103E70005BB2002B01DA012306E07B6801337B6033
:103E80007B68002BEAD00023181CBD4602B080BD21
:103E90000018004080B582B000AF78607B680022D7
:103EA0001A70BD4602B080BD80B582B000AF021C62
:103EB0003960FB1D1A70FB1D1B78012B0AD0022BE9
:103EC0000FD0002B14D10E4B0D4A91693A680A436A
:103ED0009A610FE00A4B0A4AD1693A680A43DA61EB
:103EE00008E0074B064A116A3A680A431A6201E081
:103EF000172300E00023181CBD4602B080BDC04659
:103F00000004004080B582B000AF021CFB1D1A7097
:103F1000064BFA1D1278111C1F220A400121081CB1
:103F20009040021C1A60BD4602B080BD00E100E076
:103F300080B584B000AF2C4B7B60002040212B4B20
:103F400098473B1C181C2A4B98473B1C00221A70B0
:103F50003B1C0320191C274B98470320264B9847EE
:103F60000023FB6016E0FB689B001021C919CB18E9
:103F70000C3B1A68FB689B001021C919CB180C3B3D
:103F80001B681B78DBB201210B43DBB21370FB68AB
:103F90000133FB60FB68002BE5D0C046174B984708
:103FA000031C002BFAD13B1C0B3300221A700DE0CE
:103FB0003B1C0B331A78124B92000021D1503B1C52
:103FC0000B331A783B1C0B3301321A703B1C0B333A
:103FD0001B780F2BECD904200A4B98470A4B9847C3
:103FE000BD4604B080BDC04600180040A93E000098
:103FF000953E0000C1410100014201004D3E00001C
:1040000048050020053F00000D40000080B582B04B
:1040100000AF144B3B6000237B6016E07B689B0085
:104020000821C919CB18083B1A687B689B00082136
:10403000C919CB18083B1B681B78DBB202210B4364
:10404000DBB213707B6801337B607B68002BE5D0AB
:10405000C046054B9847031C002BFAD1BD4602B061
:1040600080BDC046001800404D3E000090B587B0AE
:1040700000AF021C3960FB1D1A703B1C0833181C72
:10408000374B98473B685B68DAB23B1C08331A70C1
:104090003B1C083300225A703B681A7A3B1C0833D9
:1040A0009A703B681B68DAB23B1C0833101C191C61
:1040B0002C4B9847FB1D1B78181C2B4B9847031C57
:1040C0003B61FB1D1A78072313409B00FB603B6894
:1040D000DB7A7B613B689B7A002B03D07B690822EB
:1040E00013437B61FB1D1B78DB08DBB21A1CFB1D35
:1040F0001B78DB08DBB2191C3B6906318900CB5801
:10410000F9680F20041C8C40211CC9431940FB682E
:104110007869041C9C40231C19433B6906329200B9
:10412000D1503B685B7A002B0BD03B695A69FB1D71
:104130001B780121081C9840031C1A433B695A61F3
:104140000BE03B695B69FA1D127801210C1C94405D
:10415000221CD2431A403B695A61BD4607B090BD4C
:10416000DD3D0000E1440100053E000080B584B063
:1041700000AF021CFB1D1A703B1C0F33FA1D127896
:1041800052091A703B1C0F331B78002B0BD1084BC4
:10419000BB603B1C0F331B789B001022D219D31835
:1041A000083B1B6800E00023181CBD4604B080BD1E
:1041B0000018004080B584B000AF021CFB1D1A70CF
:1041C000FB1D1B78181C0C4B9847031CFB60FB1D48
:1041D0001A781F2313400122111C99400B1CBB604D
:1041E000FB681B69BA6813405A1E9341DBB2181C66
:1041F000BD4604B080BDC0466D41000080B584B0AE
:1042000000AF021CFB1D1A70FB1D1B78181C094B0C
:104210009847031CFB60FB1D1A781F2313400122E3
:10422000111C99400B1CBB60FB68BA681A61BD4643
:1042300004B080BD6D41000080B582B000AF7860F1
:10424000FB1C1970BB1C1A70BB1C1B78002B01D007
:10425000172319E0FB1C1A780D4B9200D358002B42
:1042600007D1FB1C1A780A4B92007968D1500023C1
:104270000AE0FB1C1A78064B9200D2587B689A42DF
:1042800001D1002300E01D23181CBD4602B080BDF3
:104290004805002080B584B000AF0A1CFB1D011C3E
:1042A0001970BB1D1A70BB1D1B78002B0ED1FB1D96
:1042B0001B78181C084B9847031CFB60FB1D1B78E0
:1042C00001229A40FB68DA60002300E01723181CE3
:1042D000BD4604B080BDC0466D41000080B500AF52
:1042E000154B00221A7021E0134B1B78181C134B3E
:1042F0009847031C002B13D00F4B1B78181C104B36
:1043000098470D4B1B781A1C0E4B9200D358002B6C
:1043100006D0094B1B781A1C0A4B9200D3589847B9
:10432000054B1B780133DAB2034B1A70024B1B7832
:104330000F2BD9D9BD4680BD88050020B5410000AE
:10434000FD4100004805002080B582B000AF074B5A
:104350007B607B681B7DDBB21A1C012313405A1E55
:104360009341DBB2181CBD4602B080BD0040004145
:1043700080B582B000AF021C3960FB1D1A70FB1DB6
:104380001B78012B0AD0022B0FD0002B14D10E4B1F
:104390000D4A91693A680A439A610FE00A4B0A4A4A
:1043A000D1693A680A43DA6108E0074B064A116AA4
:1043B0003A680A431A6201E0172300E00023181C40
:1043C000BD4602B080BDC0460004004080B584B048
:1043D00000AF7860334BFB6001200421324B9847DB
:1043E000FB681B8B9BB22022FF3213439AB2FB68FF
:1043F0001A832E4B9847031C01225340DBB2002B3B
:1044000001D0052349E07B681B781B021A1CC023DE
:104410009B001A407B685B78DB01191CFF230B4073
:104420001A437B689B785B00191C1E230B401A43C0
:104430007B68DB78191C01230B409B041A437B68C3
:104440001B791B04191CC0239B020B401A43FB68F9
:104450005A60FB689B681B0C1A1C07231340DBB2D5
:104460000822111C99400B1C9AB2114B1A80FB6850
:104470009B68002293439AB20D4B5A807B685A780E
:104480000B4B1A71FB681B8B9BB21A1C80235B00C1
:10449000134001D0102300E00023181CBD4604B0D7
:1044A00080BDC04600400041714300004943000008
:1044B0009004002080B586B000AFB9607A603B1CE4
:1044C0000F33021C1A70324B1B88314A52885A43F0
:1044D000BB689A4201D2182356E02E4B7B617B6960
:1044E0005B683B613B698022D2021A437B695A6058
:1044F0007B691B8B9BB22022FF3213439AB27B69EC
:104500001A83254B9847031C01225340DBB2002B32
:1045100001D0052338E03B1C0F331B78452B1AD8FC
:104520009A001E4BD3181B689F467B691B8B9BB25E
:104530001A1C80235B00134001D0102324E0BB68C9
:104540009B085A007B69DA6108E0BB689B085A0047
:104550007B69DA6102E0172316E0C0463B1C0F338B
:104560001B789BB20E4A13439AB27B691A80C046ED
:10457000094B9847031C01225340DBB2002BF7D1B3
:104580007B693A695A600023181CBD4606B080BD9D
:10459000900400200040004149430000788301005E
:1045A00000A5FFFF80B588B000AFF860B960BB1D03
:1045B0001A80464B1B88454A52885A43FB689A42E8
:1045C00001D218237DE0414B1B88013BFA68134060
:1045D00001D0182375E03D4B1B88BA1D12889A4202
:1045E00001D917236DE03A4B7B613A4B9847031C86
:1045F00001225340DBB2002B01D0052361E07B692F
:10460000354A1A80C046334B9847031C0122534059
:10461000DBB2002BF7D17B691B8B9BB22022FF32D0
:1046200013439AB27B691A83FB685B08FB613B1CEE
:104630001A3300221A8030E03B1C1A331B88BA68F8
:10464000D3181A783B1C18331A803B1C1A331A886B
:10465000BB1D1B88013B9A4210DA3B1C1A331B8896
:104660000133BA68D3181B781B029AB23B1C18336B
:104670001B8813439AB23B1C18331A80FB695A1CDF
:10468000FA615B003A1C183212881A803B1C1A33FC
:104690003A1C1A32128802321A803A1C1A32BB1D96
:1046A00012881B889A42C7D3BB1D1B883F2B07D893
:1046B000FB680420191C0022084B9847031C00E0EB
:1046C0000023181CBD4608B080BDC04690040020E1
:1046D000004000414943000044A5FFFFB5440000ED
:1046E00080B584B000AF78601A4B1B88194A528895
:1046F0005A437B689A4201D2182326E0154B1B8847
:104700009B00013B7A68134001D018231DE0124B37
:10471000FB60124B9847031C01225340DBB2002B75
:1047200001D0052311E0FB681B8B9BB22022FF32D6
:1047300013439AB2FB681A837B689B085A00FB6894
:10474000DA61FB68064A1A800023181CBD4604B0D3
:1047500080BDC04690040020004000414943000055
:1047600002A5FFFF80B582B000AF78607B680022B1
:104770001A70BD4602B080BD80B582B000AF021C89
:104780003960FB1D1A70FB1D1B78012B0AD0022B10
:104790000FD0002B14D10E4B0D4A91693A680A4391
:1047A0009A610FE00A4B0A4AD1693A680A43DA6112
:1047B00008E0074B064A116A3A680A431A6201E0A8
:1047C000172300E00023181CBD4602B080BDC04680
:1047D0000004004080B582B000AF78607B68802222
:1047E0001A707B6800225A707B6801229A707B687D
:1047F0000022DA70BD4602B080BDC04680B500AF71
:10480000054B9B78DBB21A1C022313405A1E9341BE
:10481000DBB2181CBD4680BD0020004180B584B0CD
:1048200000AF78607B681B68FB60FB681B8A9BB2EB
:104830001A1C80231B0213405A1E9341DBB2181C22
:10484000BD4604B080BDC04680B582B000AF786080
:10485000C0467B68181C044B9847031C002BF8D1FA
:10486000BD4602B080BDC0461D480000B0B58CB04A
:1048700002AF786039607B681B68BB617B681B682E
:10488000181C6D4B9847031C7B617B690D333B61A2
:1048900000237B6200233B623B1C0C3300221A8006
:1048A0003B1C0F3300221A703B1C0E3310221A706F
:1048B0003B681A683B68DB681A433B689B7D5B0773
:1048C00013437B623B1C1F3300221A703B685B68FA
:1048D000002B1FD08022520593424CD13B68DB7DD8
:1048E00001225340DBB2002B13D03B681D693B69AA
:1048F000DBB2181C514B9847021C3C1C1F343B1C5C
:104900000C33281C111C1A1C4D4B9847031C237098
:1049100031E030E03B68DB7D002B13D03B68186949
:104920003B6899693C1C1F343A1C0C323B1C0F330A
:104930001B783D1C0E352D780095424DA847031C71
:10494000237017E03B681D693B69DBB2181C3B4BC9
:104950009847011C3C1C1F343A1C0C323B1C0F3383
:104960001B78381C0E3000780090281C354DA84765
:10497000031C2370C0463B1C1F331B78002B03D045
:104980003B1C1F331B7852E07B68181C2E4B98474A
:104990003B1C0C331A88BB695A813B685B687A6A96
:1049A00013437B623B68DB7D01225340DBB2002B6B
:1049B00003D07B6A042213437B623B689A7A3B688C
:1049C000DB7A1343DBB21A1C3B681B7D5B041A4382
:1049D0003B685B7D1B0413433B623B681B89FF2BD9
:1049E00009D07B6A8022520413437B623B681B8997
:1049F0003A6A13433B623B681B7F002B04D1134B85
:104A00009847031C002B03D07B6A802213437B62F0
:104A10007B68181C0C4B9847BB693A6A5A607B68E4
:104A2000181C094B9847BB697A6A1A600023181C46
:104A3000BD460AB0B0BDC0462D2B01002143010088
:104A4000BD2601002127010049480000FD47000064
:104A500090B593B000AFF860B9607A603B1C3B330F
:104A600000221A70FB68BA681A60FB681B687B63D7
:104A7000FB681B68181C7F4B9847031C3B633B6B10
:104A80000233FB623B6B0D33BB627B6B1A68012305
:104A9000134001D00523E9E07B6B1A680223134021
:104AA00001D01C23E2E0FB6A0122111C99400B1C7F
:104AB0000220191C704B98473B1C2433181C6F4B69
:104AC00098477B685A7F3B1C24331A70BB6ADAB262
:104AD0003B1C2433101C191C694B9847BB6ADBB282
:104AE000181C684B98477B685B7F181C0021664B3D
:104AF00098477B68DA7AFB685A717B681A7DFB6895
:104B00009A717B685A7DFB68DA713C1C3B34FA6809
:104B10007B68101C191C5D4B9847031C23703B1CC1
:104B20003B331B78002B03D03B1C3B331B789DE0B1
:104B30003B1C2033181C564B98473B1C203300224B
:104B40005A703B1C203300229A707B681A6A3B1C07
:104B500010331A607B685A6A3B1C10335A607B68BA
:104B60009A6A3B1C10339A607B68DA6A3B1C1033EC
:104B7000DA603B1C473300221A702CE03B1C4733A1
:104B80001A783B1C10339200D3583B643B6C002BCB
:104B900009D1BA683B1C47331B78101C191C3D4BCC
:104BA0009847031C3B643B6C01330DD03B6CDAB27D
:104BB0003B1C20331A703B6C1B0CDAB23B1C2033BD
:104BC000101C191C344B98473B1C47331A783B1C6C
:104BD000473301321A703B1C47331B78032BCDD966
:104BE0000023FB6308E0FB68FA6B023292000021AD
:104BF000D150FB6B0133FB63FB6B022BF3D9FB68DA
:104C000000229A61FB6800225A61FB680022DA8365
:104C1000FB6800229A83FA6820230021D154FA68A5
:104C200021230021D154FA6822230021D154FA68AB
:104C300023230021D154FB681B683C1C2734181C1B
:104C40000C4B9847031C23703B1C27331A78134BDB
:104C5000101C191C124B98473B1C27331A78114B18
:104C60009200F968D1503B1C3B331B78181CBD46A1
:104C700013B090BD2D2B010079470000654700005F
:104C8000C141010001420100D12801006D4800002E
:104C9000D54700005D290100E1440100894E000074
:104CA000792B01009439002080B584B000AF786082
:104CB0007B681B68FB60FB681B8A9BB21A1C802305
:104CC0001B0213405A1E9341DBB2181CBD4604B0B0
:104CD00080BDC04680B582B000AF7860C0467B68BA
:104CE000181C044B9847031C002BF8D1BD4602B09A
:104CF00080BDC046A94C000080B586B000AFF8600A
:104D0000B960BB1D1A80FB681B687B61FB68BA1D1C
:104D10001288DA83FB68BA689A61FA68232305214E
:104D2000D1547B6901225A73BD4606B080BDC0468E
:104D300080B586B000AFF860B960BB1D1A80FB6813
:104D40001B687B61FB68BA1D12889A83FB68BA688E
:104D50005A61FA6822230521D154FB680022DA84C3
:104D6000FA682E230021D154FB68BA689A62FB6866
:104D7000BA1D12889A85FA6824230021D1547B69D0
:104D800004225A73BD4606B080BDC04680B584B0CB
:104D900000AFF860B960FB1D1A70FB1D1A78FB6844
:104DA00002329200B968D150FA682023D35CDAB29B
:104DB000FB1D1B780121081C9840031CDBB2134328
:104DC000DBB2D9B2FA682023D154BD4604B080BD0D
:104DD00080B584B000AFF860B960BB1D1A80BB1D00
:104DE0001B88002B01D1172319E0FB68DB8B9BB2DA
:104DF000002B01D0052312E0FB68DB790122534030
:104E0000DBB2002B01D01C2309E0F968BA68BB1D96
:104E10001B88081C111C1A1C034B98470023181CE4
:104E2000BD4604B080BDC046F94C000080B584B0DA
:104E300000AFF860B960BB1D1A80BB1D1B88002B3A
:104E400001D1172319E0FB689B7901225340DBB2A3
:104E5000002B01D01C2310E0FB689B8B9BB2002B26
:104E600001D0052309E0F968BA68BB1D1B88081C3E
:104E7000111C1A1C034B98470023181CBD4604B094
:104E800080BDC046314D000080B588B000AF021C27
:104E9000FB1D1A70FB1D1A78C44B9200D358BB61DE
:104EA000BB691B687B61BB69181CC14B98477B6958
:104EB0009B7BDAB23B1C12331A807B695B7BDBB2D3
:104EC0001A1C3B1C1233391C123109880A401A8003
:104ED000BA692023D35CB96921228A5C1340DAB213
:104EE0003B1C10331A803B1C12331A8801231340D9
:104EF00044D0BB69DB8B9BB2002B3CD0BB699B6968
:104F00001B78DAB23B1C1E331A80BB699B695A1CA2
:104F1000BB699A61BB695B79012B12D1BB699B6943
:104F20001B78DBB21B029AB23B1C1E331B88134357
:104F30009AB23B1C1E331A80BB699B695A1CBB6921
:104F40009A613B1C1E331B88DB05DB0D9AB27B6923
:104F50001A83BB69DB8B9BB2013B9BB2BA69191CFC
:104F6000D183002B06D17B6901221A737B6902224F
:104F70005A7303E002E07B6901221A733B1C12336F
:104F80001A880223134011D07B6902221A73BA696E
:104F900023230021D1543B1C10331A8801231340D2
:104FA00004D0BB699B68BA69101C98473B1C12333C
:104FB0001A880423134000D1FFE0BB699B8B9BB28E
:104FC000002B00D1F6E07B691B8A9BB2D9B23B1C57
:104FD0000F3307220A401A703B1C0F331B78002B3B
:104FE00044D03B1C0F331A78022313400CD0BA690B
:104FF00022231A21D1547B691B8A9BB202221343BC
:105000009AB27B691A8224E03B1C0F331A7804237E
:1050100013400CD0BA6922231E21D1547B691B8A0C
:105020009BB2042213439AB27B691A8211E03B1CA3
:105030000F331A78012313400BD0BA6922231321AE
:10504000D1547B691B8A9BB2012213439AB27B69BC
:105050001A823B1C10331A880423134000D1ACE0A1
:10506000BB691B69BA69101C9847A6E07B691B8B5A
:105070009AB23B1C0C33D205D20D1A80BB695B6916
:105080003A1C0C321288D2B21A70BB695B695A1C86
:10509000BB695A61BB69DB8C9BB201339AB2BB69B5
:1050A000DA84BB699B8B9BB2013B9BB2BA69191C2A
:1050B0009183002B13D17B6904221A73BA692223CE
:1050C0000021D1543B1C10331A880223134000D115
:1050D0006BE0BB69DB68BA69101C98476DE0BB697F
:1050E000DB8C9BB2022B0ED0032B27D0012B54D18B
:1050F0003B1C0C331B88232B04D1BA6924230121C8
:10510000D1544AE049E0BA692423D35CDBB2002BD6
:1051100009D03B1C0C331B881B029BB202339AB292
:10512000BB699A8339E0BB699A6ABB695A61BB69FA
:105130000022DA84BB6903229A832EE0BA69242311
:10514000D35CDBB2002B1CD0BB699B8B9AB23B1C9F
:105150000C331B88D3189AB2BB699A83BB699B8BAB
:105160009BB2043B9AB2BB699A83BB699B8B9AB290
:105170008223DB009A420FD9BA6924230021D1543B
:105180000AE0BB699A6ABB695A61BB690022DA848A
:10519000BB6903229A83FFE7C0463B1C0C331B8884
:1051A000D9B2BA692E23D15407E006E09439002021
:1051B000D54C00007B6904221A73BD4608B080BD3F
:1051C00080B582B000AF78607B6800221A70BD465F
:1051D00002B080BD80B582B000AF021C3960FB1DFB
:1051E0001A70FB1D1B78012B0AD0022B0FD0002B4D
:1051F00014D10E4B0D4A91693A680A439A610FE047
:105200000A4B0A4AD1693A680A43DA6108E0074B57
:10521000064A116A3A680A431A6201E0172300E05D
:105220000023181CBD4602B080BDC04600040040EB
:1052300080B582B000AF78607B6880221A707B688E
:1052400000225A707B6801229A707B680022DA7013
:10525000BD4602B080BDC04680B584B000AF786066
:105260007B681B68FB60FB68DB7BDBB21A1C80235E
:1052700013405A1E9341DBB2181CBD4604B080BDDA
:1052800090B58DB000AF78603B1C0C330F4A13CA49
:1052900013C313CA13C303CA03C30023FB620DE085
:1052A0003B1C0C33FA6A9200D2587B689A4202D1B6
:1052B000FB6ADBB206E0FB6A0133FB62FB6A072B89
:1052C000EED90023181CBD460DB090BD908401009E
:1052D00090B58FB000AFF860B9607A603B1C363390
:1052E00000221A803B1C353300221A703B1C3433D9
:1052F00000221A703C1C3134BB68181CC44B984700
:10530000031C23703A1C2832C24B111C1A1C0823A0
:10531000081C111C1A1CC04B98473A1C1832BF4B72
:10532000111C1A1C1023081C111C1A1CBA4B98477C
:105330003B1C333300221A700EE03B1C33331A78C7
:10534000FB68023292000021D1503B1C33331A78A3
:105350003B1C333301321A703B1C33331B78032B55
:10536000EBD9FB6800221A76FB6800225A763B1CB8
:1053700031331A78AA4B9200F968D150FB68BA68A9
:105380001A607B689B78082B07D13B1C31331A7855
:105390000123134001D01723D5E17B689A78FB687D
:1053A0001A71BB681B889BB21A1C0123134001D0E1
:1053B0000523C8E1BB68DB7BDBB21A1C102313405A
:1053C00001D01C23BFE1BB681B889BB21A1C0223BF
:1053D000134001D01C23B6E17B681B7C002B17D047
:1053E0003B1C1433181C8F4B98477B689B69DAB2BF
:1053F0003B1C14331A703B1C143301225A707B6817
:105400005B69DAB23B1C1433101C191C864B98479D
:105410007B681B7F002B17D03B1C1433181C814B5F
:1054200098477B685B6ADAB23B1C14331A703B1CEA
:10543000143301225A707B681B6ADAB23B1C1433A6
:10544000101C191C784B98473B1C31331A783B1CB5
:1054500018335200D35A0220191C744B98477B68AA
:105460009B78082B0BD13B1C31331B785A1C3B1CFF
:1054700018335200D35A0220191C6C4B98473B1C1E
:105480001033181C6A4B98477B681A783B1C103302
:105490001A703B1C31331B783A1C2832D25C3B1CFF
:1054A0001033101C191C634B98473B1C31331B787D
:1054B0003A1C2832D35C181C5F4B98477B689A785B
:1054C0007B689B791343DBB21A1C7B681B891343EF
:1054D00099B27B689A883B1C36330A431A807B68F2
:1054E0005B78002B09D03B1C36333A1C36321288CD
:1054F000802109010A431A80FFE7C046FB68181C97
:105500004E4B9847031C002BF8D1BB683A1C36322F
:1055100012881A807B685B7B002B03D03B1C3533E1
:1055200004221A707B689B7B002B08D03B1C353310
:105530003A1C3532127801210A431A70FFE7C0463F
:10554000FB68181C3D4B9847031C002BF8D1BB6827
:10555000FF221A713B1C35331B78002B0CD0C04640
:10556000FB68181C354B9847031C002BF8D1BB680F
:105570003A1C353212785A713B1C34337A68927A6D
:105580001A703B1C323300221A701DE03B1C323370
:105590001B787A68D318DB7A002B0ED03B1C323391
:1055A0001B781022111C99400B1CD9B23B1C3433C0
:1055B0003A1C343212780A431A703B1C32331A7880
:1055C0003B1C323301321A703B1C32331B78012BE7
:1055D000DCD9C046FB68181C184B9847031C002BED
:1055E000F8D1BB683A1C343212789A71C046FB6815
:1055F000181C124B9847031C002BF8D1FB681B7931
:10560000042B1DD0082B00D176E0002B4ED099E062
:1056100081520000B08401001D800100B8840100A7
:105620008C05002031520000E1440100D5510000FA
:10563000C1510000C1410100014201005952000066
:10564000C046FB68181C424B9847031C002BF8D13E
:105650007A682823D25CBB681A74C046FB68181CA1
:105660003B4B9847031C002BF8D17A682923D25C66
:10567000BB681A75C046FB68181C354B9847031C5D
:10568000002BF8D17A682A23D25CBB681A76C04610
:10569000FB68181C2E4B9847031C002BF8D17A6826
:1056A0002B23D25CBB685A7600234CE0C046FB68D3
:1056B000181C274B9847031C002BF8D17B681A8DC8
:1056C000BB681A82C046FB68181C214B9847031C14
:1056D000002BF8D17B685A8DBB681A83C046FB68E3
:1056E000181C1B4B9847031C002BF8D17B689A8D24
:1056F000BB685A83002326E0C046FB68181C144B85
:105700009847031C002BF8D17B689A6ABB681A6122
:10571000C046FB68181C0E4B9847031C002BF8D1A1
:105720007B68DA6ABB689A61C046FB68181C084B44
:105730009847031C002BF8D17B681A6BBB68DA61B1
:10574000002300E01723181CBD460FB090BDC046D3
:105750005952000080B584B000AFF860B960FB1DFD
:105760001A70FB1D1A78FB6802329200B968D1509A
:10577000FB1D1B78022B07D1FB681B7E10221343F5
:10578000DAB2FB681A761AE0FB1D1B78032B07D1EF
:10579000FB681B7E20221343DAB2FB681A760EE008
:1057A000FB681B7EDAB2FB1D1B780121081C9840A8
:1057B000031CDBB21343DBB2DAB2FB681A760023B8
:1057C000181CBD4604B080BD80B500AF0020024B60
:1057D0009847BD4680BDC0466958000080B500AFFF
:1057E0000120024B9847BD4680BDC0466958000065
:1057F00080B500AF0220024B9847BD4680BDC04631
:105800006958000080B500AF0320024B9847BD46A1
:1058100080BDC0466958000080B500AF0420024B2F
:105820009847BD4680BDC0466958000080B500AFAE
:105830000520024B9847BD4680BDC0466958000010
:1058400080B500AF0620024B9847BD4680BDC046DC
:105850006958000080B500AF0720024B9847BD464D
:1058600080BDC0466958000080B584B000AF021CFE
:10587000FB1D1A70FB1D1A78284B9200D358FB6051
:10588000FB681B689B7BDBB2FA68127E1340DAB2BE
:10589000FB68597E3B1C0B330A401A703B1C0B33D0
:1058A0001A780123134008D0FB689B68FA68101C23
:1058B0009847FB681B6801229A733B1C0B331A78CC
:1058C0000223134008D0FB68DB68FA68101C984775
:1058D000FB681B6802229A733B1C0B331A78102357
:1058E000134008D0FB681B69FA68101C9847FB68D6
:1058F0001B6810229A733B1C0B331A782023134029
:1059000008D0FB685B69FA68101C9847FB681B6845
:1059100020229A73BD4604B080BDC0468C0500208D
:1059200080B582B000AF021C3960FB1D1A70FB1DF0
:105930001B78012B0AD0022B0FD0002B14D10E4B59
:105940000D4A91693A680A439A610FE00A4B0A4A84
:10595000D1693A680A43DA6108E0074B064A116ADE
:105960003A680A431A6201E0172300E00023181C7A
:10597000BD4602B080BDC0460004004080B582B084
:1059800000AF084B7B607B68DB79DBB2DBB25BB2DC
:10599000002B01DA012300E00023181CBD4602B0F1
:1059A00080BDC0460010004080B582B000AF074BFC
:1059B0007B607B681B78DBB21A1C802313405A1E65
:1059C0009341DBB2181CBD4602B080BD0010004000
:1059D00080B586B000AF7860564B3B610020102147
:1059E000554B9847554B9847031C002B01D010236B
:1059F0009CE07B68DB78002B01D1172396E07B6865
:105A0000DA787B681B799A4205D37B68DA787B6801
:105A10005B799A4201D2172388E03B691B78DBB29D
:105A200002229343DAB23B691A707B685B780122E9
:105A30005340DBB2002B01D0002377E07B689A78DB
:105A40003B1C0C331A703B1C0C330120191C3C4BC3
:105A5000984701203B4B98477B681B78002B03D06D
:105A60000120394B9847FFE7C046384B9847031C45
:105A7000002BFAD100237B617B68DB78013B7A69DC
:105A800013437B617B681B79002B0FD03B691B782C
:105A9000DBB204221343DAB23B691A707B681B79CC
:105AA000013B1B017A6913437B6107E03B691B786B
:105AB000DBB204229343DAB23B691A70C046234B2F
:105AC0009847031C002BFAD17B69DAB23B695A7004
:105AD0007B685B79002B0CD0C0461C4B9847031C9D
:105AE000002BFAD17B685B79013BDAB23B699A7093
:105AF000FFE7C046154B9847031C002BFAD17B6883
:105B00001B78002B09D03B691B78DBB28022524204
:105B10001343DAB23B691A7007E03B691B78DBB2CA
:105B200002221343DAB23B691A700023181CBD46E7
:105B300006B080BD0010004021590000A9590000A6
:105B4000C141010001420100DD4201007D59000018
:105B500080B582B000AF074B7B60C046064B9847CC
:105B6000031C002BFAD17B68A5221A72BD4602B035
:105B700080BDC046001000407D59000080B586B051
:105B800000AFBB1D18807B1D1970BB1C1A803B1C0D
:105B9000173300221A703B1C1433354A92781A705E
:105BA000344B1B78002B5CD03B1C153300221A7041
:105BB0003B1C163300221A7045E03B1C16331A7842
:105BC0002D4B5200D35A1AB2BB1C00215B5ED31A74
:105BD0003B613B1C14331A78131C9B009B185B0021
:105BE000FB60FA68254B101C05219847031CFB60DD
:105BF0003B69FA6853433B613A69204B101C0A2108
:105C00009847031C3B617B1D1B78012B0AD1BB1DF0
:105C100000215A5E3B699A420EDD3B1C153301227E
:105C20001A7009E0BB1D00215A5E3B699A4203DAF3
:105C30003B1C153301221A703B1C16331A783B1C8F
:105C4000163301321A703B1C16331B78042BB4D95F
:105C50003B1C15331B78002B03D13B1C173301224F
:105C60001A703B1C17331B78181CBD4606B080BD4C
:105C7000C02F00201C0600200C060020F559010052
:105C800080B586B000AFF860B9607A603B603B1CBD
:105C9000173300221A70144B1B78002B1CD0134BA7
:105CA0001B889AB2FB681A80114B1B889AB2BB689A
:105CB0001A80104B1B889AB27B681A803B1C1733E2
:105CC00001221A700C4B1B78002B05D00A4B0022C6
:105CD0001A703B6801221A703B1C17331B78181C82
:105CE000BD4606B080BDC046DE0500209E040020F3
:105CF000A0040020A20400204A06002080B586B03F
:105D000000AFF860B9607A603B1C173300221A704C
:105D10000E4B1B78002B12D00D4B1B889AB2FB68E0
:105D20001A800C4B1B889AB2BB681A800A4B1B88DE
:105D30009AB27B681A803B1C173301221A703B1CF5
:105D400017331B78181CBD4606B080BDDE05002049
:105D50009E040020A0040020A204002080B584B08E
:105D600000AF021CFB1D1A703B1C0F3300221A707F
:105D70003B1C0C3300221A703A1C0C32FB1D1B78A2
:105D8000101C191C0122094B9847031C002B05D03D
:105D90003B1C0F333A1C0C3212781A703B1C0F3329
:105DA0001B78181CBD4604B080BDC046F5C4000079
:105DB00080B584B000AF0A1CFB1D011C1970BB1D0F
:105DC0001A703B1C0C33BA1D12781A703A1C0C3234
:105DD000FB1D1B78101C191C0122024B9847BD4665
:105DE00004B080BD75C6000080B582B000AF202031
:105DF00097212C4B9847232008212A4B9847FB1DBD
:105E000000221A7016E0FB1D1A78274B5200002161
:105E1000D152FB1D1A78254B52000021D152FB1D97
:105E20001A78234B52000021D152FB1D1A78FB1D1A
:105E300001321A70FB1D1B78132BE4D91D4B002275
:105E40001A701D4B00221A701C4B00221A70FB1D89
:105E500000221A7007E01A4B00225A81FB1D1A78A3
:105E6000FB1D01321A70FB1D1B78042BF3D9154B57
:105E700000221A70144B00221A7004200121002203
:105E8000124B9847124B9847031C332B04D1042024
:105E9000012101220D4B98470123181CBD4602B079
:105EA00080BDC046B15D0000B0050020E0050020C7
:105EB0002006002016060020DE0500204A060020ED
:105EC0000C060020080600201C060020B5F7000084
:105ED0008D61000080B584B000AF964B9847031CDD
:105EE000002B00D11CE12920934B9847031C1A1C5E
:105EF0003B1C0C331A8028208F4B9847031C1A1C1C
:105F00003B1C0A331A803B1C0C333A1C0C3212889F
:105F100012021A803B1C0C33391C0C313A1C0A3219
:105F2000098812880A431A803B1C0C331A88834B59
:105F30001A802B20804B9847031C1A1C3B1C0C33E7
:105F40001A802A207C4B9847031C1A1C3B1C0A33DE
:105F50001A803B1C0C333A1C0C32128812021A8035
:105F60003B1C0C33391C0C313A1C0A32098812884C
:105F70000A431A803B1C0C331A88714B1A802D205F
:105F80006D4B9847031C1A1C3B1C0C331A802C20A9
:105F9000694B9847031C1A1C3B1C0A331A803B1C94
:105FA0000C333A1C0C32128812021A803B1C0C3340
:105FB000391C0C313A1C0A32098812880A431A80AB
:105FC0003B1C0C331A885F4B1A805F4B1B781A1CE2
:105FD0005A4B19885D4B5200D1525B4B1B781A1CEF
:105FE000574B19885A4B5200D152574B1B781A1CE9
:105FF000544B1988574B5200D152534B1B780133E5
:10600000DAB2514B1A70504B1B78132B6CD94E4B94
:1060100000221A70504B01221A70504B01221A7044
:106020004F4B00221A604E4B1A684E4B1A604D4B74
:106030001A684D4B1A603B1C0F3300221A702AE07D
:106040003B1C0F331A78414B5200D35A1AB2464BBD
:106050001B68D218444B1A603B1C0F331A783C4B18
:106060005200D35A1AB23F4B1B68D2183D4B1A60EC
:106070003B1C0F331A78374B5200D35A1AB2384BA5
:106080001B68D218364B1A603B1C0F331A783B1C26
:106090000F3301321A703B1C0F331B78132BCFD9EF
:1060A000314B1A68314B101C14219847031C7B603C
:1060B0007B689AB22E4B1A802A4B1A682B4B101C05
:1060C00014219847031C7B607B689AB2294B1A8085
:1060D000234B1A68254B101C14219847031C7B6026
:1060E0007B689AB2244B1A80174B1B78002B17D170
:1060F000224B1B781A1C1E4B1988214B5200D1527F
:106100001E4B1B780133DAB21C4B1A701B4B1B78E9
:10611000042B05D9194B00221A701A4B01221A7050
:106120000E4B1B78002B01D0174B9847BD4604B08F
:1061300080BDC046B16100005D5D00009804002094
:106140009A0400209C04002016060020B0050020C0
:10615000E005002020060020DE0500204A06002081
:10616000AC050020D805002018060020F5590100D4
:106170009E040020A0040020A204002008060020A5
:106180000C0600201C0600203190000090B583B062
:1061900000AFFC1D0F20054B9847031C2370FB1D0F
:1061A0001B78181CBD4603B090BDC0465D5D000065
:1061B00080B500AF0123181CBD4680BD80B584B0FA
:1061C00000AF021CFB1D1A703B1C0F33FA1D127826
:1061D000D2091A703B1C0E33FA1D127852091A703C
:1061E0000D4BBB603B1C0F331B78002B0ED13B1CAF
:1061F0000F331B789B001022D219D318083B1A6862
:106200003B1C0E331B78DB01D31800E00023181C65
:10621000BD4604B080BDC0460044004180B582B098
:1062200000AF021CFB1D1A70FB1D1B78181C034BD2
:106230009847031C181CBD4602B080BDBD6100001C
:1062400080B582B000AF78607B6800221A707B68EE
:1062500001225A707B6800229A70BD4602B080BD50
:1062600080B584B000AF0A1CFB1D011C1970BB1D5A
:106270001A70FB1D1B78181C0D4B9847031CFB6004
:10628000FB1D1A781F2313400122111C99400B1C7F
:10629000BB60BB1D1B78002B03D0FB68BA689A61FA
:1062A00002E0FB68BA685A61BD4604B080BDC046D2
:1062B0001D62000080B582B000AF021CBB1D1A80B9
:1062C000054BBA1D12881A80C046034B1B88002B51
:1062D000FBD1BD4602B080BD0437002080B582B03E
:1062E00000AF3B1D181C1B4B98473B1D01221A7029
:1062F0003B1D0920191C184B984709200021174BFA
:1063000098473B1D0820191C134B98470820012172
:10631000124B98472820124B9847092001210F4B18
:10632000984728200E4B9847082001210B4B98478F
:1063300014200B4B98470B4B01221A700A4B012279
:106340001A700A4B00221A70094B9847181CBD4658
:1063500002B080BD416200003D1F0100616200008B
:10636000B5620000A4040020BC2E0020EE2E002008
:1063700015E4000080B582B000AF3B1D181C134B24
:1063800098473B1D01221A703B1D0920191C104B18
:106390009847092000210F4B98473B1D0820191CE6
:1063A0000B4B9847082001210A4B984728200A4B9D
:1063B00098470A4B00221A70094B02221A70094BA7
:1063C00002221A70181CBD4602B080BD4162000056
:1063D0003D1F010061620000B5620000A4040020BE
:1063E000BC2E0020EE2E002080B582B000AF786079
:1063F0007B6800221A607B6800225A607B68012259
:106400001A727B6801225A727B6800229A727B683A
:106410000222DA72BD4602B080BDC04680B584B0AB
:1064200000AF021CBB1D1A803B1C0E3300221A80D9
:106430003B1C093300221A703B1C0A33424A128863
:106440001A803B1C0A331B88002B07D03B1C0A33E5
:106450001A883B1C0A33013A1A8004E03B1C0A33B9
:106460008022D2001A803B1C0C3300221A80374B4A
:106470001A888023DB009A4204D9344B8022D20050
:106480001A804DE04CE03B1C0A331A88304B520016
:10649000D35ABA1D12889A4216D93B1C09330122DD
:1064A0001A703B1C0E333A1C0E3212881A803B1CA9
:1064B0000C333A1C0C3212881A803B1C0A333A1CEB
:1064C0000A3212881A802BE03B1C0C331A883B1CC2
:1064D0000C3301321A803B1C0E331A883B1C0E33DE
:1064E00001321A803B1C0A331B88002B0DD03B1C49
:1064F0000A331A883B1C0A33013A1A803B1C0933C1
:106500003A1C093212781A700AE03B1C0A338022C6
:10651000D2001A803B1C09333A1C093212781A70D7
:106520003B1C09331B78002B06D1084B1B883A1CF7
:106530000C3212889A42A6D33B1C0E331B88181CBF
:10654000BD4604B080BDC046A21E0020A6040020A7
:10655000A41E002080B584B000AF3B1D181C0B4B5F
:1065600098473B1D2B221A603B1D00225A603B1DA1
:1065700000221A723B1D0322DA723B1D0B20191CEC
:10658000034B9847BD4604B080BDC046E963000098
:106590006D40000080B500AF054B181C0B21002298
:1065A000044B98470B200021034B9847BD4680BD04
:1065B000BD650000394200009542000098B500AF6B
:1065C0002D4B1B8801339AB22B4B1A802B4B1B7817
:1065D000012B24D12A4B1A882A4B9A4205D9284BE1
:1065E00000221A80284B01221A70254B1B881C1C84
:1065F0000120264B9847031C191C254B6200D152E1
:106600001F4B1B885A1C91B21D4A11801A1C1A4B31
:1066100019881F4B8020C00012185200D152174B0E
:106620001B78042B10D11B4B1B88002B0CD0194B53
:106630001B88013B9AB2174B1A80164B1B88002B04
:1066400002D10020144B98470C4B1B78032B10D120
:10665000104B1B88002B0CD00E4B1B88013B9AB2B1
:106660000C4B1A800B4B1B88002B02D100200A4BCD
:106670009847BD4698BDC046A8040020B00400203D
:10668000A21E0020FF030000AA04002045B600005F
:10669000A41E0020E82E0020859C000080B584B058
:1066A00000AF021CFB1D1A703B1C0F33FA1D127841
:1066B000D2091A703B1C0E33FA1D127852091A7057
:1066C0000D4BBB603B1C0F331B78002B0ED13B1CCA
:1066D0000F331B789B001022D219D318083B1A687D
:1066E0003B1C0E331B78DB01D31800E00023181C81
:1066F000BD4604B080BDC0460044004180B500AF37
:10670000034B01221A70BFF35F8F62B6BD4680BD96
:106710004400002080B582B000AF021CFB1D1A703F
:10672000FB1D1B78181C034B9847031C181CBD4607
:1067300002B080BD9D66000080B582B000AF786079
:106740007B6800221A707B6801225A707B680022E5
:106750009A70BD4602B080BD80B584B000AF021C07
:10676000FB1D1A70FB1D1B78181C0C4B9847031C53
:10677000FB60FB1D1A781F2313400122111C994056
:106780000B1CBB60FB681B6ABA6813405A1E93411E
:10679000DBB2181CBD4604B080BDC04615670000C2
:1067A00080B584B000AF0A1CFB1D011C1970BB1D15
:1067B0001A70FB1D1B78181C0D4B9847031CFB60BF
:1067C000FB1D1A781F2313400122111C99400B1C3A
:1067D000BB60BB1D1B78002B03D0FB68BA689A61B5
:1067E00002E0FB68BA685A61BD4604B080BDC0468D
:1067F0001567000080B582B000AF78607B6800222A
:106800001A607B6800225A607B6801221A727B68DA
:1068100001225A727B6800229A727B680222DA7225
:10682000BD4602B080BDC04680B582B000AF021C3C
:10683000BB1D1A80054BBA1D12881A80C046034B37
:106840001B88002BFBD1BD4602B080BDC83600209E
:1068500090B585B000AF021CFB1D1A703B1C0E33B7
:1068600000221A803C1C0C340220214B9847031C48
:106870002380204B1B78FA1D12789A4204D13B1CCE
:106880000C331B885F2B21D8FB1D1B78092B14D0E0
:1068900002DC042B05D015E00B2B0AD0222B04D0F0
:1068A00010E0154B64221A800CE0134B64221A800E
:1068B00008E0114B64221A8004E00F4BFA225200C8
:1068C0001A80C0460B4BFA1D12781A700A4B1B88AF
:1068D000002B05D13B1C0E333A1C0C3212881A8057
:1068E0003B1C0E331B88181CBD4605B090BDC0462E
:1068F00045B60000B5040020B604002080B500AF06
:10690000124B02221A70124B02221A70114B0122F2
:106910001A70114B1B7904221343DAB20E4B1A7111
:106920000E4B02221A700E4B05229A700D4B98479F
:106930000D4B00221A800D4B00221A70074B0222C9
:106940001A70084B9847BD4680BDC046EE2E002009
:10695000BC2E0020B42E00209C360020C52E002026
:10696000C02F0020396F0000EC2E0020BD36002023
:1069700080B500AF064B02221A70064B02221A7035
:10698000054B01221A70054B01221A70BD4680BDCD
:10699000EE2E0020BC2E0020B42E0020C52E00209C
:1069A00080B584B000AF021CFB1D1A703B1C0F3376
:1069B00001221A70FB1D1B78012B3DD002DC002B3D
:1069C00006D0AFE0022B66D0032B00D17BE0A9E01C
:1069D000654B1B78002B26D0644B1B78012B22D1F2
:1069E000634B1B88002B0BD1624B9B7840221343D7
:1069F000DAB2604B9A703B1C0F3300221A701AE017
:106A00005C4B9B7804221343DAB25A4B9A70594B71
:106A10009B7840229343DAB2564B9A703B1C0F335B
:106A200000221A7007E0534B9B7804229343DAB29A
:106A3000504B9A7076E075E04F4B1B78002B22D0BC
:106A40004B4B1B88002B0BD14A4B9B7840221343A6
:106A5000DAB2484B9A703B1C0F3300221A7061E087
:106A6000444B9B7808221343DAB2424B9A70414B55
:106A70009B7840229343DAB23E4B9A703B1C0F3313
:106A800000221A704EE03B4B9B7808229343DAB207
:106A9000384B9A7046E0364B1B88002B0BD1354B98
:106AA0009B7840221343DAB2324B9A703B1C0F336F
:106AB00000221A7036E02F4B9B7840229343DAB2C3
:106AC0002C4B9A702EE02C4B1B78002B0BD1294BB2
:106AD0009B7802221343DAB2264B9A703B1C0F3389
:106AE00000221A7006E0234B9B7802229343DAB20D
:106AF000204B9A701C4B1B78002B0BD11D4B9B78A5
:106B000001221343DAB21B4B9A703B1C0F33002255
:106B10001A7006E0174B9B7801229343DAB2154BAB
:106B20009A70C046144B1B78002B0FD10E4B1B786C
:106B3000002B0BD10F4B9B7820221343DAB20D4B65
:106B40009A703B1C0F3300221A7006E0094B9B78A9
:106B500020229343DAB2074B9A703B1C0F331B7809
:106B6000181CBD4604B080BD70300020010000201C
:106B7000A80400209C3600207A30002080B500AFA9
:106B80006E4B1B78002B00D1D6E06D4B1B78252B6C
:106B900000D9D1E09A006B4BD3181B689F466A4B13
:106BA00002221A70694B02221A70694B01221A7074
:106BB000C2E0654B04221A70644B02221A70644BC7
:106BC00001221A70B8E0604B02221A705F4B032258
:106BD0001A705F4B01221A70AEE05E4B1B791A1CD3
:106BE0000823134009D0584B04221A70574B022235
:106BF0001A70574B01221A7019E0564B5B791A1C18
:106C00000123134009D0504B02221A704F4B00222F
:106C10001A704F4B01221A7009E04B4B08221A7070
:106C20004A4B01221A704A4B01221A7084E083E019
:106C3000454B04221A70454B02221A70444B012224
:106C40001A7079E0404B03221A70404B02221A70EE
:106C50003F4B01221A706FE03E4B1B791A1C082330
:106C6000134009D0384B04221A70384B02221A7094
:106C7000374B01221A7019E0364B5B791A1C01233D
:106C8000134009D0304B02221A70304B00221A7088
:106C90002F4B01221A7009E02B4B02221A702B4B4A
:106CA00003221A702A4B01221A7045E044E0264B59
:106CB00000221A70274B1B791A1C0823134005D198
:106CC000244B1B79DBB25BB2002B03DA1E4B042290
:106CD0001A701CE01F4B1B791A1C082313400DD09F
:106CE0001C4B1B791A1C0123134003D0164B07229F
:106CF0001A700CE0144B06221A7008E0154B1B7931
:106D00001A1C0123134002D00F4B00221A700F4BA4
:106D100002221A700E4B01221A700DE00B4B012259
:106D20001A700B4B01221A7006E0094B02221A70EE
:106D3000064B01221A70C046BD4680BDBD360020FC
:106D4000C52E0020C8840100EE2E0020BC2E00209D
:106D5000B42E00209C36002080B500AF0020644B8C
:106D60009847031C1A1C634B1A800320604B9847FA
:106D7000031C1A1C604B1A80604B1B78002B0BD035
:106D80005F4B01221A705C4B1A8880231B019A42C8
:106D900002D95C4B08221A70564B1A885A4B9A42F9
:106DA0001ED85A4B1B88042B0CD9594B1B791A1C23
:106DB0000823134006D1564B1B7908221343DAB23D
:106DC000534B1A714B4B1A88F423FF339A4224D841
:106DD0004F4B5B7920221343DAB24D4B5A711CE0C2
:106DE0004B4B5B7920229343DAB2494B5A71484BA3
:106DF0001B791A1C082313400CD03E4B1A88454BB4
:106E00009A420AD9424B1B7908229343DAB2404B8B
:106E10001A7102E03D4B00221A80364B1A883E4B15
:106E20009A4217D9344B1A88C023DB009A4203D800
:106E3000344B1B78012B0DD1354B1B790822934322
:106E4000DAB2334B1A71324B1B7920229343DAB2F8
:106E50002F4B1A71274B1A88304B9A421DD9304B51
:106E60001B78002B0CD1244B1A882E4B9A4230D819
:106E7000252001212C4B9847294B01221A7028E02C
:106E80001D4B1A88294B9A4223D925200021264BD5
:106E90009847234B00221A701BE0164B1A88244B8C
:106EA0009A4216D81E4B1B78002B06D025200021B5
:106EB0001D4B98471A4B00221A700F4B1A881D4B16
:106EC0009A4206D8124B1B7920221343DAB2104B98
:106ED0001A71134B1B78002B04D125200021124B73
:106EE000984703E0252001210F4B9847BD4680BD00
:106EF00045B60000D62E0020AE040020AB040020D2
:106F0000AC040020C52E0020D7040000DE2E002097
:106F10009C36002025050000240500005B060000CB
:106F2000AD040020360A0000A1670000820A0000BC
:106F30002C060000FF03000090B585B000AFD14BD8
:106F40001B78012B0BD0CF4B1B78032B07D0CD4BDD
:106F50001B78022B03D0CB4B1B78042B2DD1CA4BB3
:106F60001B78182B29D0C94B1A88C94B1B889A4209
:106F700003D0C84B00221A701BE0C64B1B780133AC
:106F8000DAB2C44B1A70C34B1B78782B11D9BE4BA5
:106F900007221A70C04B1B7904221343DAB2BE4B8E
:106FA0001A71BD4B1B79802252421343DAB2BA4B9D
:106FB0001A71B74B1A88B54B1A803B1C0E3300224E
:106FC0001A703C1C0934B54B9847031C2370B44B12
:106FD0001B881BB2012B07D1AF4B1B7940221343F7
:106FE000DAB2AD4B1A7106E0AB4B1B7940229343EA
:106FF000DAB2A94B1A71A44B1B78252B01D901F0E9
:1070000083FE9A00A74BD3181B689F460120A64B0E
:1070100098479D4B06221A70A44B00221A809E4B63
:107020001B791A1C0823134003D0974B07221A70B0
:1070300018E09F4B1B78002B14D0934B1B221A7027
:107040009C4B98479C4B14221A80984BAF221A8075
:107050008C4B04221A70994B1B7802229343DAB2AC
:10706000964B1A708C4B1A7928231340DAB28A4B4C
:107070001A7101F049FE884B1B791A1C0823134032
:1070800004D0814B07221A7001F03EFE8B4B1B7817
:107090001A1C0223134003D1844B1B88002B11D1EF
:1070A0000120814B9847784B06221A70844B9847F1
:1070B000814B96221A80814B1B7802229343DAB2CD
:1070C0007E4B1A70744B1A7928231340DAB2724B34
:1070D0001A7101F019FE794B1B781A1C0223134018
:1070E00007D1734B1B78002B03D0764B1B78002BFA
:1070F00016D101206C4B98476F4B00221A806F4BC2
:107100001B7802229343DAB26C4B1A7000206E4B4C
:1071100098475D4B01221A706C4B984701F0F4FDC3
:1071200001F0F2FD6A4B00221A706A4B00221A70BD
:10713000694B00221A80544B03221A70564B1B795C
:1071400004221343DAB2544B1A71644B9847644BD0
:107150009847624B9847634B00221A70624B00229B
:107160001A70624B00221A703B1C0F3300221A70F7
:1071700006E03B1C0F331A783B1C0F3301321A70A8
:107180003B1C0F331B78092BF3D9594B1B88002B61
:107190000AD0584B1B88002B06D1574B1B88002B5D
:1071A00002D1504B01221A70514B1B88002B0AD17F
:1071B000504B1B88002B06D04F4B1B88002B02D155
:1071C0004A4B01221A704A4B1B88002B0AD1494BAB
:1071D0001B88002B06D1484B1B88002B02D0424B4A
:1071E00001221A70454B99221A70454B00221A70E1
:1071F000444B9847394B9847434B9847434B9847E4
:107200003B1C0F3300221A7008E0414B98473B1C8F
:107210000F331A783B1C0F3301321A703B1C0F33AB
:107220001B78072BF1D901201F4B98471A4B1B796C
:107230001A1C0823134004D0134B07221A7001F0C4
:1072400063FD114B1C221A701A4B98471A4B1422DB
:107250001A80164BAF221A800A4B04221A70174B61
:107260001B7802229343DAB2144B1A7001F04CFDE2
:10727000094B1B791A1C082313404BD0024B0722E1
:107280001A707AE0B0040020C52E0020CC2E002019
:10729000A8040020C42E00209C36002005BE00005B
:1072A0007230002060850100859C0000E82E0020DF
:1072B00070300020559E0000CC360020F42E0020B7
:1072C000999D000001000020A16900007169000083
:1072D000D42E0020B4040020F82E0020515B0000C2
:1072E000C5BA00009B360020983600209936002051
:1072F000C6040020C8040020CA040020DA3600209A
:10730000BC04002079F60000FD66000059BB0000B7
:1073100029BE0000CD4B1B78002B10D0CC4B252272
:107320001A70CC4B1B791A1C2023134025D1C74B54
:1073300000221A70C64B1C221A7001F0E5FCC64BE5
:107340001B781A1C0223134003D1C44B1B88002B4B
:1073500013D10120C24B9847BD4B03221A70C14B79
:107360009847C14B96221A80BB4B1B78022293434D
:10737000DAB2B94B1A7001F0C7FC01F0C5FCB64B8C
:107380001B781A1C0223134007D1B84B1B78002B23
:1073900003D0B74B1B78002B3BD10120B04B984753
:1073A000B14B00221A80AC4B1B7802229343DAB215
:1073B000A94B1A70A74B1B791A1C0823134003D042
:1073C000A34B07221A7024E00020AA4B9847031C05
:1073D000002B03D19E4B07221A701AE09D4B1B799C
:1073E0001A1C042313400FD1A34B98479E4B6422D1
:1073F0001A80974B0B221A70964B1B7904229343E9
:10740000DAB2944B1A7104E0914B04221A7001F025
:107410007BFC01F079FC3C1C0A340220974B984716
:10742000031C2380964B3A1C0A3212881A80944B14
:107430001B88092B05D9924B1A88FA231B019A4203
:1074400007D9844B5B7901221343DAB2814B5A711D
:1074500006E0804B5B7901229343DAB27D4B5A718F
:10746000BC1D0420874B9847031C2380BB1D1B8831
:10747000602B08D9824B1A88834B9A4203D0744BF5
:107480001D221A702DE0734B1B791A1C0823134020
:1074900027D16F4B04221A707C4B1B88002B20D005
:1074A0006B4B05221A707A4B00221A80794B00220E
:1074B0001A80794B00221A80784B00221A70784B80
:1074C0001B78002B0DD0774B9847674B64221A80AE
:1074D000614B1B7802229343DAB25F4B1A7001F0C2
:1074E00013FC01F011FC5B4B1B791A1C08231340A1
:1074F00003D0574B07221A701FE0574B1B781A1CFA
:107500000223134019D0584B00221A80524B1B788B
:1075100002229343DAB2504B1A705D4B1B88013341
:107520009AB25B4B1A804F4B98474F4B64221A809C
:10753000474B05221A7001F0E7FB01F0E5FB454BD4
:107540001B791A1C0823134003D0414B07221A70E1
:107550001FE0414B1B781A1C0223134019D0424BE9
:1075600000221A803C4B1B7802229343DAB23A4B3A
:107570001A70474B1B8801339AB2454B1A80494B0E
:107580009847394B64221A80314B05221A7001F05A
:10759000BBFB01F0B9FB3B1C0E3300221A703C4BC5
:1075A0001B88082B30D12C4B1B781A1C042313404A
:1075B0002AD0294B1B7804229343DAB2264B1A7047
:1075C000394B1A88394B9A4202D9374B00221A801C
:1075D000354B1B881C1C0120284B9847031C191C89
:1075E000334B6200D152304B1B881A1C314B198827
:1075F0002F4B8020C00012185200D1522A4B1B88FA
:1076000001339AB2284B1A803B1C0E331B78002B97
:1076100000D07EE11E4B1B881A1C0123134004D1AD
:107620003B1C0D3300221A7003E03B1C0D3301227A
:107630001A703B1C0D331B78092B01D901F063FB39
:107640009A001D4BD3181B689F46C046AC0400200F
:10765000C52E00209C360020F42E0020E82E0020AD
:10766000859C0000999D0000CC36002070300020E1
:1076700001000020A16900001590000045B600003F
:10768000BA2E002051680000FF0F00007630002065
:10769000D22E0020C0040020C2040020B304002029
:1076A0007A300020559E0000A01E0020FF0300003D
:1076B000A00E0020A8040020F8850100CA4B1B780A
:1076C000002B17D10120C94B9847031C002B03D175
:1076D000C74B07221A7005E0C64B01221A70C44B33
:1076E00007221A70C44B1B7802229343DAB2C24BB2
:1076F0001A706CE00220BD4B9847031C002B07D189
:10770000BE4B1B88002B03D1B94B07221A705EE0D9
:10771000B94B1B781A1C022313401DD0B64B1B78A3
:1077200002229343DAB2B44B1A700120B44B98474B
:107730000220AE4B9847031C002B03D1AC4B072211
:107740001A7002E0AA4B07221A70AB4B1B78022278
:107750009343DAB2A84B1A70A84B1B88002B36D182
:10776000A84B9B7D181CA84B9847031C1A1CA74BC1
:107770001A80A74B1A88A54B1B889A4203D9A54BA0
:107780001B88082B08D1A24B1A88A34B9A421ED9FA
:10779000A04B1B88082B1AD10120994B9847022037
:1077A000924B9847031C002B03D1914B07221A7070
:1077B00005E08F4B0E221A70984B14221A808E4BC4
:1077C0001B7802229343DAB28B4B1A70A1E0A0E03F
:1077D000934B1B78002B03D0924B1B78002B3FD18F
:1077E0000020824B9847031C002B06D1804B0722B8
:1077F0001A708A4B00221A802AE0864B1B88012BC4
:1078000020D17C4B1B78002B06D0794B07221A70B5
:1078100001207B4B98471BE0754B21221A700120F9
:10782000774B98477D4B64221A807F4B1B791A1C3B
:107830000823134003D06E4B07221A7008E07B4BDD
:10784000984705E06A4B0F221A70744B14221A8075
:10785000694B1B7802229343DAB2674B1A7057E0E8
:107860000220624B9847031C002B0DD1634B1B88F1
:10787000002B09D15E4B07221A70684B00221A8038
:1078800001205F4B984743E05B4B1B781A1C022397
:1078900013403DD0584B1B7802229343DAB2564B2B
:1078A0001A700120564B98470220504B9847031CF2
:1078B000002B06D14E4B07221A70584B00221A801B
:1078C0001EE0544B1B88012B14D14A4B1B78002B14
:1078D00006D0474B07221A700120494B98470FE00A
:1078E000434B22221A700120454B98474B4B1E22D6
:1078F0001A8005E03E4B0F221A70484B14221A8062
:107900003D4B1B7802229343DAB23B4B1A70FFE7E0
:10791000C04601F0F8F9384B1B781A1C02231340BB
:1079200003D13E4B1B88002B14D10120344B9847C8
:107930003A4B00221A80304B1B7802229343DAB272
:107940002D4B1A700020294B9847294B18221A708A
:1079500001F0DAF901F0D8F9354B1B78012B2FD063
:10796000042B2DD0002B67D1324B1B78012B03D079
:10797000304B1B78042B12D10120214B98472B4B05
:107980009847264B1E221A801B4B1B7802229343DA
:10799000DAB2194B1A70164B24221A705EE00120DD
:1079A000174B98471D4B00221A80134B1B7802225D
:1079B0001343DAB2104B1A700D4B24221A704DE0AB
:1079C00001200F4B9847194B9847144B1E221A80E1
:1079D000094B1B7802229343DAB2074B1A70044B0F
:1079E00024221A703AE0C0467A300020A1690000D3
:1079F000C52E0020B3040020F42E0020B62E002057
:107A0000859C0000C02F002019960000E62E002063
:107A1000C0040020D22E002045030000CC360020F8
:107A200070300020010000209C360020999D00004D
:107A3000B0040020B10400200120C14B9847C14B85
:107A400000221A80C04B1B7802221343DAB2BE4BCD
:107A50001A70BE4B24221A7001F056F901F054F945
:107A6000B94B1B781A1C0223134003D1B84B1B8857
:107A7000002B11D10120B24B9847B44B20221A7031
:107A8000B04B0A221A80B04B1B7802229343DAB221
:107A9000AD4B1A7001F038F901F036F9AB4B1B7899
:107AA000BC1D181CAB4B9847031C2380BB1D1B88B7
:107AB0005F2B0ED8A54B1E221A70A24B00221A80F3
:107AC000A14B1B7802229343DAB29F4B1A7001F04C
:107AD0001BF99D4B1B781A1C0223134011D09E4B9F
:107AE0001B7904221343DAB29B4B1A719A4B1B7910
:107AF000802252421343DAB2974B1A710020904B06
:107B00009847924B1B78181C944B984701F0FCF84F
:107B100000208B4B984701F0F7F80020884B9847DE
:107B20008F4B1B78002B07D08B4B9B7880225242C7
:107B30001343DAB2884B9A70874B1B791022934318
:107B4000DAB2854B1A71844B1B791A1C0823134037
:107B50000CD1844B1B78002B02D07C4B00221A7076
:107B60003B1C0E3301221A7001F0CEF801F0CCF864
:107B70003B1C0E3300221A70774B1B791A1C08230A
:107B8000134006D1714B09221A703B1C0E3301229F
:107B90001A703B1C0E331B78002B53D1724B1B8881
:107BA000002B08D0704B1B881BB2012B0AD16F4BE6
:107BB0001B88002B06D1684B1B7902229343DAB253
:107BC000654B1A71694B1B88002B0AD0664B1B88CA
:107BD000002B06D0664B1B88002B02D1644B012280
:107BE0001A80624B1B88002B2CD05F4B1B88002B0C
:107BF00028D05F4B1B88132B24D9574B1B791A1C99
:107C0000022313401ED13B1C0E3301221A70524B2B
:107C10001B7902221343DAB24F4B1A714B4B1122DC
:107C20001A70544B9847474B64221A80464B1B7876
:107C300002229343DAB2444B1A704F4B00221A705F
:107C400001F062F801F060F83F4B1B781A1C022328
:107C5000134007D1494B1B78002B03D0484B1B78AE
:107C6000002B11D1374B0A221A80374B1B78022286
:107C70009343DAB2344B1A700120314B9847334B9F
:107C800022221A7001F040F801F03EF82F4B1B78C9
:107C9000BC1D181C2F4B9847031C2380BB1D1B8841
:107CA000602B04D9294B08221A7001F02DF8264BBD
:107CB0001B781A1C0223134012D00120204B984736
:107CC000254B1B791A1C0823134003D01F4B192284
:107CD0001A7005E01D4B0B221A701A4B0A221A80EB
:107CE000194B1B7802229343DAB2174B1A7001F03A
:107CF0000BF8194B1B791A1C0823134003D0134BA4
:107D000019221A709CE0144B1B791A1C042313408F
:107D100060D00D4B1B781A1C0223134000D18FE05A
:107D20000A4B1B78BC1D181C0A4B9847031C238068
:107D3000BB1D1B88602B25D9044B07221A7040E01D
:107D4000859C0000CC360020F42E0020C52E00209B
:107D5000E82E0020516800009C360020698D00004C
:107D6000B3040020BD36002072300020783000209F
:107D7000F82E0020559E0000B40400207030002032
:107D800001000020DC4B9847DC4B1B790422934315
:107D9000DAB2DA4B1A71DA4B0B221A700120D94B86
:107DA0009847D94B14221A80D84B00221A70D84B0E
:107DB00000221A70D74B5B7E012B02D1D34B0A22D3
:107DC0001A70D54B1B7802229343DAB2D24B1A7049
:107DD00000F09AFFD14B00221A80D14B1B88002B58
:107DE00008D0CF4B1B881BB2012B0AD1CD4B1B886F
:107DF000002B06D1C14B1B7902229343DAB2BF4B51
:107E00001A71C94B00221A700020C84B9847031CF6
:107E10001A1CC74B1A80C04B1B781A1C0223134034
:107E200009D0BD4B1B7802229343DAB2BA4B1A70C9
:107E3000B34B09221A70BF4B00221A8000F064FF76
:107E400000F062FF3B1C0E3300221A70AC4B1B7813
:107E5000BC1D181CB84B9847031C2380BB1D1B88F6
:107E6000602B24D90120A74B9847A74B0A221A80E0
:107E7000A34B1B78092B0AD1B04B9847A24B142275
:107E80001A80AF4B4B221A80AE4B03221A70A24BC2
:107E90001B7802229343DAB29F4B1A70984B1F2231
:107EA0001A703B1C0E3301221A7000F02DFF944B08
:107EB0001B78181CA44B984700F026FF3B1C0E3380
:107EC00000221A70A14B1B78002B32D13B1C0E33C1
:107ED0001B78002B2DD13B1C0E3301221A70012080
:107EE000884B984701209A4B9847031C002B03D1DD
:107EF000834B07221A701CE08B4B00221A70804BB8
:107F00000D221A70844B1B7810229343DAB2824BF5
:107F10001A70904B00221A808F4B1B78002B04D0D4
:107F20008E4B8022D2001A8003E08D4B1A888B4B37
:107F30001A80794B1B781A1C022313402ED03B1C4D
:107F40000E331B78002B29D1734B1B7802229343ED
:107F5000DAB2714B1A7001206A4B98473B1C0E3302
:107F600001221A7002207A4B9847031C002B06D17D
:107F7000634B07221A70644B00221A8007E06F4B94
:107F80009847614B64221A805D4B17221A70624B2E
:107F90001B7802229343DAB25F4B1A70714B1B8835
:107FA000002B00D0FAE03B1C0E331B78002B00D0D6
:107FB000F4E001206C4B9847031C1A1C6B4B1A8091
:107FC0006B4B9847031C1A1C6A4B1A80514B5B7E03
:107FD000002B19D14E4B1B78012B06D80220664B83
:107FE0009847031C1A1C634B1A80494B1B78022BC1
:107FF0000AD1484B9B7D5B08DBB2181C5E4B98474F
:10800000031C1A1C5B4B1A800220574B9847031C19
:108010001A1C5A4B1A805A4B9847031C1A1C594B6E
:108020001A803C4B5B7E002B19D1394B1B78012BFE
:1080300006D80220544B9847031C1A1C514B1A8037
:10804000334B1B78022B0AD1324B9B7D5B08DBB292
:10805000181C4D4B9847031C1A1C4A4B1A80434B63
:108060001A88444B1B889A4200D897E00120254B80
:108070009847274B1B78092B05D8254B1B780133D4
:10808000DAB2234B1A700220314B9847031C002BA5
:1080900011D13B1C0E3301221A70194B07221A70A2
:1080A000194B00221A801C4B1B7802229343DAB230
:1080B000194B1A7072E03B1C0E3301221A701A4BD6
:1080C00000221A700E4B0D221A70134B1B781022CF
:1080D0009343DAB2104B1A701E4B00221A802B4BBE
:1080E0001A882B4B1A801C4B1B78002B52D01B4B31
:1080F0008022D2001A8051E0159000009C360020AA
:10810000C52E0020859C0000CC360020B80400203D
:10811000B9040020C02F0020F42E0020EC2E0020F7
:108120007230002078300020B4040020219200003A
:10813000CA2E0020E42E002051680000999D000006
:10814000E82E0020B0040020698D00007A30002065
:10815000A1690000DA2E0020AA040020A604002055
:10816000A21E0020B62E002045B60000AA2E002038
:1081700041920000AE2E002019960000F02E002043
:1081800091930000B02E002095960000FC2E002058
:10819000C82E0020AB4B1A88AB4B1A803B1C0E3309
:1081A0001B78002B60D10120A84B9847031C1A1C98
:1081B000A74B1A80A74BDA7E3B1C0A331A803B1C64
:1081C0000A331B88092B03D93B1C0A3300221A806F
:1081D0003A1C0A323B1C0A331B88191CC900CB18F5
:1081E000191CC800191C031CCB1813803B1C0A3334
:1081F0003A1C0A321288984952181A803B1C0A33DA
:108200001A88964B1B8812B21BB2101C02211A1C32
:10821000934B9847031C002B23D0924B1B780133C0
:10822000DAB2904B1A708F4B1B78032B1CD93B1C76
:108230000E3301221A708B4B00221A7001208A4BD8
:1082400098478A4B98478A4B64221A80894B1022A0
:108250001A70894B1B7802229343DAB2864B1A704C
:1082600002E0804B00221A703B1C0E3300221A7071
:10827000814B1B781A1C022313402BD03B1C0E335E
:108280001B78002B26D17C4B1B7802229343DAB259
:10829000794B1A700120744B98473B1C0E33012216
:1082A0001A700220754B9847031C002B03D1714BA9
:1082B00007221A7007E06D4B98476D4B64221A80B5
:1082C0006C4B17221A706C4B1B7802229343DAB264
:1082D000694B1A703B1C0E331B78002B5ED10120BA
:1082E0005A4B9847031C1A1C594B1A80594BDA7E7B
:1082F0003B1C0A331A803B1C0A331B88092B03D909
:108300003B1C0A3300221A803A1C0A323B1C0A33F7
:108310001B88191CC900CB18191CC800191C031C88
:10832000CB1813803B1C0A333A1C0A3212884A4885
:1083300012181A803B1C0A331A88484B1B8812B249
:108340001BB2101C02211A1C454B9847031C002B22
:108350001FD0444B1B780133DAB2424B1A703B1CDE
:108360000E3301221A703F4B00221A7001203E4B3F
:1083700098473E4B98473E4B64221A803D4B102253
:108380001A703D4B1B7802229343DAB23A4B1A70B3
:1083900004E0344B00221A7000F0B6FC00F0B4FC8C
:1083A0003B1C0E3300221A70354B1B78002B03D078
:1083B000344B1B78002B1ED13B1C0E331B78002B3B
:1083C00019D13B1C0E3301221A7000202B4B984709
:1083D000031C002B06D1274B07221A70244B0022C6
:1083E0001A8008E0234B0B221A7001201E4B98477D
:1083F0001F4B0A221A80204B1B781A1C02231340A1
:108400004AD03B1C0E331B78002B45D13B1C0E334E
:1084100001221A70184B1B7802229343DAB2164BD2
:108420001A700120104B98470220144B9847031CE8
:10843000002B29D10F4B07221A700D4B00221A80F6
:108440002AE0C046A21E0020A604002021920000BF
:10845000CA2E0020C02F002033030000FA2E002077
:108460007D5B0000B4040020859C0000999D000005
:10847000CC360020C52E0020F42E0020A16900007B
:108480007030002001000020C54B9847C54B642286
:108490001A80C54B17221A703B1C0E331B78002B19
:1084A00000D07AE0C14B1B78002B00D075E0C04BA8
:1084B0001B781A1C1023134000D16EE0BC4B1B78B4
:1084C00010229343DAB2BA4B1A700120B94B984785
:1084D000031C9AB2B84B1A80B74B1A88B74B1B884B
:1084E0009A4239D2B54B1A88B34B1B88D31A9AB229
:1084F000B34B1A80B24B1A88B24B9A424DD9AE4B4D
:108500001B88181CB04B9847031C1A1CAF4B1A80D1
:10851000AE4B1B88181CAE4B9847031C1A1C7B1DC6
:108520001A707B1D1B789AB2AA4B1B88D3189AB27B
:10853000A84B1A80A74B1A88A74B9A422DD87B1DAF
:108540001B789AB2A54B1A80A54B98479A4B1A886C
:108550009A4B1A8000F0D8FB974B1A88974B1B88D0
:10856000D31A9AB2964B1A80954B1A88954B9A4219
:1085700013D99C4B00221A708B4B0A221A708C4B19
:108580001B7810229343DAB2894B1A70964B002263
:108590001A80964B984700F0B7FB00F0B5FB944B60
:1085A00000221A80934B1B78002B03D0924B1B7830
:1085B000002B36D10120914B98470020904B9847D3
:1085C000031C002B06D1784B07221A70754B002232
:1085D0001A801EE0734B14221A80734B1B78172BE2
:1085E00004D1704B96221A80864B98476E4B0B2213
:1085F0001A706D4B0B221A70834B1B781A1C0123C7
:10860000134006D1814B1B7910229343DAB27F4B82
:108610001A71674B1B7802229343DAB2644B1A70CB
:1086200040E0634B1B781A1C022313403AD0604B86
:108630001B7802229343DAB25D4B1A7001206F4B14
:10864000984702206E4B9847031C002B06D1564BCF
:1086500007221A70534B00221A801BE0514B142240
:108660001A80514B1B78172B04D14E4B96221A803F
:10867000644B98474C4B0B221A70634B1B781A1CA7
:108680000123134006D1614B1B7910229343DAB2C8
:108690005E4B1A71464B1B7802229343DAB2444B6D
:1086A0001A7031E330E3594B1B7902221343DAB2DB
:1086B000564B1A71564B1B88002B08D0544B1B8805
:1086C0001BB2012B1DD1534B1B88002B19D13B1C16
:1086D0000E3301221A70324B9847324B64221A80B3
:1086E000314B13221A70324B1B7802229343DAB2B9
:1086F0002F4B1A70454B1B7902229343DAB2434B3E
:108700001A712B4B1B781A1C022313402ED03B1CD2
:108710000E331B78002B29D13B1C0E3301221A701B
:10872000234B1B7802229343DAB2214B1A700120AB
:10873000324B98470220324B9847031C002B06D13E
:10874000194B07221A70174B00221A800EE0144BA7
:108750009847144B64221A80134B13221A70144B3F
:108760001B7802229343DAB2114B1A702A4B1B7802
:10877000002B60D13B1C0E331B78002B5BD13B1CC4
:108780000E3301221A7001201D4B9847031C002B49
:1087900044D1054B07221A70024B00221A8043E095
:1087A000999D0000CC360020C52E0020B00400208A
:1087B000F42E002021920000CE2E0020C82E002092
:1087C000C02E002066060000E1940000BE2E0020AE
:1087D0001D640000E42E0020E7030000E82E0020C6
:1087E000359D0000B4040020DA2E00202D9F0000EB
:1087F000F82E00207030002001000020859C000031
:10880000A169000015900000242F00209C36002054
:1088100072300020783000207A3000200120914B07
:108820009847914B12221A70904B1B780222934367
:10883000DAB28E4B1A708E4B1B88002B3FD13B1C3B
:108840000E331B78002B3AD101208A4B9847031C2A
:108850001A1C894B1A80894B9847031C1A1C884B99
:108860001A800220834B9847031C1A1C854B1A80E0
:10887000854B9847031C1A1C844B1A807E4B1A8820
:108880007F4B1B889A421AD90120764B98470220C9
:108890007F4B9847031C002B06D1734B07221A709D
:1088A0007C4B00221A8002E06F4B12221A706F4B31
:1088B0001B7802229343DAB26C4B1A7024E223E253
:1088C0003B1C0E3300221A70734B1B790222134398
:1088D000DAB2714B1A71714B1B88002B08D06F4BA9
:1088E0001B881BB2012B1DD16D4B1B88002B19D18E
:1088F0003B1C0E3301221A706A4B9847654B642269
:108900001A80594B13221A70584B1B78022293433A
:10891000DAB2564B1A70604B1B7902229343DAB2DB
:108920005D4B1A713B1C0E331B78002B24D13B1C72
:1089300009331A78012313401ED05B4B1B881BB2EE
:10894000012B19D13B1C0E3301221A70474B1B78A7
:1089500008229343DAB2454B1A70524B98474D4B5D
:1089600064221A80404B13221A70404B1B7802225B
:108970009343DAB23D4B1A703B1C0E331B78002B2D
:1089800020D14A4B1B781A1C022313401AD03B1CDF
:108990000E3301221A70354B1B7808229343DAB24A
:1089A000324B1A703F4B98473A4B64221A802E4B39
:1089B00013221A702D4B1B7802229343DAB22B4BF1
:1089C0001A70A1E1A0E1294B1B781A1C0223134065
:1089D0002ED03B1C0E331B78002B29D13B1C0E33B1
:1089E00001221A70214B1B7802229343DAB21F4BEB
:1089F0001A7001201B4B98470220254B9847031CF7
:108A0000002B06D1184B07221A70224B00221A8025
:108A10000EE0244B98471F4B64221A80124B1622FB
:108A20001A70124B1B7802229343DAB20F4B1A7062
:108A30001F4B1B78002B4AD13B1C0E331B78002B9D
:108A400045D13B1C0E3301221A700120104B984770
:108A5000031C002B2ED1044B08221A700D4B002250
:108A60001A802DE0859C0000C52E0020F42E0020E9
:108A7000B62E002045B60000AA2E00201D9700004B
:108A8000AE2E0020F02E0020B9970000B02E00205E
:108A9000A1690000CC3600209C36002072300020F6
:108AA00078300020999D000076300020242F00208F
:108AB0007A3000200120974B9847974B15221A7067
:108AC000964B1B7802229343DAB2944B1A70944B64
:108AD0001B88002B00D085E03B1C0E331B78002B3D
:108AE00000D07FE001208F4B9847031C1A1C8E4B4F
:108AF0001A808E4B9847031C1A1C8D4B1A808D4B85
:108B00005B7E002B19D18C4B1B78012B06D80220E1
:108B10008A4B9847031C1A1C854B1A80864B1B787E
:108B2000022B0AD1834B9B7D5B08DBB2181C834B65
:108B30009847031C1A1C7E4B1A800220794B9847D9
:108B4000031C1A1C7E4B1A807E4B9847031C1A1C70
:108B50007D4B1A80774B5B7E002B19D1764B1B78AF
:108B6000012B06D80220794B9847031C1A1C764B20
:108B70001A80714B1B78022B0AD16E4B9B7D5B08D0
:108B8000DBB2181C714B9847031C1A1C6E4B1A80E1
:108B9000654B1A88664B1B889A4223D901205D4B8E
:108BA0009847654B1B78092B05D8634B1B7801331D
:108BB000DAB2614B1A700220654B9847031C002BF8
:108BC0000DD1554B07221A70624B00221A80534B6D
:108BD0001B7802229343DAB2504B1A7002E04E4BDC
