:10310000A0790020E142010065430100B9420100BD
:1031100000000000000000000000000000000000AF
:103120000000000000000000000000006D430100EE
:1031300000000000000000006D4301006D4301002D
:103140006D4301006D4301006D4301006D430100BB
:10315000DD4200006D4301006D430100B92901000B
:10316000CD290100E1290100F5290100092A01000A
:103170001D2A0100C9570000DD570000F15700006B
:1031800005580000195800002D5800004158000053
:10319000555800005D3C00006D4301006D43010087
:1031A0006D43010010B5064C2378002B07D1054B69
:1031B000002B02D0044800E000BF0123237010BDA3
:1031C00074040020000000007486010008B5084B5C
:1031D000002B03D00748084900E000BF07480368F8
:1031E000002B03D0064B002B00D0984708BDC046EB
:1031F000000000007486010078040020748601003D
:103200000000000080B582B000AF78607B680022CB
:103210001A70BD4602B080BD80B582B000AF021CFE
:103220003960FB1D1A70FB1D1B78012B0AD0022B85
:103230000FD0002B14D10E4B0D4A91693A680A4306
:103240009A610FE00A4B0A4AD1693A680A43DA6187
:1032500008E0074B064A116A3A680A431A6201E01D
:10326000172300E00023181CBD4602B080BDC046F5
:103270000004004080B582B000AF78607B68802297
:103280001A707B6800225A707B6801229A707B68F2
:103290000022DA70BD4602B080BDC04680B582B063
:1032A00000AF021CFB1D1A70FB1D1B78002B02D007
:1032B000012B07D00DE0084B074A126C02210A438C
:1032C0001A6406E0044B044A126C04210A431A648F
:1032D000C046BD4602B080BD0008004080B584B045
:1032E00000AF78607B681B68FB60FB685B7EDBB2CD
:1032F000DBB25BB2002B01DA012300E00023181CD3
:10330000BD4604B080BDC04680B582B000AF7860D5
:103310007B6800221A707B6800225A707B6800224A
:103320005A807B6800221A717B6800221A767B68BB
:1033300000221A627B680022DA617B6800229A60B0
:103340007B6800221A737B68C0225201DA817B6895
:1033500000221A747B6800225A747B6800229A74D7
:103360007B680022DA747B6800221A757A682A2347
:103370000021D1547B6800225A757B6800229A751F
:103380007A6824230021D1547B680022DA847B6888
:1033900000221A857B680022DA757A682B230021C7
:1033A000D1547A682C230021D154BD4602B080BD8F
:1033B00080B598B000AF78603A1C0C32154B111CE8
:1033C0001A1C5023081C111C1A1C134B9847134B32
:1033D000FB657B68132B1AD83B1C0C337A68920070
:1033E000D358FB653B1C0833181C0D4B98473B1CFE
:1033F000083300229A703B1C083301221A70FB6DBF
:10340000DAB23B1C0833101C191C064B9847BD460A
:1034100018B080BDD47F01009D7D0100FFFF00003A
:103420007532000061420100B0B588B000AF78602D
:1034300039603B1C1F3300221A701023BB613B1CF8
:10344000173300221A70CC4B1A68F0231B0213406A
:103450001A0B3B1C13331A707B681B68FB603B1C08
:103460000833181CC54B98473B681A783B1C083337
:103470001A703B1C08331720191CC14B98471720A2
:10348000C04B98473A682C23D35C002B40D03B1CA0
:10349000163339682B228A5C1A703B68197B3B1CF7
:1034A00015333A1C163212788A181A703A682C238F
:1034B000D15C3B1C0B333A1C153212788A181A70F7
:1034C00018E03B1C16331A780F231A403B681B7B0D
:1034D000D318181CAC4B98473B1C15331A783B1C6F
:1034E000153301321A703B1C16331A783B1C163305
:1034F00001321A703A1C15323B1C0B3312781B78C0
:103500009A42DED33B68DB89181C9F4B984709E041
:103510003B681B7B181C9C4B98473B68DB89181C3D
:10352000994B98473B685B7D9B00DAB2FB681A7049
:103530003B689B7DDB01DAB23B685B78DBB213430F
:10354000DBB2DAB2FB685A703B681B79342B5AD86D
:103550009A008E4BD3181B689F463B1C1F333A685A
:10356000527C1A703B1C17333A68127C1A70102375
:10357000BB614AE03B1C1F3301221A703B1C17330E
:1035800002221A701023BB613FE03B1C1F33022252
:103590001A703B1C173304221A701023BB6134E0ED
:1035A0003B1C13331B78022B04D83B1C1F33032214
:1035B0001A7003E03B1C1F3301221A703B1C1733A7
:1035C00006221A701023BB611FE03B1C13331B78CB
:1035D000022B04D83B1C1F3304221A7003E03B1C4F
:1035E0001F3300221A703B1C173308221A70102355
:1035F000BB610AE03023BB6107E02023BB6104E02C
:103600000023BB6101E01723A9E13B1C1F331B789A
:103610001B01DAB270231340DAB23B1C17331B785C
:103620001343DAB2FB689A703B68DB7D3F2B01D90C
:10363000172394E13B68DA7DFB68DA70C0467B684B
:10364000181C534B9847031C002BF8D13B685A8831
:10365000BB699BB213439AB239682423CB5CDB006D
:103660009BB213439AB23B681B7D9B009BB21343F2
:103670009AB23B689B7CDB189BB213439AB23B68BF
:10368000DB7C13439AB2FB689A803B681B7E002B5D
:1036900000D1BFE0BB69102B00D194E002D8002B11
:1036A0004FD0B7E0202B25D0302B00D0B2E03B68C4
:1036B000DB7C002B13D03B68DB697F2B0DDC3B6888
:1036C000DB691A1C803208DB3B681B6A7F2B04DC39
:1036D0003B681B6A1A1C803201DA17233FE13B6802
:1036E000DB69FF2B03DC3B681B6AFF2B01DD172323
:1036F00035E18FE03B68DB7C002B15D03B68DA6955
:10370000244B9A420EDC3B68DA69234B9A4209DB70
:103710003B681A6A1F4B9A4204DC3B681A6A1F4BCB
:103720009A4201DB17231AE13B68DA691C4B9A4283
:1037300004DC3B681A6A1A4B9A4201DD17230EE13A
:1037400068E03B68DB7C002B30D03B68DA69154BC6
:103750009A420EDC3B68DA69134B9A4209DB3B68FC
:103760001A6A104B9A4204DC3B681A6A0E4B9A4262
:103770001CDA1723F3E0C046182000410532000090
:10378000413F0100813F0100B1330000248001006E
:10379000DD320000FF01000000FEFFFF01FEFFFF21
:1037A000FF030000FF07000000F8FFFF3B68DA6935
:1037B0006D4B9A4204DC3B681A6A6B4B9A4201DDFE
:1037C0001723CCE026E03B68DB7C002B15D03B6860
:1037D000DA69664B9A420EDC3B68DA69644B9A42BE
:1037E00009DB3B681A6A614B9A4204DC3B681A6A3F
:1037F0005F4B9A4201DA1723B1E03B68DA695D4B0F
:103800009A4204DC3B681A6A5A4B9A4201DD17233C
:10381000A5E0C046C0467B68181C574B9847031C60
:10382000002BF8D13B681A7EFB681A72C0467B6891
:10383000181C514B9847031C002BF8D13B68DB69DF
:103840009AB2FB689A83C0467B68181C4A4B98471B
:10385000031C002BF8D13B681B6A9AB2FB681A84E0
:103860003B1C143339682C228A5C1A703B1C1433BD
:103870001B78002B06D03B1C14331A783B1C1433E6
:10388000013A1A703B1C14331B780F2B04D83A688A
:103890002B23D35C0F2B01D9172360E0C0467B6834
:1038A000181C354B9847031C002BF8D13B689A68CD
:1038B00039682B23CB5C1B051A433B1C14331B7844
:1038C0001B041A433B68DB891A433B681B7B1A4382
:1038D000FB681A613A682A23D25CFB681A75FB6898
:1038E0000F229A753A682423D35C002B1DD03B68C5
:1038F000DA8C1D4B9A4201D9172330E03B68DA8CF1
:10390000FB689A843B681B8D1AB21C4B9A4205DCFB
:103910003B681B8D1AB21A4B9A4201DA17231EE03C
:103920003B681B8D9AB2FB68DA84164B1B68DB0878
:103930009BB21B029AB2E023DB00134099B2124BF8
:103940001A685B685801D40E0443DD0EA2B2FF234F
:1039500013409BB20B439AB2FB681A850023181CD4
:10396000BD4608B0B0BDC046FF0F0000FF7F00009D
:103970000080FFFFFFFF0000DD320000FF070000B6
:1039800000F8FFFF246080002060800080B586B0D2
:1039900000AFF860B9607A60FB68BA681A6080238B
:1039A0005B020220191C324B9847BB681B78DBB2C4
:1039B0001A1C0123134001D0052355E0BB681B7876
:1039C000DBB21A1C0223134001D01C234CE07B689D
:1039D0005A78FB681A71FB681B79002B02D1012011
:1039E000244B98473B1C173300221A700EE03B1CF7
:1039F00017331A78FB68023292000021D1503B1C29
:103A000017331A783B1C173301321A703B1C1733DB
:103A10001B78022BEBD9FB6800229A76FB68002208
:103A2000DA76FB6800221A83FB6800221A77124BB1
:103A3000FA681A607A682A23D35C002B0AD17B6863
:103A40001B7D01225340DBB2002B03D0FB68012217
:103A50005A7702E0FB6800225A77FA687B68101CEC
:103A6000191C064B9847031C181CBD4606B080BDA8
:103A7000193200009D32000040050020293400006A
:103A800080B584B000AF78607B681B68FB60FB6822
:103A90005B7EDBB2DBB25BB2002B01DA012300E01C
:103AA0000023181CBD4604B080BDC04680B584B05C
:103AB00000AF78607B681B68FB60C0467B68181CA1
:103AC0000B4B9847031C002BF8D1FB681B7BDBB228
:103AD00002221343DAB2FB681A73C0467B68181CD3
:103AE000034B9847031C002BF8D1BD4604B080BDA2
:103AF000813A000080B584B000AF78600A1CFB1CDE
:103B00001A707B681B68FB60FB68FA1C1278DA7518
:103B1000BD4604B080BDC04680B584B000AF7860BB
:103B20000A1CFB1C1A707B681B68FB60FB68FA1C94
:103B300012789A75BD4604B080BDC04680B584B089
:103B400000AF021CFB1D1A70FB1D1A78404B92003F
:103B5000D358FB60FB681B681B7EDBB2BB60BA6896
:103B6000012313403ED0FB68DB7E1A1C0123134067
:103B700038D0FB689B7E1A1C0123134032D0FB68AF
:103B80001B6801221A76FB685B69991CFA6851610F
:103B9000FA681268528B92B21A80FB681B8B9BB238
:103BA000013B9BB2FA68191C1183002B08D0FB68FB
:103BB0005B7F002B16D0FB68181C264B984711E042
:103BC000FB681B7FDBB2052B0CD1FB6800221A7748
:103BD000FB68181C0121204B9847FB689B68FA681A
:103BE000101C9847BA680423134014D0FB681B6864
:103BF00004221A76FB68DB7E1A1C022313400AD0CB
:103C0000FB689B7E1A1C0223134004D0FB68DB6810
:103C1000FA68101C9847BA680223134014D0FB6856
:103C20001B6802221A76FB68DB7E1A1C04231340F1
:103C30000AD0FB689B7E1A1C0423134004D0FB6847
:103C40001B69FA68101C9847BD4604B080BDC04689
:103C500040050020AD3A0000193B000080B500AFE0
:103C60000020024B9847BD4680BDC0463D3B00004A
:103C700080B584B000AFF860B960FB1D1A70FB1D01
:103C80001A78FB6802329200B968D150FB689B7EBB
:103C9000DAB2FB1D1B780121081C9840031CDBB223
:103CA0001343DBB2DAB2FB689A76BD4604B080BD3E
:103CB00080B584B000AFF860B960BB1D1A80FB68A6
:103CC0001B8B9BB2002B04D1FB681B7FDBB2052B47
:103CD00001D1052317E0FB6805221A77FB68BA1D9E
:103CE00012881A83FB68BA685A61FB68181C0121A4
:103CF000074B9847FB685B7F002B03D0FB68181CC1
:103D0000044B98470023181CBD4604B080BDC04634
:103D1000F53A0000AD3A000080B584B000AF021C57
:103D20003960FB1D1A700023FB602B4B5A6B02237A
:103D3000134005D0284B284A526B02218A435A630C
:103D40003B681B881A1C3B681B791A433B685B88DD
:103D50001343FA681343FB603B685A8880235B0077
:103D60009A4204D1FB68802292001343FB603B68B7
:103D70009B79002B03D0FB6804221343FB603B6854
:103D8000DB79002B03D0FB6840221343FB60FB1D53
:103D90001B78002B1AD13B685B793F2B01D9172385
:103DA00015E00D4B3A6852791204111CFC22920363
:103DB0001140FA680A435A63C046074BDA68802309
:103DC0001B011340F9D0C046002300E01723181C44
:103DD000BD4604B080BDC0460008004080B582B03A
:103DE00000AF78607B6880221A707B6800225A706E
:103DF0007B6801229A707B680022DA70BD4602B0AF
:103E000080BDC04680B584B000AF021CFB1D1A7097
:103E10003B1C0F33FA1D127852091A703B1C0F33EA
:103E20001B78002B0BD1084BBB603B1C0F331B785E
:103E30009B001022D219D318083B1B6800E0002316
:103E4000181CBD4604B080BD0018004080B582B08B
:103E500000AF0F4B3B6000237B6011E07B689B0051
:103E60000822D219D318083B1B685B78DBB2DBB29F
:103E70005BB2002B01DA012306E07B6801337B6033
:103E80007B68002BEAD00023181CBD4602B080BD21
:103E90000018004080B582B000AF78607B680022D7
:103EA0001A70BD4602B080BD80B582B000AF021C62
:103EB0003960FB1D1A70FB1D1B78012B0AD0022BE9
:103EC0000FD0002B14D10E4B0D4A91693A680A436A
:103ED0009A610FE00A4B0A4AD1693A680A43DA61EB
:103EE00008E0074B064A116A3A680A431A6201E081
:103EF000172300E00023181CBD4602B080BDC04659
:103F00000004004080B582B000AF021CFB1D1A7097
:103F1000064BFA1D1278111C1F220A400121081CB1
:103F20009040021C1A60BD4602B080BD00E100E076
:103F300080B584B000AF2C4B7B60002040212B4B20
:103F400098473B1C181C2A4B98473B1C00221A70B0
:103F50003B1C0320191C274B98470320264B9847EE
:103F60000023FB6016E0FB689B001021C919CB18E9
:103F70000C3B1A68FB689B001021C919CB180C3B3D
:103F80001B681B78DBB201210B43DBB21370FB68AB
:103F90000133FB60FB68002BE5D0C046174B984708
:103FA000031C002BFAD13B1C0B3300221A700DE0CE
:103FB0003B1C0B331A78124B92000021D1503B1C52
:103FC0000B331A783B1C0B3301321A703B1C0B333A
:103FD0001B780F2BECD904200A4B98470A4B9847C3
:103FE000BD4604B080BDC04600180040A93E000098
:103FF000953E0000413F0100813F01004D3E000021
:1040000044050020053F00000D40000080B582B04F
:1040100000AF144B3B6000237B6016E07B689B0085
:104020000821C919CB18083B1A687B689B00082136
:10403000C919CB18083B1B681B78DBB202210B4364
:10404000DBB213707B6801337B607B68002BE5D0AB
:10405000C046054B9847031C002BFAD1BD4602B061
:1040600080BDC046001800404D3E000090B587B0AE
:1040700000AF021C3960FB1D1A703B1C0833181C72
:10408000374B98473B685B68DAB23B1C08331A70C1
:104090003B1C083300225A703B681A7A3B1C0833D9
:1040A0009A703B681B68DAB23B1C0833101C191C61
:1040B0002C4B9847FB1D1B78181C2B4B9847031C57
:1040C0003B61FB1D1A78072313409B00FB603B6894
:1040D000DB7A7B613B689B7A002B03D07B690822EB
:1040E00013437B61FB1D1B78DB08DBB21A1CFB1D35
:1040F0001B78DB08DBB2191C3B6906318900CB5801
:10410000F9680F20041C8C40211CC9431940FB682E
:104110007869041C9C40231C19433B6906329200B9
:10412000D1503B685B7A002B0BD03B695A69FB1D71
:104130001B780121081C9840031C1A433B695A61F3
:104140000BE03B695B69FA1D127801210C1C94405D
:10415000221CD2431A403B695A61BD4607B090BD4C
:10416000DD3D000061420100053E000080B584B0E5
:1041700000AF021CFB1D1A703B1C0F33FA1D127896
:1041800052091A703B1C0F331B78002B0BD1084BC4
:10419000BB603B1C0F331B789B001022D219D31835
:1041A000083B1B6800E00023181CBD4604B080BD1E
:1041B0000018004080B584B000AF021CFB1D1A70CF
:1041C000FB1D1B78181C0C4B9847031CFB60FB1D48
:1041D0001A781F2313400122111C99400B1CBB604D
:1041E000FB681B69BA6813405A1E9341DBB2181C66
:1041F000BD4604B080BDC0466D41000080B584B0AE
:1042000000AF021CFB1D1A70FB1D1B78181C094B0C
:104210009847031CFB60FB1D1A781F2313400122E3
:10422000111C99400B1CBB60FB68BA681A61BD4643
:1042300004B080BD6D41000080B582B000AF7860F1
:10424000FB1C1970BB1C1A70BB1C1B78002B01D007
:10425000172319E0FB1C1A780D4B9200D358002B42
:1042600007D1FB1C1A780A4B92007968D1500023C1
:104270000AE0FB1C1A78064B9200D2587B689A42DF
:1042800001D1002300E01D23181CBD4602B080BDF3
:104290004405002080B584B000AF0A1CFB1D011C42
:1042A0001970BB1D1A70BB1D1B78002B0ED1FB1D96
:1042B0001B78181C084B9847031CFB60FB1D1B78E0
:1042C00001229A40FB68DA60002300E01723181CE3
:1042D000BD4604B080BDC0466D41000080B500AF52
:1042E000154B00221A7021E0134B1B78181C134B3E
:1042F0009847031C002B13D00F4B1B78181C104B36
:1043000098470D4B1B781A1C0E4B9200D358002B6C
:1043100006D0094B1B781A1C0A4B9200D3589847B9
:10432000054B1B780133DAB2034B1A70024B1B7832
:104330000F2BD9D9BD4680BD84050020B5410000B2
:10434000FD4100004405002080B582B000AF074B5E
:104350007B607B681B7DDBB21A1C012313405A1E55
:104360009341DBB2181CBD4602B080BD0040004145
:1043700080B582B000AF021C3960FB1D1A70FB1DB6
:104380001B78012B0AD0022B0FD0002B14D10E4B1F
:104390000D4A91693A680A439A610FE00A4B0A4A4A
:1043A000D1693A680A43DA6108E0074B064A116AA4
:1043B0003A680A431A6201E0172300E00023181C40
:1043C000BD4602B080BDC0460004004080B584B048
:1043D00000AF7860334BFB6001200421324B9847DB
:1043E000FB681B8B9BB22022FF3213439AB2FB68FF
:1043F0001A832E4B9847031C01225340DBB2002B3B
:1044000001D0052349E07B681B781B021A1CC023DE
:104410009B001A407B685B78DB01191CFF230B4073
:104420001A437B689B785B00191C1E230B401A43C0
:104430007B68DB78191C01230B409B041A437B68C3
:104440001B791B04191CC0239B020B401A43FB68F9
:104450005A60FB689B681B0C1A1C07231340DBB2D5
:104460000822111C99400B1C9AB2114B1A80FB6850
:104470009B68002293439AB20D4B5A807B685A780E
:104480000B4B1A71FB681B8B9BB21A1C80235B00C1
:10449000134001D0102300E00023181CBD4604B0D7
:1044A00080BDC04600400041714300004943000008
:1044B0009004002080B586B000AFB9607A603B1CE4
:1044C0000F33021C1A70324B1B88314A52885A43F0
:1044D000BB689A4201D2182356E02E4B7B617B6960
:1044E0005B683B613B698022D2021A437B695A6058
:1044F0007B691B8B9BB22022FF3213439AB27B69EC
:104500001A83254B9847031C01225340DBB2002B32
:1045100001D0052338E03B1C0F331B78452B1AD8FC
:104520009A001E4BD3181B689F467B691B8B9BB25E
:104530001A1C80235B00134001D0102324E0BB68C9
:104540009B085A007B69DA6108E0BB689B085A0047
:104550007B69DA6102E0172316E0C0463B1C0F338B
:104560001B789BB20E4A13439AB27B691A80C046ED
:10457000094B9847031C01225340DBB2002BF7D1B3
:104580007B693A695A600023181CBD4606B080BD9D
:10459000900400200040004149430000F8800100E1
:1045A00000A5FFFF80B588B000AFF860B960BB1D03
:1045B0001A80464B1B88454A52885A43FB689A42E8
:1045C00001D218237DE0414B1B88013BFA68134060
:1045D00001D0182375E03D4B1B88BA1D12889A4202
:1045E00001D917236DE03A4B7B613A4B9847031C86
:1045F00001225340DBB2002B01D0052361E07B692F
:10460000354A1A80C046334B9847031C0122534059
:10461000DBB2002BF7D17B691B8B9BB22022FF32D0
:1046200013439AB27B691A83FB685B08FB613B1CEE
:104630001A3300221A8030E03B1C1A331B88BA68F8
:10464000D3181A783B1C18331A803B1C1A331A886B
:10465000BB1D1B88013B9A4210DA3B1C1A331B8896
:104660000133BA68D3181B781B029AB23B1C18336B
:104670001B8813439AB23B1C18331A80FB695A1CDF
:10468000FA615B003A1C183212881A803B1C1A33FC
:104690003A1C1A32128802321A803A1C1A32BB1D96
:1046A00012881B889A42C7D3BB1D1B883F2B07D893
:1046B000FB680420191C0022084B9847031C00E0EB
:1046C0000023181CBD4608B080BDC04690040020E1
:1046D000004000414943000044A5FFFFB5440000ED
:1046E00080B584B000AF78601A4B1B88194A528895
:1046F0005A437B689A4201D2182326E0154B1B8847
:104700009B00013B7A68134001D018231DE0124B37
:10471000FB60124B9847031C01225340DBB2002B75
:1047200001D0052311E0FB681B8B9BB22022FF32D6
:1047300013439AB2FB681A837B689B085A00FB6894
:10474000DA61FB68064A1A800023181CBD4604B0D3
:1047500080BDC04690040020004000414943000055
:1047600002A5FFFF80B582B000AF78607B680022B1
:104770001A70BD4602B080BD80B582B000AF021C89
:104780003960FB1D1A70FB1D1B78012B0AD0022B10
:104790000FD0002B14D10E4B0D4A91693A680A4391
:1047A0009A610FE00A4B0A4AD1693A680A43DA6112
:1047B00008E0074B064A116A3A680A431A6201E0A8
:1047C000172300E00023181CBD4602B080BDC04680
:1047D0000004004080B582B000AF78607B68802222
:1047E0001A707B6800225A707B6801229A707B687D
:1047F0000022DA70BD4602B080BDC04680B500AF71
:10480000054B9B78DBB21A1C022313405A1E9341BE
:10481000DBB2181CBD4680BD0020004180B584B0CD
:1048200000AF78607B681B68FB60FB681B8A9BB2EB
:104830001A1C80231B0213405A1E9341DBB2181C22
:10484000BD4604B080BDC04680B582B000AF786080
:10485000C0467B68181C044B9847031C002BF8D1FA
:10486000BD4602B080BDC0461D480000B0B58CB04A
:1048700002AF786039607B681B68BB617B681B682E
:10488000181C6D4B9847031C7B617B690D333B61A2
:1048900000237B6200233B623B1C0C3300221A8006
:1048A0003B1C0F3300221A703B1C0E3310221A706F
:1048B0003B681A683B68DB681A433B689B7D5B0773
:1048C00013437B623B1C1F3300221A703B685B68FA
:1048D000002B1FD08022520593424CD13B68DB7DD8
:1048E00001225340DBB2002B13D03B681D693B69AA
:1048F000DBB2181C514B9847021C3C1C1F343B1C5C
:104900000C33281C111C1A1C4D4B9847031C237098
:1049100031E030E03B68DB7D002B13D03B68186949
:104920003B6899693C1C1F343A1C0C323B1C0F330A
:104930001B783D1C0E352D780095424DA847031C71
:10494000237017E03B681D693B69DBB2181C3B4BC9
:104950009847011C3C1C1F343A1C0C323B1C0F3383
:104960001B78381C0E3000780090281C354DA84765
:10497000031C2370C0463B1C1F331B78002B03D045
:104980003B1C1F331B7852E07B68181C2E4B98474A
:104990003B1C0C331A88BB695A813B685B687A6A96
:1049A00013437B623B68DB7D01225340DBB2002B6B
:1049B00003D07B6A042213437B623B689A7A3B688C
:1049C000DB7A1343DBB21A1C3B681B7D5B041A4382
:1049D0003B685B7D1B0413433B623B681B89FF2BD9
:1049E00009D07B6A8022520413437B623B681B8997
:1049F0003A6A13433B623B681B7F002B04D1134B85
:104A00009847031C002B03D07B6A802213437B62F0
:104A10007B68181C0C4B9847BB693A6A5A607B68E4
:104A2000181C094B9847BB697A6A1A600023181C46
:104A3000BD460AB0B0BDC046AD280100A14001008E
:104A40003D240100A124010049480000FD47000069
:104A500090B593B000AFF860B9607A603B1C3B330F
:104A600000221A70FB68BA681A60FB681B687B63D7
:104A7000FB681B68181C7F4B9847031C3B633B6B10
:104A80000233FB623B6B0D33BB627B6B1A68012305
:104A9000134001D00523E9E07B6B1A680223134021
:104AA00001D01C23E2E0FB6A0122111C99400B1C7F
:104AB0000220191C704B98473B1C2433181C6F4B69
:104AC00098477B685A7F3B1C24331A70BB6ADAB262
:104AD0003B1C2433101C191C694B9847BB6ADBB282
:104AE000181C684B98477B685B7F181C0021664B3D
:104AF00098477B68DA7AFB685A717B681A7DFB6895
:104B00009A717B685A7DFB68DA713C1C3B34FA6809
:104B10007B68101C191C5D4B9847031C23703B1CC1
:104B20003B331B78002B03D03B1C3B331B789DE0B1
:104B30003B1C2033181C564B98473B1C203300224B
:104B40005A703B1C203300229A707B681A6A3B1C07
:104B500010331A607B685A6A3B1C10335A607B68BA
:104B60009A6A3B1C10339A607B68DA6A3B1C1033EC
:104B7000DA603B1C473300221A702CE03B1C4733A1
:104B80001A783B1C10339200D3583B643B6C002BCB
:104B900009D1BA683B1C47331B78101C191C3D4BCC
:104BA0009847031C3B643B6C01330DD03B6CDAB27D
:104BB0003B1C20331A703B6C1B0CDAB23B1C2033BD
:104BC000101C191C344B98473B1C47331A783B1C6C
:104BD000473301321A703B1C47331B78032BCDD966
:104BE0000023FB6308E0FB68FA6B023292000021AD
:104BF000D150FB6B0133FB63FB6B022BF3D9FB68DA
:104C000000229A61FB6800225A61FB680022DA8365
:104C1000FB6800229A83FA6820230021D154FA68A5
:104C200021230021D154FA6822230021D154FA68AB
:104C300023230021D154FB681B683C1C2734181C1B
:104C40000C4B9847031C23703B1C27331A78134BDB
:104C5000101C191C124B98473B1C27331A78114B18
:104C60009200F968D1503B1C3B331B78181CBD46A1
:104C700013B090BDAD2801007947000065470000E2
:104C8000413F0100813F0100512601006D480000B5
:104C9000D5470000DD26010061420100894E000079
:104CA000F92801008839002080B584B000AF786011
:104CB0007B681B68FB60FB681B8A9BB21A1C802305
:104CC0001B0213405A1E9341DBB2181CBD4604B0B0
:104CD00080BDC04680B582B000AF7860C0467B68BA
:104CE000181C044B9847031C002BF8D1BD4602B09A
:104CF00080BDC046A94C000080B586B000AFF8600A
:104D0000B960BB1D1A80FB681B687B61FB68BA1D1C
:104D10001288DA83FB68BA689A61FA68232305214E
:104D2000D1547B6901225A73BD4606B080BDC0468E
:104D300080B586B000AFF860B960BB1D1A80FB6813
:104D40001B687B61FB68BA1D12889A83FB68BA688E
:104D50005A61FA6822230521D154FB680022DA84C3
:104D6000FA682E230021D154FB68BA689A62FB6866
:104D7000BA1D12889A85FA6824230021D1547B69D0
:104D800004225A73BD4606B080BDC04680B584B0CB
:104D900000AFF860B960FB1D1A70FB1D1A78FB6844
:104DA00002329200B968D150FA682023D35CDAB29B
:104DB000FB1D1B780121081C9840031CDBB2134328
:104DC000DBB2D9B2FA682023D154BD4604B080BD0D
:104DD00080B584B000AFF860B960BB1D1A80BB1D00
:104DE0001B88002B01D1172319E0FB68DB8B9BB2DA
:104DF000002B01D0052312E0FB68DB790122534030
:104E0000DBB2002B01D01C2309E0F968BA68BB1D96
:104E10001B88081C111C1A1C034B98470023181CE4
:104E2000BD4604B080BDC046F94C000080B584B0DA
:104E300000AFF860B960BB1D1A80BB1D1B88002B3A
:104E400001D1172319E0FB689B7901225340DBB2A3
:104E5000002B01D01C2310E0FB689B8B9BB2002B26
:104E600001D0052309E0F968BA68BB1D1B88081C3E
:104E7000111C1A1C034B98470023181CBD4604B094
:104E800080BDC046314D000080B588B000AF021C27
:104E9000FB1D1A70FB1D1A78C44B9200D358BB61DE
:104EA000BB691B687B61BB69181CC14B98477B6958
:104EB0009B7BDAB23B1C12331A807B695B7BDBB2D3
:104EC0001A1C3B1C1233391C123109880A401A8003
:104ED000BA692023D35CB96921228A5C1340DAB213
:104EE0003B1C10331A803B1C12331A8801231340D9
:104EF00044D0BB69DB8B9BB2002B3CD0BB699B6968
:104F00001B78DAB23B1C1E331A80BB699B695A1CA2
:104F1000BB699A61BB695B79012B12D1BB699B6943
:104F20001B78DBB21B029AB23B1C1E331B88134357
:104F30009AB23B1C1E331A80BB699B695A1CBB6921
:104F40009A613B1C1E331B88DB05DB0D9AB27B6923
:104F50001A83BB69DB8B9BB2013B9BB2BA69191CFC
:104F6000D183002B06D17B6901221A737B6902224F
:104F70005A7303E002E07B6901221A733B1C12336F
:104F80001A880223134011D07B6902221A73BA696E
:104F900023230021D1543B1C10331A8801231340D2
:104FA00004D0BB699B68BA69101C98473B1C12333C
:104FB0001A880423134000D1FFE0BB699B8B9BB28E
:104FC000002B00D1F6E07B691B8A9BB2D9B23B1C57
:104FD0000F3307220A401A703B1C0F331B78002B3B
:104FE00044D03B1C0F331A78022313400CD0BA690B
:104FF00022231A21D1547B691B8A9BB202221343BC
:105000009AB27B691A8224E03B1C0F331A7804237E
:1050100013400CD0BA6922231E21D1547B691B8A0C
:105020009BB2042213439AB27B691A8211E03B1CA3
:105030000F331A78012313400BD0BA6922231321AE
:10504000D1547B691B8A9BB2012213439AB27B69BC
:105050001A823B1C10331A880423134000D1ACE0A1
:10506000BB691B69BA69101C9847A6E07B691B8B5A
:105070009AB23B1C0C33D205D20D1A80BB695B6916
:105080003A1C0C321288D2B21A70BB695B695A1C86
:10509000BB695A61BB69DB8C9BB201339AB2BB69B5
:1050A000DA84BB699B8B9BB2013B9BB2BA69191C2A
:1050B0009183002B13D17B6904221A73BA692223CE
:1050C0000021D1543B1C10331A880223134000D115
:1050D0006BE0BB69DB68BA69101C98476DE0BB697F
:1050E000DB8C9BB2022B0ED0032B27D0012B54D18B
:1050F0003B1C0C331B88232B04D1BA6924230121C8
:10510000D1544AE049E0BA692423D35CDBB2002BD6
:1051100009D03B1C0C331B881B029BB202339AB292
:10512000BB699A8339E0BB699A6ABB695A61BB69FA
:105130000022DA84BB6903229A832EE0BA69242311
:10514000D35CDBB2002B1CD0BB699B8B9AB23B1C9F
:105150000C331B88D3189AB2BB699A83BB699B8BAB
:105160009BB2043B9AB2BB699A83BB699B8B9AB290
:105170008223DB009A420FD9BA6924230021D1543B
:105180000AE0BB699A6ABB695A61BB690022DA848A
:10519000BB6903229A83FFE7C0463B1C0C331B8884
:1051A000D9B2BA692E23D15407E006E0883900202D
:1051B000D54C00007B6904221A73BD4608B080BD3F
:1051C00080B582B000AF78607B6800221A70BD465F
:1051D00002B080BD80B582B000AF021C3960FB1DFB
:1051E0001A70FB1D1B78012B0AD0022B0FD0002B4D
:1051F00014D10E4B0D4A91693A680A439A610FE047
:105200000A4B0A4AD1693A680A43DA6108E0074B57
:10521000064A116A3A680A431A6201E0172300E05D
:105220000023181CBD4602B080BDC04600040040EB
:1052300080B582B000AF78607B6880221A707B688E
:1052400000225A707B6801229A707B680022DA7013
:10525000BD4602B080BDC04680B584B000AF786066
:105260007B681B68FB60FB68DB7BDBB21A1C80235E
:1052700013405A1E9341DBB2181CBD4604B080BDDA
:1052800090B58DB000AF78603B1C0C330F4A13CA49
:1052900013C313CA13C303CA03C30023FB620DE085
:1052A0003B1C0C33FA6A9200D2587B689A4202D1B6
:1052B000FB6ADBB206E0FB6A0133FB62FB6A072B89
:1052C000EED90023181CBD460DB090BD1082010020
:1052D00090B58FB000AFF860B9607A603B1C363390
:1052E00000221A803B1C353300221A703B1C3433D9
:1052F00000221A703C1C3134BB68181CC44B984700
:10530000031C23703A1C2832C24B111C1A1C0823A0
:10531000081C111C1A1CC04B98473A1C1832BF4B72
:10532000111C1A1C1023081C111C1A1CBA4B98477C
:105330003B1C333300221A700EE03B1C33331A78C7
:10534000FB68023292000021D1503B1C33331A78A3
:105350003B1C333301321A703B1C33331B78032B55
:10536000EBD9FB6800221A76FB6800225A763B1CB8
:1053700031331A78AA4B9200F968D150FB68BA68A9
:105380001A607B689B78082B07D13B1C31331A7855
:105390000123134001D01723D5E17B689A78FB687D
:1053A0001A71BB681B889BB21A1C0123134001D0E1
:1053B0000523C8E1BB68DB7BDBB21A1C102313405A
:1053C00001D01C23BFE1BB681B889BB21A1C0223BF
:1053D000134001D01C23B6E17B681B7C002B17D047
:1053E0003B1C1433181C8F4B98477B689B69DAB2BF
:1053F0003B1C14331A703B1C143301225A707B6817
:105400005B69DAB23B1C1433101C191C864B98479D
:105410007B681B7F002B17D03B1C1433181C814B5F
:1054200098477B685B6ADAB23B1C14331A703B1CEA
:10543000143301225A707B681B6ADAB23B1C1433A6
:10544000101C191C784B98473B1C31331A783B1CB5
:1054500018335200D35A0220191C744B98477B68AA
:105460009B78082B0BD13B1C31331B785A1C3B1CFF
:1054700018335200D35A0220191C6C4B98473B1C1E
:105480001033181C6A4B98477B681A783B1C103302
:105490001A703B1C31331B783A1C2832D25C3B1CFF
:1054A0001033101C191C634B98473B1C31331B787D
:1054B0003A1C2832D35C181C5F4B98477B689A785B
:1054C0007B689B791343DBB21A1C7B681B891343EF
:1054D00099B27B689A883B1C36330A431A807B68F2
:1054E0005B78002B09D03B1C36333A1C36321288CD
:1054F000802109010A431A80FFE7C046FB68181C97
:105500004E4B9847031C002BF8D1BB683A1C36322F
:1055100012881A807B685B7B002B03D03B1C3533E1
:1055200004221A707B689B7B002B08D03B1C353310
:105530003A1C3532127801210A431A70FFE7C0463F
:10554000FB68181C3D4B9847031C002BF8D1BB6827
:10555000FF221A713B1C35331B78002B0CD0C04640
:10556000FB68181C354B9847031C002BF8D1BB680F
:105570003A1C353212785A713B1C34337A68927A6D
:105580001A703B1C323300221A701DE03B1C323370
:105590001B787A68D318DB7A002B0ED03B1C323391
:1055A0001B781022111C99400B1CD9B23B1C3433C0
:1055B0003A1C343212780A431A703B1C32331A7880
:1055C0003B1C323301321A703B1C32331B78012BE7
:1055D000DCD9C046FB68181C184B9847031C002BED
:1055E000F8D1BB683A1C343212789A71C046FB6815
:1055F000181C124B9847031C002BF8D1FB681B7931
:10560000042B1DD0082B00D176E0002B4ED099E062
:1056100081520000308201009D7D0100388201002E
:10562000880500203152000061420100D551000080
:10563000C1510000413F0100813F0100595200006B
:10564000C046FB68181C424B9847031C002BF8D13E
:105650007A682823D25CBB681A74C046FB68181CA1
:105660003B4B9847031C002BF8D17A682923D25C66
:10567000BB681A75C046FB68181C354B9847031C5D
:10568000002BF8D17A682A23D25CBB681A76C04610
:10569000FB68181C2E4B9847031C002BF8D17A6826
:1056A0002B23D25CBB685A7600234CE0C046FB68D3
:1056B000181C274B9847031C002BF8D17B681A8DC8
:1056C000BB681A82C046FB68181C214B9847031C14
:1056D000002BF8D17B685A8DBB681A83C046FB68E3
:1056E000181C1B4B9847031C002BF8D17B689A8D24
:1056F000BB685A83002326E0C046FB68181C144B85
:105700009847031C002BF8D17B689A6ABB681A6122
:10571000C046FB68181C0E4B9847031C002BF8D1A1
:105720007B68DA6ABB689A61C046FB68181C084B44
:105730009847031C002BF8D17B681A6BBB68DA61B1
:10574000002300E01723181CBD460FB090BDC046D3
:105750005952000080B584B000AFF860B960FB1DFD
:105760001A70FB1D1A78FB6802329200B968D1509A
:10577000FB1D1B78022B07D1FB681B7E10221343F5
:10578000DAB2FB681A761AE0FB1D1B78032B07D1EF
:10579000FB681B7E20221343DAB2FB681A760EE008
:1057A000FB681B7EDAB2FB1D1B780121081C9840A8
:1057B000031CDBB21343DBB2DAB2FB681A760023B8
:1057C000181CBD4604B080BD80B500AF0020024B60
:1057D0009847BD4680BDC0466958000080B500AFFF
:1057E0000120024B9847BD4680BDC0466958000065
:1057F00080B500AF0220024B9847BD4680BDC04631
:105800006958000080B500AF0320024B9847BD46A1
:1058100080BDC0466958000080B500AF0420024B2F
:105820009847BD4680BDC0466958000080B500AFAE
:105830000520024B9847BD4680BDC0466958000010
:1058400080B500AF0620024B9847BD4680BDC046DC
:105850006958000080B500AF0720024B9847BD464D
:1058600080BDC0466958000080B584B000AF021CFE
:10587000FB1D1A70FB1D1A78284B9200D358FB6051
:10588000FB681B689B7BDBB2FA68127E1340DAB2BE
:10589000FB68597E3B1C0B330A401A703B1C0B33D0
:1058A0001A780123134008D0FB689B68FA68101C23
:1058B0009847FB681B6801229A733B1C0B331A78CC
:1058C0000223134008D0FB68DB68FA68101C984775
:1058D000FB681B6802229A733B1C0B331A78102357
:1058E000134008D0FB681B69FA68101C9847FB68D6
:1058F0001B6810229A733B1C0B331A782023134029
:1059000008D0FB685B69FA68101C9847FB681B6845
:1059100020229A73BD4604B080BDC0468805002091
:1059200080B582B000AF021C3960FB1D1A70FB1DF0
:105930001B78012B0AD0022B0FD0002B14D10E4B59
:105940000D4A91693A680A439A610FE00A4B0A4A84
:10595000D1693A680A43DA6108E0074B064A116ADE
:105960003A680A431A6201E0172300E00023181C7A
:10597000BD4602B080BDC0460004004080B582B084
:1059800000AF084B7B607B68DB79DBB2DBB25BB2DC
:10599000002B01DA012300E00023181CBD4602B0F1
:1059A00080BDC0460010004080B582B000AF074BFC
:1059B0007B607B681B78DBB21A1C802313405A1E65
:1059C0009341DBB2181CBD4602B080BD0010004000
:1059D00080B586B000AF7860564B3B610020102147
:1059E000554B9847554B9847031C002B01D010236B
:1059F0009CE07B68DB78002B01D1172396E07B6865
:105A0000DA787B681B799A4205D37B68DA787B6801
:105A10005B799A4201D2172388E03B691B78DBB29D
:105A200002229343DAB23B691A707B685B780122E9
:105A30005340DBB2002B01D0002377E07B689A78DB
:105A40003B1C0C331A703B1C0C330120191C3C4BC3
:105A5000984701203B4B98477B681B78002B03D06D
:105A60000120394B9847FFE7C046384B9847031C45
:105A7000002BFAD100237B617B68DB78013B7A69DC
:105A800013437B617B681B79002B0FD03B691B782C
:105A9000DBB204221343DAB23B691A707B681B79CC
:105AA000013B1B017A6913437B6107E03B691B786B
:105AB000DBB204229343DAB23B691A70C046234B2F
:105AC0009847031C002BFAD17B69DAB23B695A7004
:105AD0007B685B79002B0CD0C0461C4B9847031C9D
:105AE000002BFAD17B685B79013BDAB23B699A7093
:105AF000FFE7C046154B9847031C002BFAD17B6883
:105B00001B78002B09D03B691B78DBB28022524204
:105B10001343DAB23B691A7007E03B691B78DBB2CA
:105B200002221343DAB23B691A700023181CBD46E7
:105B300006B080BD0010004021590000A9590000A6
:105B4000413F0100813F01005D4001007D5900009F
:105B500080B582B000AF074B7B60C046064B9847CC
:105B6000031C002BFAD17B68A5221A72BD4602B035
:105B700080BDC046001000407D59000080B586B051
:105B800000AFBB1D18807B1D1970BB1C1A803B1C0D
:105B9000173300221A703B1C1433354A92781A705E
:105BA000344B1B78002B5CD03B1C153300221A7041
:105BB0003B1C163300221A7045E03B1C16331A7842
:105BC0002D4B5200D35A1AB2BB1C00215B5ED31A74
:105BD0003B613B1C14331A78131C9B009B185B0021
:105BE000FB60FA68254B101C05219847031CFB60DD
:105BF0003B69FA6853433B613A69204B101C0A2108
:105C00009847031C3B617B1D1B78012B0AD1BB1DF0
:105C100000215A5E3B699A420EDD3B1C153301227E
:105C20001A7009E0BB1D00215A5E3B699A4203DAF3
:105C30003B1C153301221A703B1C16331A783B1C8F
:105C4000163301321A703B1C16331B78042BB4D95F
:105C50003B1C15331B78002B03D13B1C173301224F
:105C60001A703B1C17331B78181CBD4606B080BD4C
:105C7000B42F0020180600200806002075570100E8
:105C800080B586B000AFF860B9607A603B603B1CBD
:105C9000173300221A70144B1B78002B1CD0134BA7
:105CA0001B889AB2FB681A80114B1B889AB2BB689A
:105CB0001A80104B1B889AB27B681A803B1C1733E2
:105CC00001221A700C4B1B78002B05D00A4B0022C6
:105CD0001A703B6801221A703B1C17331B78181C82
:105CE000BD4606B080BDC046DA0500209E040020F7
:105CF000A0040020A20400204606002080B586B043
:105D000000AFF860B9607A603B1C173300221A704C
:105D10000E4B1B78002B12D00D4B1B889AB2FB68E0
:105D20001A800C4B1B889AB2BB681A800A4B1B88DE
:105D30009AB27B681A803B1C173301221A703B1CF5
:105D400017331B78181CBD4606B080BDDA0500204D
:105D50009E040020A0040020A204002080B584B08E
:105D600000AF021CFB1D1A703B1C0F3300221A707F
:105D70003B1C0C3300221A703A1C0C32FB1D1B78A2
:105D8000101C191C0122094B9847031C002B05D03D
:105D90003B1C0F333A1C0C3212781A703B1C0F3329
:105DA0001B78181CBD4604B080BDC04689C20000E7
:105DB00080B584B000AF0A1CFB1D011C1970BB1D0F
:105DC0001A703B1C0C33BA1D12781A703A1C0C3234
:105DD000FB1D1B78101C191C0122024B9847BD4665
:105DE00004B080BD09C4000080B582B000AF20209F
:105DF00097212C4B9847232008212A4B9847FB1DBD
:105E000000221A7016E0FB1D1A78274B5200002161
:105E1000D152FB1D1A78254B52000021D152FB1D97
:105E20001A78234B52000021D152FB1D1A78FB1D1A
:105E300001321A70FB1D1B78132BE4D91D4B002275
:105E40001A701D4B00221A701C4B00221A70FB1D89
:105E500000221A7007E01A4B00225A81FB1D1A78A3
:105E6000FB1D01321A70FB1D1B78042BF3D9154B57
:105E700000221A70144B00221A7004200121002203
:105E8000124B9847124B9847031C332B04D1042024
:105E9000012101220D4B98470123181CBD4602B079
:105EA00080BDC046B15D0000AC050020DC050020CF
:105EB0001C06002012060020DA05002046060020FD
:105EC00008060020040600201806002039F500000E
:105ED0008D61000080B584B000AF964B9847031CDD
:105EE000002B00D11CE12920934B9847031C1A1C5E
:105EF0003B1C0C331A8028208F4B9847031C1A1C1C
:105F00003B1C0A331A803B1C0C333A1C0C3212889F
:105F100012021A803B1C0C33391C0C313A1C0A3219
:105F2000098812880A431A803B1C0C331A88834B59
:105F30001A802B20804B9847031C1A1C3B1C0C33E7
:105F40001A802A207C4B9847031C1A1C3B1C0A33DE
:105F50001A803B1C0C333A1C0C32128812021A8035
:105F60003B1C0C33391C0C313A1C0A32098812884C
:105F70000A431A803B1C0C331A88714B1A802D205F
:105F80006D4B9847031C1A1C3B1C0C331A802C20A9
:105F9000694B9847031C1A1C3B1C0A331A803B1C94
:105FA0000C333A1C0C32128812021A803B1C0C3340
:105FB000391C0C313A1C0A32098812880A431A80AB
:105FC0003B1C0C331A885F4B1A805F4B1B781A1CE2
:105FD0005A4B19885D4B5200D1525B4B1B781A1CEF
:105FE000574B19885A4B5200D152574B1B781A1CE9
:105FF000544B1988574B5200D152534B1B780133E5
:10600000DAB2514B1A70504B1B78132B6CD94E4B94
:1060100000221A70504B01221A70504B01221A7044
:106020004F4B00221A604E4B1A684E4B1A604D4B74
:106030001A684D4B1A603B1C0F3300221A702AE07D
:106040003B1C0F331A78414B5200D35A1AB2464BBD
:106050001B68D218444B1A603B1C0F331A783C4B18
:106060005200D35A1AB23F4B1B68D2183D4B1A60EC
:106070003B1C0F331A78374B5200D35A1AB2384BA5
:106080001B68D218364B1A603B1C0F331A783B1C26
:106090000F3301321A703B1C0F331B78132BCFD9EF
:1060A000314B1A68314B101C14219847031C7B603C
:1060B0007B689AB22E4B1A802A4B1A682B4B101C05
:1060C00014219847031C7B607B689AB2294B1A8085
:1060D000234B1A68254B101C14219847031C7B6026
:1060E0007B689AB2244B1A80174B1B78002B17D170
:1060F000224B1B781A1C1E4B1988214B5200D1527F
:106100001E4B1B780133DAB21C4B1A701B4B1B78E9
:10611000042B05D9194B00221A701A4B01221A7050
:106120000E4B1B78002B01D0174B9847BD4604B08F
:1061300080BDC046B16100005D5D00009804002094
:106140009A0400209C04002012060020AC050020C8
:10615000DC0500201C060020DA0500204606002091
:10616000A8050020D4050020140600207557010062
:106170009E040020A0040020A204002004060020A9
:1061800008060020180600208D8E000090B583B010
:1061900000AFFC1D0F20054B9847031C2370FB1D0F
:1061A0001B78181CBD4603B090BDC0465D5D000065
:1061B00080B500AF0123181CBD4680BD80B584B0FA
:1061C00000AF021CFB1D1A703B1C0F33FA1D127826
:1061D000D2091A703B1C0E33FA1D127852091A703C
:1061E0000D4BBB603B1C0F331B78002B0ED13B1CAF
:1061F0000F331B789B001022D219D318083B1A6862
:106200003B1C0E331B78DB01D31800E00023181C65
:10621000BD4604B080BDC0460044004180B582B098
:1062200000AF021CFB1D1A70FB1D1B78181C034BD2
:106230009847031C181CBD4602B080BDBD6100001C
:1062400080B582B000AF78607B6800221A707B68EE
:1062500001225A707B6800229A70BD4602B080BD50
:1062600080B584B000AF0A1CFB1D011C1970BB1D5A
:106270001A70FB1D1B78181C0D4B9847031CFB6004
:10628000FB1D1A781F2313400122111C99400B1C7F
:10629000BB60BB1D1B78002B03D0FB68BA689A61FA
:1062A00002E0FB68BA685A61BD4604B080BDC046D2
:1062B0001D62000080B582B000AF021CBB1D1A80B9
:1062C000054BBA1D12881A80C046034B1B88002B51
:1062D000FBD1BD4602B080BDF836002080B582B04B
:1062E00000AF3B1D181C1B4B98473B1D01221A7029
:1062F0003B1D0920191C184B984709200021174BFA
:1063000098473B1D0820191C134B98470820012172
:10631000124B98472820124B9847092001210F4B18
:10632000984728200E4B9847082001210B4B98478F
:1063300014200B4B98470B4B01221A700A4B012279
:106340001A700A4B00221A70094B9847181CBD4658
:1063500002B080BD41620000BD1C0100616200000E
:10636000B5620000A4040020B62E0020E42E002018
:10637000A9E1000080B582B000AF3B1D181C134B93
:1063800098473B1D01221A703B1D0920191C104B18
:106390009847092000210F4B98473B1D0820191CE6
:1063A0000B4B9847082001210A4B984728200A4B9D
:1063B00098470A4B00221A70094B02221A70094BA7
:1063C00002221A70181CBD4602B080BD4162000056
:1063D000BD1C010061620000B5620000A404002041
:1063E000B62E0020E42E002080B582B000AF786089
:1063F0007B6800221A607B6800225A607B68012259
:106400001A727B6801225A727B6800229A727B683A
:106410000222DA72BD4602B080BDC04680B584B0AB
:1064200000AF021CBB1D1A803B1C0E3300221A80D9
:106430003B1C093300221A703B1C0A33424A128863
:106440001A803B1C0A331B88002B07D03B1C0A33E5
:106450001A883B1C0A33013A1A8004E03B1C0A33B9
:106460008022D2001A803B1C0C3300221A80374B4A
:106470001A888023DB009A4204D9344B8022D20050
:106480001A804DE04CE03B1C0A331A88304B520016
:10649000D35ABA1D12889A4216D93B1C09330122DD
:1064A0001A703B1C0E333A1C0E3212881A803B1CA9
:1064B0000C333A1C0C3212881A803B1C0A333A1CEB
:1064C0000A3212881A802BE03B1C0C331A883B1CC2
:1064D0000C3301321A803B1C0E331A883B1C0E33DE
:1064E00001321A803B1C0A331B88002B0DD03B1C49
:1064F0000A331A883B1C0A33013A1A803B1C0933C1
:106500003A1C093212781A700AE03B1C0A338022C6
:10651000D2001A803B1C09333A1C093212781A70D7
:106520003B1C09331B78002B06D1084B1B883A1CF7
:106530000C3212889A42A6D33B1C0E331B88181CBF
:10654000BD4604B080BDC0469E1E0020A6040020AB
:10655000A01E002080B584B000AF3B1D181C0B4B63
:1065600098473B1D2B221A603B1D00225A603B1DA1
:1065700000221A723B1D0322DA723B1D0B20191CEC
:10658000034B9847BD4604B080BDC046E963000098
:106590006D40000080B500AF054B181C0B21002298
:1065A000044B98470B200021034B9847BD4680BD04
:1065B000BD650000394200009542000098B500AF6B
:1065C0002D4B1B8801339AB22B4B1A802B4B1B7817
:1065D000012B24D12A4B1A882A4B9A4205D9284BE1
:1065E00000221A80284B01221A70254B1B881C1C84
:1065F0000120264B9847031C191C254B6200D152E1
:106600001F4B1B885A1C91B21D4A11801A1C1A4B31
:1066100019881F4B8020C00012185200D152174B0E
:106620001B78042B10D11B4B1B88002B0CD0194B53
:106630001B88013B9AB2174B1A80164B1B88002B04
:1066400002D10020144B98470C4B1B78032B10D120
:10665000104B1B88002B0CD00E4B1B88013B9AB2B1
:106660000C4B1A800B4B1B88002B02D100200A4BCD
:106670009847BD4698BDC046A8040020AE0400203F
:106680009E1E0020FF030000AA040020E5B30000C6
:10669000A01E0020DE2E0020A59A000080B584B048
:1066A00000AF021CFB1D1A703B1C0F33FA1D127841
:1066B000D2091A703B1C0E33FA1D127852091A7057
:1066C0000D4BBB603B1C0F331B78002B0ED13B1CCA
:1066D0000F331B789B001022D219D318083B1A687D
:1066E0003B1C0E331B78DB01D31800E00023181C81
:1066F000BD4604B080BDC0460044004180B500AF37
:10670000034B01221A70BFF35F8F62B6BD4680BD96
:106710004400002080B582B000AF021CFB1D1A703F
:10672000FB1D1B78181C034B9847031C181CBD4607
:1067300002B080BD9D66000080B582B000AF786079
:106740007B6800221A707B6801225A707B680022E5
:106750009A70BD4602B080BD80B584B000AF021C07
:10676000FB1D1A70FB1D1B78181C0C4B9847031C53
:10677000FB60FB1D1A781F2313400122111C994056
:106780000B1CBB60FB681B6ABA6813405A1E93411E
:10679000DBB2181CBD4604B080BDC04615670000C2
:1067A00080B584B000AF0A1CFB1D011C1970BB1D15
:1067B0001A70FB1D1B78181C0D4B9847031CFB60BF
:1067C000FB1D1A781F2313400122111C99400B1C3A
:1067D000BB60BB1D1B78002B03D0FB68BA689A61B5
:1067E00002E0FB68BA685A61BD4604B080BDC0468D
:1067F0001567000080B582B000AF78607B6800222A
:106800001A607B6800225A607B6801221A727B68DA
:1068100001225A727B6800229A727B680222DA7225
:10682000BD4602B080BDC04680B582B000AF021C3C
:10683000BB1D1A80054BBA1D12881A80C046034B37
:106840001B88002BFBD1BD4602B080BDBC360020AA
:1068500090B585B000AF021CFB1D1A703B1C0E33B7
:1068600000221A803C1C0C340220214B9847031C48
:106870002380204B1B78FA1D12789A4204D13B1CCE
:106880000C331B885F2B21D8FB1D1B78092B14D0E0
:1068900002DC042B05D015E00B2B0AD0222B04D0F0
:1068A00010E0154B64221A800CE0134B64221A800E
:1068B00008E0114B64221A8004E00F4BFA225200C8
:1068C0001A80C0460B4BFA1D12781A700A4B1B88AF
:1068D000002B05D13B1C0E333A1C0C3212881A8057
:1068E0003B1C0E331B88181CBD4605B090BDC0462E
:1068F000E5B30000B3040020B404002080B500AF6D
:10690000124B02221A70124B02221A70114B0122F2
:106910001A70114B1B7904221343DAB20E4B1A7111
:106920000E4B02221A700E4B05229A700D4B98479F
:106930000D4B00221A800D4B00221A70074B0222C9
:106940001A70084B9847BD4680BDC046E42E002013
:10695000B62E0020B02E002090360020BF2E002042
:10696000B42F0020A56E0000E22E0020B1360020DA
:1069700080B500AF064B02221A70064B02221A7035
:10698000054B01221A70054B01221A70BD4680BDCD
:10699000E42E0020B62E0020B02E0020BF2E0020B6
:1069A00080B584B000AF021CFB1D1A703B1C0F3376
:1069B00001221A70FB1D1B78012B3DD002DC002B3D
:1069C00006D0AFE0022B66D0032B00D17BE0A9E01C
:1069D000654B1B78002B26D0644B1B78012B22D1F2
:1069E000634B1B88002B0BD1624B9B7840221343D7
:1069F000DAB2604B9A703B1C0F3300221A701AE017
:106A00005C4B9B7804221343DAB25A4B9A70594B71
:106A10009B7840229343DAB2564B9A703B1C0F335B
:106A200000221A7007E0534B9B7804229343DAB29A
:106A3000504B9A7076E075E04F4B1B78002B22D0BC
:106A40004B4B1B88002B0BD14A4B9B7840221343A6
:106A5000DAB2484B9A703B1C0F3300221A7061E087
:106A6000444B9B7808221343DAB2424B9A70414B55
:106A70009B7840229343DAB23E4B9A703B1C0F3313
:106A800000221A704EE03B4B9B7808229343DAB207
:106A9000384B9A7046E0364B1B88002B0BD1354B98
:106AA0009B7840221343DAB2324B9A703B1C0F336F
:106AB00000221A7036E02F4B9B7840229343DAB2C3
:106AC0002C4B9A702EE02C4B1B78002B0BD1294BB2
:106AD0009B7802221343DAB2264B9A703B1C0F3389
:106AE00000221A7006E0234B9B7802229343DAB20D
:106AF000204B9A701C4B1B78002B0BD11D4B9B78A5
:106B000001221343DAB21B4B9A703B1C0F33002255
:106B10001A7006E0174B9B7801229343DAB2154BAB
:106B20009A70C046144B1B78002B0FD10E4B1B786C
:106B3000002B0BD10F4B9B7820221343DAB20D4B65
:106B40009A703B1C0F3300221A7006E0094B9B78A9
:106B500020229343DAB2074B9A703B1C0F331B7809
:106B6000181CBD4604B080BD643000200100002028
:106B7000A8040020903600206E30002080B500AFC1
:106B8000534B1B78242B00D99FE09A00514BD3180C
:106B90001B689F46504B02221A70504B02221A70FB
:106BA0004F4B01221A7090E04B4B02221A704B4B54
:106BB00003221A704A4B01221A7086E0494B1B7956
:106BC0001A1C2023134009D0434B04221A70434B54
:106BD00002221A70424B01221A7076E03E4B0822C4
:106BE0001A703E4B01221A703D4B01221A706CE064
:106BF000394B04221A70394B02221A70384B012289
:106C00001A7062E0344B03221A70344B02221A705D
:106C1000334B01221A7058E0324B1B791A1C202387
:106C2000134009D02C4B04221A702C4B02221A70EC
:106C30002B4B01221A7048E0274B02221A70274B77
:106C400003221A70264B01221A703EE0224B0022CA
:106C50001A70244B1B791A1C2023134003D01E4B9F
:106C600004221A701CE01F4B1B791A1C08231340C6
:106C70000DD01C4B1B791A1C0123134003D0164B5B
:106C800007221A700CE0144B06221A7008E0154B0C
:106C90001B791A1C0123134002D00F4B00221A70DB
:106CA0000E4B02221A700E4B01221A700DE00B4B94
:106CB00001221A700A4B01221A7006E0084B0222C8
:106CC0001A70064B01221A70C046BD4680BDC046F0
:106CD000BF2E002048820100E42E0020B62E0020A6
:106CE000B02E00209036002090B583B000AFBC1DC0
:106CF00000205E4B9847031C238003205B4B984782
:106D0000031C1A1C5A4B1A80BB1D1A88594B9A42F5
:106D100037D8594B1B881D2B14D9584B1B781C2B6B
:106D200003D0564B1B78032B0CD1554B1B791A1CE7
:106D30000823134006D1524B1B7908221343DAB2C1
:106D40004F4B1A714F4B1B881D2B0CD94C4B1B7989
:106D50001A1C0823134006D1494B1B790822134300
:106D6000DAB2474B1A71BB1D1A88F423FF339A42DB
:106D70002DD8434B1B7920221343DAB2404B1A71B2
:106D800025E03F4B1B7920229343DAB23C4B1A712A
:106D90003B4B1B791A1C0823134012D0BB1D1A88C9
:106DA000394B9A4213D9324B1A8880231B019A42DD
:106DB0000DD9334B1B7908229343DAB2304B1A7149
:106DC00005E0304B00221A802B4B00221A80BB1D9D
:106DD0001A882E4B9A421DD92D4B1B78002B0CD1B3
:106DE000234B1A882B4B9A4230D8252001212A4B5D
:106DF0009847274B01221A7028E01D4B1A88274B11
:106E00009A4223D925200021234B9847204B00226A
:106E10001A701BE0BB1D1A88164B9A4216D81C4BE1
:106E20001B78002B06D0252000211B4B9847184BC0
:106E300000221A700E4B1A88194B9A4206D8104B32
:106E40001B7920221343DAB20D4B1A71104B1B78B9
:106E5000002B04D1252000210F4B984703E025206B
:106E600001210D4B9847BD4603B090BDE5B300002E
:106E7000AC0400202C060000D22E0020BF2E0020E3
:106E800090360020D42E0020250500005B0600006F
:106E9000AB040020D90A0000A1670000470B0000E6
:106EA000FF03000090B585B000AFCF4B1A78CF4BF1
:106EB0001A70CF4B1A78CC4B1A70CE4B1B78012B23
:106EC0000BD0CC4B1B78032B07D0CA4B1B78022B63
:106ED00003D0C84B1B78042B2DD1C54B1B78182B26
:106EE00029D0C54B1A88C54B1B889A4203D0C44B86
:106EF00000221A701BE0C24B1B780133DAB2C04B80
:106F00001A70BF4B1B78782B11D9B94B07221A7016
:106F1000BC4B1B7904221343DAB2BA4B1A71B94B3A
:106F20001B79802252421343DAB2B64B1A71B34B2B
:106F30001A88B14B1A803B1C0E3300221A703C1C7D
:106F40000934B14B9847031C2370B04B9847B04BA2
:106F50001B881BB2012B07D1AA4B1B79402213437C
:106F6000DAB2A84B1A7106E0A64B1B794022934374
:106F7000DAB2A44B1A719E4B1B78242B01D901F075
:106F800046FF9A00A34BD3181B689F460120A24BD3
:106F90009847974B06221A70A04B00221A80994BF3
:106FA0001B791A1C2823134003D0914B07221A7017
:106FB00018E09B4B1B78002B14D08D4B1B221A70B2
:106FC000984B9847984B14221A80944BAF221A8002
:106FD000884B04221A70954B1B7802229343DAB235
:106FE000924B1A70874B1A7928231340DAB2854BDB
:106FF0001A7101F00CFF8D4B1B781A1C02231340F1
:1070000003D1864B1B88002B11D10120824B98475E
:10701000774B06221A70864B9847834B96221A802C
:10702000824B1B7802229343DAB2804B1A70754B65
:107030001A7928231340DAB2724B1A7101F0E7FE75
:107040007A4B1B781A1C0223134007D1744B1B7810
:10705000002B03D0774B1B78002B16D101206E4BF1
:107060009847714B00221A80704B1B780222934381
:10707000DAB26E4B1A7000206F4B98475C4B0122BE
:107080001A706E4B984701F0C2FE01F0C0FE6C4BC7
:1070900000221A706B4B00221A706B4B00221A8070
:1070A000584B00229A70524B03221A70554B002203
:1070B0001A71544B1B7904221343DAB2514B1A71E3
:1070C000624B9847624B9847604B9847614B002250
:1070D0001A70614B00221A70604B00221A703B1C20
:1070E0000F3300221A7006E03B1C0F331A783B1C4A
:1070F0000F3301321A703B1C0F331B78092BF3D965
:10710000574B1B88002B0AD0564B1B88002B06D1EF
:10711000554B1B88002B02D14E4B01221A70504B4D
:107120001B88002B0AD14F4B1B88002B06D04E4BDF
:107130001B88002B02D1494B01221A70484B1B8837
:10714000002B0AD1474B1B88002B06D1464B1B88CE
:10715000002B02D0404B01221A70444B99221A7026
:10716000434B00221A70434B9847384B9847424B89
:107170009847424B98473B1C0F3300221A7008E097
:107180003F4B98473B1C0F331A783B1C0F3301329F
:107190001A703B1C0F331B78072BF1D901201E4BB3
:1071A0009847184B1B791A1C2823134004D0104B06
:1071B00007221A7001F02BFE0D4B1C221A70194B7E
:1071C0009847194B14221A80144BAF221A80094B8E
:1071D00004221A70154B1B7802229343DAB2134B28
:1071E0001A7001F014FEC046A42E0020CA2E002002
:1071F000BF2E0020AE040020C62E0020A8040020D0
:10720000BE2E002090360020A5BB0000E96C0000D7
:1072100066300020DC820100A59A0000DE2E0020EE
:1072200064300020759C0000C0360020EA2E00204B
:10723000B99B000001000020A169000071690000F5
:10724000CE2E0020B2040020EE2E0020515B000064
:1072500065B800008F3600208C3600208D36002067
:10726000C4040020C6040020C8040020CE3600203C
:10727000BA04002001F40000FD660000F9B8000027
:10728000C9BB0000C74B1B781A1C0223134003D153
:10729000C54B1B88002B1DD10120C44B9847C44B04
:1072A0001B791A1C2823134003D0C24B07221A70E3
:1072B00010E0C04B03221A70BF4B9847BF4B962279
:1072C0001A80B84B1B7802229343DAB2B54B1A707E
:1072D00001F09DFD01F09BFDB24B1B781A1C0223AF
:1072E000134007D1B64B1B78002B03D0B54B1B784E
:1072F000002B3BD10120AD4B9847B04B00221A80A8
:10730000A84B1B7802229343DAB2A64B1A70A84B03
:107310001B791A1C2823134003D0A64B07221A708E
:1073200024E00020A84B9847031C002B03D1A14B5D
:1073300007221A701AE09E4B1B791A1C0423134073
:107340000FD1A24B98479D4B64221A80994B0B2278
:107350001A70974B1B7904229343DAB2944B1A713B
:1073600004E0944B04221A7001F051FD01F04FFD2E
:10737000BC1D0420964B9847031C2380BB1D1B8813
:10738000602B03D98B4B1D221A702DE0884B1B7983
:107390001A1C2023134027D1864B04221A708D4BD0
:1073A0001B88002B20D0834B05221A708A4B0022A9
:1073B0001A808A4B00221A80894B00221A80894B3E
:1073C00000221A70884B1B78002B0DD0874B9847F2
:1073D0007A4B64221A80734B1B7802229343DAB2F1
:1073E000704B1A7001F013FD01F011FD704B1B7909
:1073F0001A1C2823134003D06E4B07221A701FE07B
:10740000684B1B781A1C0223134019D06B4B0022C7
:107410001A80644B1B7802229343DAB2614B1A70D4
:107420006D4B1B8801339AB26B4B1A80624B9847A5
:10743000624B64221A805F4B05221A7001F0E7FC50
:1074400001F0E5FC5A4B1B791A1C2823134003D08A
:10745000584B07221A701FE0524B1B781A1C02234C
:10746000134019D0554B00221A804E4B1B78022234
:107470009343DAB24B4B1A70574B1B8801339AB2C5
:10748000554B1A80594B98474C4B64221A80494BF4
:1074900005221A7001F0BBFC01F0B9FC3B1C0E3355
:1074A00000221A704C4B1B88082B30D13D4B1B78A7
:1074B0001A1C042313402AD03A4B1B78042293430E
:1074C000DAB2384B1A704A4B1A884A4B9A4202D9A0
:1074D000474B00221A80464B1B881C1C0120464B40
:1074E0009847031C191C454B6200D152404B1B8826
:1074F0001A1C434B1988414B8020C00012185200BF
:10750000D1523B4B1B8801339AB2394B1A803B1C3A
:107510000E331B78002B00D079E12F4B1B881A1CEF
:107520000123134004D13B1C0D3300221A7003E0E9
:107530003B1C0D3301221A703B1C0D331B78092BA9
:1075400001D901F063FC9A002E4BD3181B689F46AB
:10755000254B1B78002B17D101201B4B9847031C90
:10756000002B03D1134B07221A7005E01D4B01229B
:107570001A70104B07221A700A4B1B780222934391
:10758000DAB2084B1A70A0E002200F4B9847031C98
:10759000002B3BD11C4B1B88002B37D1054B0722FE
:1075A0001A7092E0EA2E0020DE2E0020A59A00003C
:1075B00090360020BF2E0020B99B0000C03600206E
:1075C0006430002001000020A1690000718E0000DD
:1075D000516800006A300020CC2E0020BE0400203C
:1075E000C0040020B10400206E300020759C000013
:1075F0009C1E0020FF030000E5B300009C0E00204D
:10760000A804002070830100B22E0020CE4B1B780E
:107610001A1C022313401DD0CB4B1B78022293432C
:10762000DAB2C94B1A700120C84B98470220C84BE8
:107630009847031C002B03D1C64B07221A7002E0A7
:10764000C44B07221A70C04B1B7802229343DAB254
:10765000BD4B1A70C04B1B88002B36D1BF4B9B7D96
:10766000181CBF4B9847031C1A1CBE4B1A80BE4BFC
:107670001A88BC4B1B889A4203D9BC4B1B88082B29
:1076800008D1B94B1A88BA4B9A421ED9B74B1B88FE
:10769000082B1AD10120AD4B98470220AC4B9847DC
:1076A000031C002B03D1AB4B07221A7005E0A94B3A
:1076B0000E221A70AF4B14221A80A34B1B780222A1
:1076C0009343DAB2A04B1A70A1E0A0E0AA4B1B785A
:1076D000002B03D0A94B1B78002B3FD100209C4BE3
:1076E0009847031C002B06D19A4B07221A70A14B16
:1076F00000221A802AE09D4B1B88012B20D1A04B31
:107700001B78002B06D0934B07221A7001208F4B59
:1077100098471BE08F4B21221A7001208B4B984712
:10772000944B64221A80974B1B791A1C2823134010
:1077300003D0884B07221A7008E0934B984705E066
:10774000844B0F221A708B4B14221A807E4B1B78AD
:1077500002229343DAB27C4B1A7057E002207C4B32
:107760009847031C002B0DD17B4B1B88002B09D1A4
:10777000784B07221A707F4B00221A800120734B2E
:10778000984743E0704B1B781A1C022313403DD0EE
:107790006D4B1B7802229343DAB26B4B1A700120B7
:1077A0006A4B984702206A4B9847031C002B06D16E
:1077B000684B07221A706F4B00221A801EE06B4B39
:1077C0001B88012B14D16E4B1B78002B06D0614B0C
:1077D00007221A7001205D4B98470FE05D4B222273
:1077E0001A700120594B9847624B1E221A8005E0FF
:1077F000584B0F221A705F4B14221A80524B1B7881
:1078000002229343DAB2504B1A70FFE7C04601F0F0
:10781000FDFA4D4B1B781A1C0223134003D1554B24
:107820001B88002B14D10120484B9847514B002254
:107830001A80454B1B7802229343DAB2424B1A70EE
:107840000020434B9847434B18221A7001F0DFFA8F
:1078500001F0DDFA4D4B1B78012B2FD0042B2DD0DE
:10786000002B3ED14A4B1B78012B03D0484B1B7891
:10787000042B12D10120354B9847434B98473D4B81
:107880001E221A80304B1B7802229343DAB22E4B11
:107890001A70304B24221A7035E001202B4B984788
:1078A000344B00221A80284B1B7802221343DAB291
:1078B000254B1A70274B24221A7024E00120234BF9
:1078C0009847314B98472B4B1E221A801E4B1B7832
:1078D00002229343DAB21C4B1A701E4B24221A70F8
:1078E00011E00120194B9847224B00221A80164BB9
:1078F0001B7802221343DAB2134B1A70154B242261
:107900001A7001F084FA01F082FA0F4B1B781A1CEE
:107910000223134003D11F4B1B88002B11D10120E0
:107920000A4B98470B4B20221A70124B0A221A80DE
:10793000054B1B7802229343DAB2034B1A7001F015
:1079400066FA01F064FAC046EA2E0020A59A00000B
:10795000A1690000BF2E0020B22E0020B42F00200D
:1079600075940000DC2E0020BE040020CC2E0020E8
:1079700045030000C03600206430002001000020D4
:10798000B104002090360020B99B0000AE04002016
:10799000AF040020DE2E0020B84B1B78BC1D181C45
:1079A000B74B9847031C2380BB1D1B885F2B0DD84A
:1079B000B24B1E221A70B34B00221A80B24B1B78B6
:1079C00002229343DAB2B04B1A7019E0AE4B1B7827
:1079D0001A1C0223134013D0AC4B1B79042213430F
:1079E000DAB2AA4B1A71A94B1B7980225242134377
:1079F000DAB2A64B1A71A14B08221A7001F007FAED
:107A000001F005FA0020A24B984701F000FA00208F
:107A10009F4B98479F4B1B78002B07D09B4B9B7825
:107A2000802252421343DAB2984B9A70974B1B79DB
:107A300010229343DAB2954B1A71944B1B791A1C9E
:107A40000823134008D18D4B00221A703B1C0E33C3
:107A500001221A7001F0DBF901F0D9F93B1C0E3359
:107A600000221A70894B1B791A1C0823134006D177
:107A7000824B09221A703B1C0E3301221A703B1CE8
:107A80000E331B78002B53D1834B1B88002B08D05F
:107A9000814B1B881BB2012B0AD1804B1B88002B0A
:107AA00006D17A4B1B7902229343DAB2774B1A71D3
:107AB0007A4B1B88002B0AD0774B1B88002B06D0F3
:107AC000774B1B88002B02D1754B01221A80734B18
:107AD0001B88002B2CD0704B1B88002B28D0704BA0
:107AE0001B88132B24D9694B1B791A1C02231340C2
:107AF0001ED13B1C0E3301221A70644B1B790222EB
:107B00001343DAB2614B1A715C4B11221A70654B48
:107B100098475C4B64221A805B4B1B78022293438C
:107B2000DAB2594B1A70604B00221A7001F06FF9EB
:107B300001F06DF9544B1B781A1C0223134007D136
:107B40005A4B1B78002B03D0594B1B78002B11D1BB
:107B50004C4B0A221A804C4B1B7802229343DAB218
:107B6000494B1A7001204A4B9847444B22221A7005
:107B700001F04DF901F04BF9404B1B78BC1D181C6E
:107B80003F4B9847031C2380BB1D1B88602B04D9E7
:107B90003A4B07221A7001F03AF93B4B1B781A1C3A
:107BA0000223134012D00120394B9847374B1B79E1
:107BB0001A1C0823134003D0304B19221A7005E019
:107BC0002E4B0B221A702F4B0A221A802E4B1B7839
:107BD00002229343DAB22C4B1A7001F018F92B4BA6
:107BE0001B791A1C0823134003D0244B19221A7046
:107BF0009EE0264B1B791A1C0423134062D0224BB3
:107C00001B781A1C0223134000D191E01B4B1B78F8
:107C1000BC1D181C1A4B9847031C2380BB1D1B88D6
:107C2000602B03D9154B07221A701EE0214B984791
:107C3000164B1B7904229343DAB2144B1A710F4B83
:107C40000B221A700120124B98470E4B64221A80A7
:107C5000194B00221A70194B00221A70184B5B7EC8
:107C6000012B02D1144B0A221A70074B1B780222F7
:107C70009343DAB2044B1A7001F0C9F8BF2E00200A
:107C800051680000C0360020EA2E00209036002007
:107C9000A59A0000B1040020663000206C3000205E
:107CA000EE2E0020759C0000B204002064300020FD
:107CB00001000020718E0000B6040020B7040020EF
:107CC000B42F0020D14B00221A80D14B1B88002BEF
:107CD00008D0CF4B1B881BB2012B0AD1CD4B1B8880
:107CE000002B06D1CC4B1B7902229343DAB2CA4B4C
:107CF0001A71CA4B00221A700020C94B9847031C06
:107D00001A1CC84B1A80C84B1B781A1C022313403C
:107D100009D0C54B1B7802229343DAB2C24B1A70CA
:107D2000C24B09221A70C24B00221A8001F06FF870
:107D300001F06DF83B1C0E3300221A70BB4B1B7810
:107D4000BC1D181CBB4B9847031C2380BB1D1B8804
:107D5000602B22D90120B84B9847B84B0A221A80D1
:107D6000B24B1B78092B0AD1B54B9847B34B142261
:107D70001A80B44B4B221A80B34B03221A70AA4BC1
:107D80001B7802229343DAB2A74B1A70A74B1F222B
:107D90001A703B1C0E3301221A709F4B1B791A1C60
:107DA0000823134006D0A14B19221A703B1C0E3336
:107DB00001221A70964B1B88002B08D0944B1B880D
:107DC0001BB2012B0AD1934B1B88002B06D1924B7F
:107DD0001B7902229343DAB28F4B1A718D4B1B88A9
:107DE000002B0AD08A4B1B88002B06D0974B1B8890
:107DF000002B02D1954B01221A80864B1B88002B49
:107E00002FD0834B1B88002B2BD03B1C0E331B78B1
:107E1000002B26D18D4B1B88132B22D97E4B1B792F
:107E20001A1C022313401CD13B1C0E3301221A7072
:107E3000794B1B7902221343DAB2774B1A717B4BD1
:107E400011221A70824B98477C4B64221A80764B21
:107E50001B7802229343DAB2734B1A706F4B0022E5
:107E60001A707C4B1B781A1C0123134006D16A4BF5
:107E70001B7910229343DAB2674B1A713B1C0E3305
:107E80001B78002B2FD1734B1B781A1C0123134036
:107E900029D0614B1B791A1C1023134023D13B1CA2
:107EA0000E3301221A705C4B1B7910221343DAB295
:107EB000594B1A715D4B14221A70674B1B78092BB2
:107EC00005D8654B1B780133DAB2634B1A70604BEF
:107ED00098475A4B64221A80534B1B7802229343D3
:107EE000DAB2514B1A703B1C0E331B78002B6AD14F
:107EF00000204B4B9847031C1A1C4A4B1A80574BC7
:107F0000DA7E3B1C0A331A803B1C0A331B88092B80
:107F100003D93B1C0A3300221A803A1C0A323B1C4C
:107F20000A331B88191CC900CB18191CC800191C5E
:107F3000031CCB1813803B1C0A333A1C0A321288EC
:107F40008021C90052181A803B1C0A331A88444BFE
:107F50001B8812B21BB2101C01211A1C414B9847FE
:107F6000031C002B2AD02D4B1B780133DAB22B4B8C
:107F70001A703B1C0E3301221A70284B03221A7010
:107F80002A4B0A221A70344B1B78092B05D8324B26
:107F90001B780133DAB2304B1A702D4B98471F4BC8
:107FA00000221A70254B64221A801F4B1B78022274
:107FB0009343DAB21C4B1A7000F029FF174B0022D2
:107FC0001A7000F024FF154B00221A7000F01FFFFA
:107FD0003B1C0E3300221A70234B1B78002B64D1FC
:107FE0003B1C0E331B78002B5FD13B1C0E33012250
:107FF0001A700120104B984701201C4B9847031C16
:10800000002B35D1094B07221A704EE0E22E0020DA
:10801000663000206C30002090360020B204002032
:108020007D900000C42E0020EA2E0020BF2E0020EC
:10803000DA2E002051680000A59A0000C03600200A
:10804000B99B0000DE2E0020AE040020EE2E0020A2
:10805000759C0000182F0020B6040020B42F0020CB
:10806000F02E00207D5B00006E300020A169000032
:10807000C74B00221A70C74B0D221A70C64B1B78D3
:1080800010229343DAB2C44B1A70C44B00221A80F8
:10809000C34B1B78002B04D0C24B8022D2001A8025
:1080A00003E0C14B1A88BF4B1A80BB4B1B781A1CCC
:1080B000022313402ED03B1C0E331B78002B29D1FA
:1080C000B54B1B7802229343DAB2B34B1A700120EE
:1080D000B64B98473B1C0E3301221A700220B44B5A
:1080E0009847031C002B06D1AA4B07221A70B14BEC
:1080F00000221A8007E0B04B9847AE4B64221A80EA
:10810000A44B17221A70A44B1B7802229343DAB2B5
:10811000A14B1A70A94B1B88002B00D0ABE03B1C75
:108120000E331B78002B00D0A5E00120A44B98470C
:10813000031C1A1CA34B1A80A34B9847031C1A1C40
:10814000A24B1A80A24B5B7E002B19D1A14B1B784E
:10815000012B06D80220A04B9847031C1A1C9B4BEE
:108160001A809C4B1B78022B0AD1994B9B7D5B0894
:10817000DBB2181C984B9847031C1A1C934B1A80AF
:1081800002208F4B9847031C1A1C944B1A80944B67
:108190009847031C1A1C934B1A808D4B5B7E002B57
:1081A00019D18C4B1B78012B06D802208E4B984797
:1081B000031C1A1C8B4B1A80864B1B78022B0AD18E
:1081C000834B9B7D5B08DBB2181C874B9847031CD5
:1081D0001A1C844B1A807B4B1A887C4B1B889A4252
:1081E00049D90120714B98477A4B1B78092B05D848
:1081F000784B1B780133DAB2764B1A7002206C4B45
:108200009847031C002B11D13B1C0E3301221A701E
:10821000604B07221A70674B00221A805E4B1B7856
:1082200002229343DAB25C4B1A7024E03B1C0E33FB
:1082300001221A70564B00221A70564B0D221A70EA
:10824000554B1B7810229343DAB2534B1A70534BA1
:1082500000221A80654B1A88654B1A80504B1B7898
:10826000002B04D04F4B8022D2001A8003E04E4BEB
:108270001A884C4B1A803B1C0E331B78002B60D1A4
:1082800001205C4B9847031C1A1C5B4B1A80504B17
:10829000DA7E3B1C0A331A803B1C0A331B88092BED
:1082A00003D93B1C0A3300221A803A1C0A323B1CB9
:1082B0000A331B88191CC900CB18191CC800191CCB
:1082C000031CCB1813803B1C0A333A1C0A32128859
:1082D0004A4812181A803B1C0A331A88484B1B88DC
:1082E00012B21BB2101C02211A1C464B9847031CE9
:1082F000002B23D0264B1B780133DAB2244B1A70A3
:10830000234B1B78032B1CD93B1C0E3301221A7004
:108310001F4B00221A700120244B9847264B984788
:10832000244B64221A801B4B10221A701A4B1B78A4
:1083300002229343DAB2184B1A7002E0144B002267
:108340001A703B1C0E3300221A70134B1B781A1C38
:108350000223134067D03B1C0E331B78002B62D1E5
:108360000D4B1B7802229343DAB20B4B1A7001209B
:108370000E4B98473B1C0E3301221A7002200C4B07
:108380009847031C002B3FD1024B07221A7043E091
:10839000B2040020BF2E0020EA2E0020D02E0020A4
:1083A000AA040020A60400209E1E0020A59A00001A
:1083B000A1690000C0360020B99B0000B22E002049
:1083C000E5B30000A62E00209D900000AA2E0020FC
:1083D000B42F0020B704002075940000E62E002082
:1083E000ED910000AC2E0020F1940000F22E002050
:1083F000C22E00207D900000C42E00203303000018
:10840000F02E00207D5B0000D54B9847D54B6422B1
:108410001A80D54B17221A70D44B1B780222934333
:10842000DAB2D24B1A703B1C0E331B78002B5ED194
:108430000120CF4B9847031C1A1CCE4B1A80CE4B01
:10844000DA7E3B1C0A331A803B1C0A331B88092B3B
:1084500003D93B1C0A3300221A803A1C0A323B1C07
:108460000A331B88191CC900CB18191CC800191C19
:10847000031CCB1813803B1C0A333A1C0A321288A7
:10848000BE4952181A803B1C0A331A88BC4B1B8801
:1084900012B21BB2101C02211A1CBA4B9847031CC3
:1084A000002B1FD0B84B1B780133DAB2B64B1A70D1
:1084B0003B1C0E3301221A70B34B00221A700120AC
:1084C000B24B9847A64B9847A64B64221A80A64BFE
:1084D00010221A70A54B1B7802229343DAB2A34BE9
:1084E0001A7004E0A84B00221A7000F090FC00F013
:1084F0008EFC3B1C0E3300221A70A54B1B78002B00
:1085000003D0A44B1B78002B1ED13B1C0E331B78D1
:10851000002B19D13B1C0E3301221A7000209E4BF8
:108520009847031C002B06D18F4B07221A708D4BE6
:1085300000221A8008E08C4B0B221A700120934B0A
:108540009847884B0A221A80884B1B781A1C0223F2
:10855000134027D03B1C0E331B78002B22D13B1C31
:108560000E3301221A70814B1B7802229343DAB238
:108570007E4B1A700120854B98470220864B984706
:10858000031C002B06D1784B07221A70754B002272
:108590001A8007E0724B9847724B64221A80724B24
:1085A00017221A703B1C0E331B78002B00D07AE088
:1085B0007A4B1B78002B00D075E06C4B1B781A1C93
:1085C0001023134000D16EE0684B1B7810229343B8
:1085D000DAB2664B1A700120654B9847031C9AB2B9
:1085E0006F4B1A806E4B1A886E4B1B889A4239D299
:1085F0006C4B1A886A4B1B88D31A9AB26A4B1A8042
:10860000694B1A88694B9A424DD9654B1B88181CD7
:10861000674B9847031C1A1C664B1A80654B1B88D6
:10862000181C654B9847031C1A1C7B1D1A707B1D78
:108630001B789AB2614B1B88D3189AB25F4B1A8091
:108640005E4B1A885E4B9A422DD87B1D1B789AB2DE
:108650005C4B1A805C4B9847514B1A88514B1A80DF
:1086600000F0D5FB4E4B1A884E4B1B88D31A9AB29A
:108670004D4B1A804C4B1A884C4B9A4213D9424BA3
:1086800000221A70384B0A221A70384B1B781022BD
:108690009343DAB2354B1A704C4B00221A804C4B84
:1086A000984700F0B4FB00F0B2FB4A4B00221A805E
:1086B000374B1B78002B03D0364B1B78002B31D166
:1086C0000120324B98470020334B9847031C002B66
:1086D00006D1254B07221A70224B00221A8019E07E
:1086E000204B14221A80204B1B78172B02D11D4BD4
:1086F00096221A801C4B0B221A70374B1B781A1CBF
:108700000123134006D1354B1B7910229343DAB273
:10871000324B1A71154B1B7802229343DAB2134B7A
:108720001A707FE0114B1B781A1C0223134000D1F2
:1087300078E00E4B1B7802229343DAB20B4B1A708F
:108740000120124B98470220134B9847031C002B23
:1087500046D1054B07221A70024B00221A8059E0BD
:10876000B99B0000C0360020BF2E0020EA2E00205A
:108770007D900000C42E0020B42F002033030000A1
:10878000F02E00207D5B0000B2040020A59A0000BE
:108790006430002001000020A1690000AE04002028
:1087A000C82E0020C22E0020BA2E0020660600002F
:1087B0003D930000B82E00201D640000DA2E00203A
:1087C000E7030000DE2E0020559B0000D02E002085
:1087D0004D9D0000EE2E0020182F00209036002026
:1087E000CD4B14221A80CD4B1B78172B02D1CA4BCC
:1087F00096221A80C94B0B221A70C94B1B781A1C7F
:108800000123134006D1C74B1B7910229343DAB2E0
:10881000C44B1A71C44B1B7802229343DAB2C24B89
:108820001A70F4E2F3E2BF4B1B7902221343DAB26F
:10883000BC4B1A71BD4B1B88002B08D0BB4B1B884F
:108840001BB2012B1DD1BA4B1B88002B19D13B1C2D
:108850000E3301221A70B74B9847AF4B64221A802F
:10886000AE4B13221A70B04B1B7802229343DAB23C
:10887000AD4B1A70AB4B1B7902229343DAB2A94B72
:108880001A71A94B1B781A1C022313402ED03B1CD3
:108890000E331B78002B29D13B1C0E3301221A709A
:1088A000A14B1B7802229343DAB29F4B1A7001202E
:1088B000A14B98470220A14B9847031C002B06D1DF
:1088C000964B07221A70944B00221A800EE0994BA7
:1088D0009847914B64221A80904B13221A70924B46
:1088E0001B7802229343DAB28F4B1A70944B1B7899
:1088F000002B22D13B1C0E331B78002B1DD13B1CBF
:108900000E3301221A7001208C4B9847031C002B58
:1089100006D1824B07221A707F4B00221A8005E095
:108920000120854B98477D4B12221A707E4B1B7895
:1089300002229343DAB27C4B1A70824B1B88002BC5
:108940003FD13B1C0E331B78002B3AD101207E4BCC
:108950009847031C1A1C7D4B1A807D4B9847031CBB
:108960001A1C7C4B1A800220774B9847031C1A1C58
:10897000794B1A80794B9847031C1A1C784B1A8044
:10898000724B1A88734B1B889A421AD901206A4B82
:1089900098470220694B9847031C002B06D15F4B78
:1089A00007221A705C4B00221A8002E05B4B1222F5
:1089B0001A705D4B1B7802229343DAB25A4B1A703D
:1089C00025E224E23B1C0E3300221A70554B1B7922
:1089D00002221343DAB2534B1A71544B1B88002BFB
:1089E00008D0524B1B881BB2012B1DD1504B1B884A
:1089F000002B19D13B1C0E3301221A704D4B9847A6
:108A0000454B64221A80454B13221A70464B1B7843
:108A100002229343DAB2444B1A70424B1B79022272
:108A20009343DAB23F4B1A713B1C0E331B78002B79
:108A300024D13B1C09331A78012313401ED0494B23
:108A40001B881BB2012B19D13B1C0E3301221A705B
:108A5000354B1B7808229343DAB2334B1A70354BEF
:108A600098472D4B64221A802C4B13221A702E4BE0
:108A70001B7802229343DAB22B4B1A703B1C0E3345
:108A80001B78002B20D1264B1B781A1C0223134085
:108A90001AD03B1C0E3301221A70234B1B7808227C
:108AA0009343DAB2204B1A70224B98471A4B642238
:108AB0001A801A4B13221A701B4B1B780222934305
:108AC000DAB2194B1A70A2E1A1E1174B1B781A1CFC
:108AD0000223134057D03B1C0E331B78002B52D17E
:108AE0003B1C0E3301221A700F4B1B78022293435A
:108AF000DAB20D4B1A7001200F4B984702200F4B32
:108B00009847031C002B2FD1044B07221A70024BED
:108B100000221A8037E0C046C0360020BF2E002059
:108B2000182F002090360020EA2E0020663000200A
:108B30006C300020B99B0000A59A0000A1690000DC
:108B40006E300020B22E0020E5B30000A62E0020DB
:108B500079950000AA2E0020E62E00201596000030
:108B6000AC2E00206A300020AB4B9847AB4B642200
:108B70001A80AB4B16221A70AA4B1B780222934321
:108B8000DAB2A84B1A70A84B1B78002B22D13B1CE1
:108B90000E331B78002B1DD13B1C0E3301221A70A3
:108BA0000120A24B9847031C002B06D19C4B0822A6
:108BB0001A709A4B00221A8005E001209C4B9847BE
:108BC000974B15221A70974B1B7802229343DAB207
:108BD000944B1A70974B1B88002B00D085E03B1CF0
