:10000000D03D0020199D00009D9D0000F19C000046
:1000100000000000000000000000000000000000E0
:10002000000000000000000000000000A59D00008E
:100030000000000000000000A59D0000A59D00003C
:10004000A59D0000A59D0000A59D0000A59D0000A8
:1000500005060000A59D0000A59D0000218500006B
:1000600035850000498500005D8500007185000030
:1000700085850000790C00008D0C0000A10C0000AB
:10008000B50C0000C90C0000DD0C0000F10C0000F4
:10009000050D0000A59D0000A59D0000A59D000088
:1000A000A59D000010B5064C2378002B07D1054B09
:1000B000002B02D0044800E000BF0123237010BDD4
:1000C00084050020000000002C07010008B5084B43
:1000D000002B03D00748084900E000BF0748036829
:1000E000002B03D0064B002B00D0984708BDC0461C
:1000F000000000002C070100880500202C070100EB
:100100000000000080B582B000AF78607B6880227C
:100110001A707B6800225A707B6801229A707B6893
:100120000022DA70BD4602B080BDC04680B584B002
:1001300000AF021CFB1D1A703B1C0F33FA1D127816
:1001400052091A703B1C0F331B78002B0BD1084B44
:10015000BB603B1C0F331B789B001022D219D318B5
:10016000083B1B6800E00023181CBD4604B080BD9E
:100170000018004080B582B000AF0F4B3B600023F9
:100180007B6011E07B689B000822D219D318083BE2
:100190001B685B78DBB2DBB25BB2002B01DA0123B8
:1001A00006E07B6801337B607B68002BEAD000238C
:1001B000181CBD4602B080BD0018004080B582B05A
:1001C00000AF78607B6800221A70BD4602B080BD27
:1001D00080B582B000AF021C3960FB1D1A70FB1D98
:1001E0001B78012B0AD0022B0FD0002B14D10E4B01
:1001F0000D4A91693A680A439A610FE00A4B0A4A2C
:10020000D1693A680A43DA6108E0074B064A116A85
:100210003A680A431A6201E0172300E00023181C21
:10022000BD4602B080BDC0460004004080B582B02B
:1002300000AF021CFB1D1A70064BFA1D1278111C30
:100240001F220A400121081C9040021C1A60BD4672
:1002500002B080BD00E100E080B584B000AF2C4B5F
:100260007B60002040212B4B98473B1C181C2A4BDD
:1002700098473B1C00221A703B1C0320191C274B7B
:1002800098470320264B98470023FB6016E0FB6845
:100290009B001021C919CB180C3B1A68FB689B0006
:1002A0001021C919CB180C3B1B681B78DBB201214C
:1002B0000B43DBB21370FB680133FB60FB68002B60
:1002C000E5D0C046174B9847031C002BFAD13B1CC6
:1002D0000B3300221A700DE03B1C0B331A78124BC3
:1002E00092000021D1503B1C0B331A783B1C0B337E
:1002F00001321A703B1C0B331B780F2BECD90420F6
:100300000A4B98470A4B9847BD4604B080BDC0468B
:1003100000180040D1010000BD010000BD9900009F
:10032000FD99000075010000380600202D02000034
:100330003503000080B582B000AF144B3B60002352
:100340007B6016E07B689B000821C919CB18083B2D
:100350001A687B689B000821C919CB18083B1B68E9
:100360001B78DBB202210B43DBB213707B680133D5
:100370007B607B68002BE5D0C046054B9847031C8B
:10038000002BFAD1BD4602B080BDC0460018004027
:100390007501000090B587B000AF021C3960FB1DED
:1003A0001A703B1C0833181C374B98473B685B6836
:1003B000DAB23B1C08331A703B1C083300225A7017
:1003C0003B681A7A3B1C08339A703B681B68DAB2A8
:1003D0003B1C0833101C191C2C4B9847FB1D1B7829
:1003E000181C2B4B9847031C3B61FB1D1A780723F5
:1003F00013409B00FB603B68DB7A7B613B689B7A28
:10040000002B03D07B69082213437B61FB1D1B7803
:10041000DB08DBB21A1CFB1D1B78DB08DBB2191CE6
:100420003B6906318900CB58F9680F20041C8C40C9
:10043000211CC9431940FB687869041C9C40231C9B
:1004400019433B6906329200D1503B685B7A002B1E
:100450000BD03B695A69FB1D1B780121081C984091
:10046000031C1A433B695A610BE03B695B69FA1D47
:10047000127801210C1C9440221CD2431A403B6983
:100480005A61BD4607B090BD05010000999C00006F
:100490002D01000080B584B000AF021CFB1D1A7056
:1004A0003B1C0F33FA1D127852091A703B1C0F3394
:1004B0001B78002B0BD1084BBB603B1C0F331B7808
:1004C0009B001022D219D318083B1B6800E00023C0
:1004D000181CBD4604B080BD0018004080B584B033
:1004E00000AF021CFB1D1A70FB1D1B78181C0C4B67
:1004F0009847031CFB60FB1D1A781F231340012241
:10050000111C99400B1CBB60FB681B69BA68134047
:100510005A1E9341DBB2181CBD4604B080BDC046D4
:100520009504000080B584B000AF021CFB1D1A705A
:10053000FB1D1B78181C094B9847031CFB60FB1D17
:100540001A781F2313400122111C99400B1CBB6019
:10055000FB68BA681A61BD4604B080BD950400000E
:1005600080B582B000AF7860FB1C1970BB1C1A709C
:10057000BB1C1B78002B01D0172319E0FB1C1A7839
:100580000D4B9200D358002B07D1FB1C1A780A4B55
:1005900092007968D15000230AE0FB1C1A78064BC0
:1005A0009200D2587B689A4201D1002300E01D23BB
:1005B000181CBD4602B080BD3806002080B584B04E
:1005C00000AF0A1CFB1D011C1970BB1D1A70BB1D5E
:1005D0001B78002B0ED1FB1D1B78181C084B98476D
:1005E000031CFB60FB1D1B7801229A40FB68DA604C
:1005F000002300E01723181CBD4604B080BDC04690
:100600009504000080B500AF154B00221A7021E060
:10061000134B1B78181C134B9847031C002B13D04B
:100620000F4B1B78181C104B98470D4B1B781A1C4E
:100630000E4B9200D358002B06D0094B1B781A1C86
:100640000A4B9200D3589847054B1B780133DAB216
:10065000034B1A70024B1B780F2BD9D9BD4680BDB6
:1006600078060020DD040000250500003806002083
:1006700080B582B000AF78607B6800221A70BD46FA
:1006800002B080BD80B582B000AF021C3960FB1D96
:100690001A70FB1D1B78012B0AD0022B0FD0002BE8
:1006A00014D10E4B0D4A91693A680A439A610FE0E2
:1006B0000A4B0A4AD1693A680A43DA6108E0074BF3
:1006C000064A116A3A680A431A6201E0172300E0F9
:1006D0000023181CBD4602B080BDC0460004004087
:1006E00080B582B000AF78607B6880221A707B682A
:1006F00000225A707B6801229A707B680022DA70AF
:10070000BD4602B080BDC04680B584B000AF786001
:100710007B681B68FB60FB68DB7BDBB21A1C8023F9
:1007200013405A1E9341DBB2181CBD4604B080BD75
:1007300090B58DB000AF78603B1C0C330F4A13CAE4
:1007400013C313CA13C303CA03C30023FB620DE020
:100750003B1C0C33FA6A9200D2587B689A4202D151
:10076000FB6ADBB206E0FB6A0133FB62FB6A072B24
:10077000EED90023181CBD460DB090BD24D1000059
:1007800090B58FB000AFF860B9607A603B1C36332B
:1007900000221A803B1C353300221A703B1C343374
:1007A00000221A703C1C3134BB68181CC44B98479B
:1007B000031C23703A1C2832C24B111C1A1C08233C
:1007C000081C111C1A1CC04B98473A1C1832BF4B0E
:1007D000111C1A1C1023081C111C1A1CBA4B984718
:1007E0003B1C333300221A700EE03B1C33331A7863
:1007F000FB68023292000021D1503B1C33331A783F
:100800003B1C333301321A703B1C33331B78032BF0
:10081000EBD9FB6800221A76FB6800225A763B1C53
:1008200031331A78AA4B9200F968D150FB68BA6844
:100830001A607B689B78082B07D13B1C31331A78F0
:100840000123134001D01723D5E17B689A78FB6818
:100850001A71BB681B889BB21A1C0123134001D07C
:100860000523C8E1BB68DB7BDBB21A1C10231340F5
:1008700001D01C23BFE1BB681B889BB21A1C02235A
:10088000134001D01C23B6E17B681B7C002B17D0E2
:100890003B1C1433181C8F4B98477B689B69DAB25A
:1008A0003B1C14331A703B1C143301225A707B68B2
:1008B0005B69DAB23B1C1433101C191C864B984739
:1008C0007B681B7F002B17D03B1C1433181C814BFB
:1008D00098477B685B6ADAB23B1C14331A703B1C86
:1008E000143301225A707B681B6ADAB23B1C143342
:1008F000101C191C784B98473B1C31331A783B1C51
:1009000018335200D35A0220191C744B98477B6845
:100910009B78082B0BD13B1C31331B785A1C3B1C9A
:1009200018335200D35A0220191C6C4B98473B1CB9
:100930001033181C6A4B98477B681A783B1C10339D
:100940001A703B1C31331B783A1C2832D25C3B1C9A
:100950001033101C191C634B98473B1C31331B7818
:100960003A1C2832D35C181C5F4B98477B689A78F6
:100970007B689B791343DBB21A1C7B681B8913438A
:1009800099B27B689A883B1C36330A431A807B688D
:100990005B78002B09D03B1C36333A1C3632128868
:1009A000802109010A431A80FFE7C046FB68181C32
:1009B0004E4B9847031C002BF8D1BB683A1C3632CB
:1009C00012881A807B685B7B002B03D03B1C35337D
:1009D00004221A707B689B7B002B08D03B1C3533AC
:1009E0003A1C3532127801210A431A70FFE7C046DB
:1009F000FB68181C3D4B9847031C002BF8D1BB68C3
:100A0000FF221A713B1C35331B78002B0CD0C046DB
:100A1000FB68181C354B9847031C002BF8D1BB68AA
:100A20003A1C353212785A713B1C34337A68927A08
:100A30001A703B1C323300221A701DE03B1C32330B
:100A40001B787A68D318DB7A002B0ED03B1C32332C
:100A50001B781022111C99400B1CD9B23B1C34335B
:100A60003A1C343212780A431A703B1C32331A781B
:100A70003B1C323301321A703B1C32331B78012B82
:100A8000DCD9C046FB68181C184B9847031C002B88
:100A9000F8D1BB683A1C343212789A71C046FB68B0
:100AA000181C124B9847031C002BF8D1FB681B79CC
:100AB000042B1DD0082B00D176E0002B4ED099E0FE
:100AC0003107000044D10000EDCE00004CD1000001
:100AD0007C060020E1060000999C000085060000CD
:100AE00071060000BD990000FD9900000907000093
:100AF000C046FB68181C424B9847031C002BF8D1DA
:100B00007A682823D25CBB681A74C046FB68181C3C
:100B10003B4B9847031C002BF8D17A682923D25C01
:100B2000BB681A75C046FB68181C354B9847031CF8
:100B3000002BF8D17A682A23D25CBB681A76C046AB
:100B4000FB68181C2E4B9847031C002BF8D17A68C1
:100B50002B23D25CBB685A7600234CE0C046FB686E
:100B6000181C274B9847031C002BF8D17B681A8D63
:100B7000BB681A82C046FB68181C214B9847031CAF
:100B8000002BF8D17B685A8DBB681A83C046FB687E
:100B9000181C1B4B9847031C002BF8D17B689A8DBF
:100BA000BB685A83002326E0C046FB68181C144B20
:100BB0009847031C002BF8D17B689A6ABB681A61BE
:100BC000C046FB68181C0E4B9847031C002BF8D13D
:100BD0007B68DA6ABB689A61C046FB68181C084BE0
:100BE0009847031C002BF8D17B681A6BBB68DA614D
:100BF000002300E01723181CBD460FB090BDC0466F
:100C00000907000080B584B000AFF860B960FB1D33
:100C10001A70FB1D1A78FB6802329200B968D15035
:100C2000FB1D1B78022B07D1FB681B7E1022134390
:100C3000DAB2FB681A761AE0FB1D1B78032B07D18A
:100C4000FB681B7E20221343DAB2FB681A760EE0A3
:100C5000FB681B7EDAB2FB1D1B780121081C984043
:100C6000031CDBB21343DBB2DAB2FB681A76002353
:100C7000181CBD4604B080BD80B500AF0020024BFB
:100C80009847BD4680BDC046190D000080B500AF35
:100C90000120024B9847BD4680BDC046190D00009B
:100CA00080B500AF0220024B9847BD4680BDC046CC
:100CB000190D000080B500AF0320024B9847BD46D8
:100CC00080BDC046190D000080B500AF0420024B66
:100CD0009847BD4680BDC046190D000080B500AFE5
:100CE0000520024B9847BD4680BDC046190D000047
:100CF00080B500AF0620024B9847BD4680BDC04678
:100D0000190D000080B500AF0720024B9847BD4683
:100D100080BDC046190D000080B584B000AF021C34
:100D2000FB1D1A70FB1D1A78284B9200D358FB60EC
:100D3000FB681B689B7BDBB2FA68127E1340DAB259
:100D4000FB68597E3B1C0B330A401A703B1C0B336B
:100D50001A780123134008D0FB689B68FA68101CBE
:100D60009847FB681B6801229A733B1C0B331A7867
:100D70000223134008D0FB68DB68FA68101C984710
:100D8000FB681B6802229A733B1C0B331A781023F2
:100D9000134008D0FB681B69FA68101C9847FB6871
:100DA0001B6810229A733B1C0B331A7820231340C4
:100DB00008D0FB685B69FA68101C9847FB681B68E1
:100DC00020229A73BD4604B080BDC0467C06002038
:100DD00080B584B000AFF860B9607A60084B1B88BA
:100DE0009AB2FB681A80074B1B889AB2BB681A80BC
:100DF000054B1B889AB27B681A80BD4604B080BD43
:100E0000A0050020A2050020A405002080B584B024
:100E100000AF021CFB1D1A703B1C0F3300221A701E
:100E20003B1C0C3300221A70FB1D1B78802252429F
:100E30001343DAB23B1C0C33101C191C0122094B62
:100E40009847031C002B05D03B1C0F333A1C0C3277
:100E500012781A703B1C0F331B78181CBD4604B067
:100E600080BDC046E938000080B584B000AF0A1CE0
:100E7000FB1D011C1970BB1D1A703B1C0C33BA1DE5
:100E800012781A70FB1D1A783B1C0C33101C191CAD
:100E90000122024B9847BD4604B080BDE9380000EE
:100EA00080B500AF20204721024B98470123181C32
:100EB000BD4680BD690E000080B582B000AF474BD3
:100EC0009847031C002B00D185E0454B1B78092B6C
:100ED00002D9434B00221A702920424B9847031C29
:100EE0001A1CBB1D1A8028203E4B9847031C1A1C55
:100EF0003B1D1A80BB1DBA1D128812021A80BB1D31
:100F0000B91D3A1D098812880A431A80344B1B7890
:100F10001A1CBB1D1988344B5200D152BB1D1A88B4
:100F2000324B1A802B202F4B9847031C1A1CBB1DD9
:100F30001A802A202B4B9847031C1A1C3B1D1A8031
:100F4000BB1DBA1D128812021A80BB1DB91D3A1DA5
:100F5000098812880A431A80214B1B781A1CBB1D72
:100F60001988234B5200D152BB1D1A88214B1A807D
:100F70002D201C4B9847031C1A1CBB1D1A802C20CB
:100F8000184B9847031C1A1C3B1D1A80BB1DBA1D29
:100F9000128812021A80BB1DB91D3A1D09881288D9
:100FA0000A431A800E4B1B781A1CBB1D1988124B62
:100FB0005200D152BB1D1A88104B1A80084B1B7867
:100FC0000133DAB2064B1A70054B1B78092B02D994
:100FD000034B00221A70BD4602B080BD0110000014
:100FE000E40500200D0E0000A8050020A00500204B
:100FF000BC050020A2050020D0050020A40500208B
:1010000090B583B000AFFC1D2720084B9847031C08
:101010002370FB1D1A780823134001D0012300E040
:101020000023181CBD4603B090BDC0460D0E000045
:1010300090B585B000AF021C3960FB1D1A703B1CD7
:101040000F3300221A70FB1D19783A1C0A323B1C20
:101050000833081C111C1A1C3E4B9847031C002B1C
:1010600000D170E03B1C0A331A883B4B9A426AD885
:101070003B6820221A703B68013320221A703B68BB
:10108000023320221A703B1C0A331B88632B1FD9A2
:101090003B1C0A331A883C1C0C34304B101C642156
:1010A0009847031C23803B1C0C331B88642252424C
:1010B00053439AB23B1C0A331B88D3189AB23B1C89
:1010C0000A331A803B1C0C331B88DAB23B681A7057
:1010D0003B1C0A331B88092B03D83B681B78202B49
:1010E00020D03B1C0A331A883C1C0C341B4B101CB0
:1010F0000A219847031C23803B1C0C331B880A22BF
:10110000524253439AB23B1C0A331B88D3189AB2FB
:101110003B1C0A331A803B6801333A1C0C3212889C
:10112000D2B21A703B1C0C333A1C0A3212881A8055
:101130003B6802333A1C0C321288D2B21A703B1C44
:101140000F3303221A703B1C0F331B78181CBD464B
:1011500005B090BDB94C0000E703000011B10000DC
:1011600090B585B000AF021C3960FB1D1A703B1CA6
:101170000F3300221A70FB1D19783A1C0A323B1CEF
:101180000833081C111C1A1C3E4B9847031C002BEB
:1011900000D170E03B1C08331A883B4B9A426AD856
:1011A0003B6820221A703B68013320221A703B688A
:1011B000023320221A703B1C08331B88632B1FD973
:1011C0003B1C08331A883C1C0C34304B101C642127
:1011D0009847031C23803B1C0C331B88642252421B
:1011E00053439AB23B1C08331B88D3189AB23B1C5A
:1011F00008331A803B1C0C331B88DAB23B681A7028
:101200003B1C08331B88092B03D83B681B78202B19
:1012100020D03B1C08331A883C1C0C341B4B101C80
:101220000A219847031C23803B1C0C331B880A228D
:10123000524253439AB23B1C08331B88D3189AB2CC
:101240003B1C08331A803B6801333A1C0C3212886D
:10125000D2B21A703B1C0C333A1C083212881A8026
:101260003B6802333A1C0C321288D2B21A703B1C13
:101270000F3303221A703B1C0F331B78181CBD461A
:1012800005B090BDB94C0000E703000011B10000AB
:1012900090B587B000AFB84B1B780A2B00D993E20A
:1012A0009A00B64BD3181B689F463C1C1734B44BAE
:1012B0009847031C23703B1C17331A7804231340F0
:1012C00007D0B04B1B88002B03D10220AE4B9847B0
:1012D0001BE03B1C17331A780223134007D0AB4B9B
:1012E0001B88002B03D10420A74B98470DE03B1C23
:1012F00017331A780123134007D0A54B1B88002B06
:1013000003D10520A04B98475EE25DE23C1C1734F8
:101310009B4B9847031C23703B1C17331A780423FC
:10132000134007D0974B1B88002B03D10120964B0D
:1013300098474DE03B1C17331A780223134022D004
:10134000924B1B88002B1ED1924B9B78002B03D015
:10135000904B9B78092B03D98E4B09229A7005E09C
:101360008C4B9B78013BDAB28A4B9A70894B9B7805
:10137000181C2A21884B9847864B9B78181C0421FF
:10138000864B984724E03B1C17331A7801231340FF
:101390001ED07F4B1B88002B1AD17E4B9B78082BCD
:1013A00003D97C4B00229A7005E07A4B9B7801337D
:1013B000DAB2784B9A70774B9B78181C2A21764BBF
:1013C0009847744B9B78181C0421744B9847FBE199
:1013D000FAE13C1C17346A4B9847031C23703B1CF2
:1013E00017331A78042313401AD0664B1B88002B3E
:1013F00016D16B4B1B78002B02D0012B07D00AE0D3
:101400000320614B9847674B00221A7007E00120C8
:101410005D4B984703E005205B4B9847C0464CE086
:101420003B1C17331A78022313401ED0574B1B88DE
:10143000002B1AD1564B1B88002B06D00320524B91
:101440009847584B00221A7037E0554B1B78002BF9
:1014500005D0534B1B78013BDAB2514B1A70504BFD
:101460001B78181C504B984727E03B1C17331A7801
:101470000123134021D0464B1B88002B1DD1434B29
:101480001B88002B06D003203F4B9847454B00227A
:101490001A7012E0424B1B780133DAB2404B1A70DB
:1014A0003F4B1B78022B02D93D4B02221A703C4B5A
:1014B0001B78181C3C4B984786E185E13C1C17348F
:1014C0002F4B9847031C23703B1C17331A780423B7
:1014D000134007D02B4B1B88002B03D102202A4B33
:1014E00098470FE03B1C17331A780223134009D0AA
:1014F000264B1B88002B05D10720234B9847294BEF
:1015000000221A7060E13C1C17341D4B9847031CE5
:1015100023703B1C17331A78042313400CD0194B4B
:101520001B88002B08D10720174B98471F4B984763
:101530001C4B00221A701EE03B1C17331A78022342
:10154000134007D0114B1B88002B03D108200E4BF2
:10155000984710E03B1C17331A78012313400AD038
:101560000B4B1B88002B06D10320074B98470D4BD4
:1015700000221A7028E127E1E50500205CD1000077
:10158000AD3A0000FC06002001180000FA06002019
:10159000FE060020AC06002081350000091F000077
:1015A0009E0600209C06002059190000892000009A
:1015B0003C1C1734864B9847031C23703B1C173385
:1015C0001A78042313400BD0824B1B88002B07D1C1
:1015D000814B181C0121814B9847814B98471EE095
:1015E0003B1C17331A780223134007D07D4B1B880E
:1015F000002B03D109207C4B984710E03B1C17338C
:101600001A78012313400AD0784B1B88002B06D18F
:101610000320754B9847764B00221A70D4E0D3E034
:101620003C1C17346A4B9847031C23703B1C173330
:101630001A78042313400BD0664B1B88002B07D16C
:101640006C4B181C0121654B9847654B984722E06D
:101650003B1C17331A780223134007D0614B1B88B9
:10166000002B03D10A20604B984714E03B1C173332
:101670001A78012313400ED05C4B1B88002B0AD133
:101680005D4B08221A70544B181C0121534B98478C
:10169000534B984798E097E03C1C17344C4B9847C5
:1016A000031C23703B1C17331A780423134007D004
:1016B000484B1B88002B03D102204B4B98471BE063
:1016C0003B1C17331A780223134007D0454B1B8865
:1016D000002B03D10620444B98470DE03B1C1733E9
:1016E0001A780123134007D0404B1B88002B03D1ED
:1016F00001203D4B984767E066E03C1C1734344BB3
:101700009847031C23703B1C17331A78042313409B
:1017100007D0304B1B88002B03D10220324B984757
:101720001BE03B1C17331A780223134007D02D4BC4
:101730001B88002B03D105202B4B98470DE03B1C49
:1017400017331A780123134007D0284B1B88002B2E
:1017500003D10120244B984736E035E03C1C173478
:101760001B4B9847031C23703B1C17331A78042328
:10177000134009D0174B1B88002B05D11F4B181C99
:101780000121164B98471EE03B1C17331A780223A1
:10179000134004D0134B1B88002B00D113E03B1CDB
:1017A00017331A78012313400DD0104B1B88002BE0
:1017B00009D1114B09221A700E4B181C0121074B3D
:1017C0009847074B9847C046BD4607B090BDC046F6
:1017D000AD3A0000FC060020B0F10000094900000D
:1017E000E92B0000FA06002001180000FE06002088
:1017F0009C060020B0F50000E5050020B0FD0000CB
:1018000080B584B000AF021CFB1D1A703E4BFA1D60
:1018100012781A703C4B1B780A2B72D89A003B4BFB
:10182000D3181B689F463A4B181C0121394B984727
:10183000394B9B78181C0121384B984761E0384B95
:10184000181C0121334B9847334B9B78181C0421FB
:10185000324B984755E0334B01221A70324B181C1B
:1018600001212C4B98474CE0304B181C0121294B8F
:10187000984746E02E4B181C0121264B98472D4BCC
:1018800098473EE02C4B181C0121224B984738E02A
:101890003B1C0F3300221A700CE03B1C0F331B78EB
:1018A000264A0021D1543B1C0F331A783B1C0F33BE
:1018B00001321A703B1C0F331B78092BEDD9204BDA
:1018C000181C0121134B98471E4B984719E01E4BDB
:1018D000181C01210F4B98471A4B984711E01B4BDE
:1018E000181C01210B4B98470BE0194B181C0121C8
:1018F000084B984705200621164B9847C04600E044
:10190000C046BD4604B080BDE505002088D100007A
:1019100060DC000009490000AC060020091F00003F
:1019200060D800009E06002060E00000B0ED0000DE
:10193000B0F9000089200000B0FD0000A0060020E2
:10194000B0F10000E92B0000B0F5000060D4000009
:10195000B0010100451A000080B582B000AF021C42
:10196000FB1D1A70FB1D1B78002B02D0012B19D018
:1019700031E0274B0220191C0122264B9847264BA9
:101980000320191C0122234B9847244B0420191CC7
:101990000122204B9847224B0520191C01221D4B88
:1019A000984731E01F4B0220191C0122194B984720
:1019B0001D4B0320191C0122164B98471B4B04207A
:1019C000191C0122134B9847194B0520191C0122A1
:1019D000104B984718E0174B0220191C01220D4BA1
:1019E0009847154B0320191C01220A4B9847134BAB
:1019F0000420191C0122074B9847114B0520191C84
:101A00000122044B9847C046BD4602B080BDC04687
:101A100060E40000D1470000E0E4000060E5000061
:101A2000E0E5000060E60000E0E6000060E700009E
:101A3000E0E7000060E80000E0E8000060E9000086
:101A4000E0E9000090B58DB000AF0A1CFB1D011C41
:101A50001970BB1D1A70BB1D1B78062B00D048E205
:101A6000DA4B181C0121DA4B98473B1C213300222A
:101A70001A7038E23B1C21331B78012B17D002DC93
:101A8000002B05D040E0022B20D0032B2DD03BE0D3
:101A90003B1C22330B221A703C1C23343B1C0833A2
:101AA0000020191CCB4B9847031C23702CE03B1CD7
:101AB00022330B221A703C1C23343B1C08330120B8
:101AC000191CC44B9847031C23701DE03B1C223398
:101AD00050221A703C1C23343B1C08330220191C72
:101AE000BC4B9847031C23700EE03B1C2233502252
:101AF0001A703C1C23343B1C08330320191CB54BC3
:101B00009847031C2370C0463B1C23331B78002BD3
:101B100000D124E13B1C21331B78002B05D03B1C5A
:101B200021331B78022B00D019E13B1C203300220B
:101B30001A700BE13B1C20331A783B1C1F33391CF5
:101B400008318A5C1A703B1C1F331B78202B00D194
:101B5000EEE03B1C1F331A789F49131C5B009B1857
:101B60009B00CB1808331B68BB623B1C1F331A78E1
:101B70009949131C5B009B189B005B587B623B1CC4
:101B80002F3300221A7062E03B1C2F331B783A1C63
:101B90002F3212780C32FF328C49895C3A1C0C329D
:101BA000D1543B1C2F331B783A1C2F321278391C2E
:101BB0000C318A5C1F218A43D1B23A1C0C32D154B9
:101BC000BB6A5A1CBA623A1C1E321B7813703B1C4B
:101BD0002F331B783A1C1E321278D200D1B23A1C35
:101BE0000C32D1543B1C2F331B783A1C2F32127805
:101BF000391C0C318A5C07218A43D1B23A1C0C3261
:101C0000D1547B6A5A1C7A623A1C1E321B781370BC
:101C10003B1C1D333A1C1E32127852091A703B1CB1
:101C20002F331B783A1C2F321278391C0C31895C07
:101C30003A1C1D3212780A43D1B23A1C0C32D154EC
:101C40003B1C2F331A783B1C2F3301321A703B1C7C
:101C50002F331B78082B97D93B1C22331A783B1C57
:101C60000C33101C10211A1C09235C4CA0473B1C90
:101C70001F331A785849131C5B009B189B005B5854
:101C8000BB623B1C2F3300221A7041E03B1C2F33F8
:101C90001B783A1C2F3212780C32FF324B49895C88
:101CA0003A1C0C32D1543B1C2F331B783A1C2F3278
:101CB0001278391C0C31895C07220A40D1B23A1CD7
:101CC0000C32D154BB6A5A1CBA623A1C1E321B78C1
:101CD00013703B1C1E333A1C1E321278D2001A704D
:101CE0003B1C2F331B783A1C2F321278391C0C31D5
:101CF000895C3A1C1E3212780A43D1B23A1C0C326B
:101D0000D1543B1C2F331A783B1C2F3301321A70ED
:101D10003B1C2F331B78082BB8D93B1C22331A7875
:101D20003B1C0C33101C18211A1C09232B4CA047F8
:101D30003B1C22333A1C2232127808321A703B1CA8
:101D400020331A783B1C203301321A703A1C20329F
:101D50003B1C233312781B789A4200D2EAE63B1CE4
:101D600023331B78002B00D1B6E03B1C21331B78BA
:101D7000012B05D03B1C21331B78032B00D0ABE09B
:101D80003B1C203300221A709DE03B1C20331A7844
:101D90003B1C1F33391C08318A5C1A703B1C1F33F3
:101DA0001B78202B00D180E03B1C1F331A780A4996
:101DB000131C5B009B189B00CB1808331B68BB628D
:101DC0003B1C2F3300221A704DE0C046B0010100C9
:101DD0000949000031100000480000205D48000063
:101DE0003B1C2F331B783A1C2F3212784249521871
:101DF0004249895C3A1C0C32D1543B1C2F331B786E
:101E00003A1C2F321278391C0C318A5C1F218A430C
:101E1000D1B23A1C0C32D154BB6A5A1CBA623A1C79
:101E20001E321B7813703B1C1E333A1C1E32117875
:101E30001F220A401A703B1C2F331B783A1C2F328A
:101E40001278391C0C31895C3A1C1E3212780A4314
:101E5000D1B23A1C0C32D1543B1C2F331A783B1CA4
:101E60002F3301321A703B1C2F331B78082BB7D944
:101E70003B1C22331A783B1C0C33101C20211A1CEB
:101E800009231F4CA0473B1C1F331A781D49131C04
:101E90005B009B189B005B583A1C22321278101C86
:101EA00028211A1C0923164CA0473B1C22333A1C3C
:101EB0002232127808321A703B1C20331A783B1CED
:101EC000203301321A703A1C20323B1C2333127823
:101ED0001B789A4200D258E73B1C21331A783B1CEE
:101EE000213301321A703B1C21331B78032B00D89D
:101EF000C0E5BD460DB090BD0B020000B001010071
:101F00005D4800004800002090B589B000AF0A1C71
:101F1000FB1D011C1970BB1D1A70BB1D1B78042B07
:101F200031D1FB1D1B78092B2DD8FB1D1A78524986
:101F3000131C5B009B189B00CB1808331B683820D0
:101F400018211A1C0B234D4CA047FB1D1A784A4937
:101F5000131C5B009B189B005B58382020211A1C27
:101F60000B23464CA047FB1D1A784349131C5B000A
:101F70009B189B00CB1804331B68382028211A1C9F
:101F80000B233E4CA047BB1D1B78012B70D1FB1DC2
:101F90001B78092B6CD8FB1D1A783949131C5B0080
:101FA0009B189B00CB1808331B68BB613B1C1F337D
:101FB00000221A7041E03B1C1F331B783A1C1F3271
:101FC00012788C322F49895C3A1C0832D1543B1C60
:101FD0001F331B783A1C1F321278391C08318A5C77
:101FE0001F218A43D1B23A1C0832D154BB695A1C12
:101FF000BA613A1C17321B7813703B1C17333A1C1A
:10200000173211781F220A401A703B1C1F331B78AD
:102010003A1C1F321278391C0831895C3A1C17327D
:1020200012780A43D1B23A1C0832D1543B1C1F33F8
:102030001A783B1C1F3301321A703B1C1F331B786C
:10204000082BB8D93B1C08330C2008211A1C092383
:102050000A4CA047FB1D1A780949131C5B009B180A
:102060009B005B580C2010211A1C0923034CA0472D
:10207000BD4609B090BDC046C00000205D480000CC
:102080004800002060DC000090B585B000AFFA1C6D
:10209000BB1C101C191C744B9847744B1B781A1CE2
:1020A0000123134007D0724B182008211A1C052366
:1020B000704CA04706E0704B182008211A1C05231D
:1020C0006C4CA047694B1B781A1C0223134007D0A5
:1020D000674B1E2008211A1C0523664CA04706E00A
:1020E000654B1E2008211A1C0523624CA0475F4B3C
:1020F0001B781A1C0423134007D05D4B24200821B1
:102100001A1C05235B4CA04706E05B4B24200821EA
:102110001A1C0523574CA0473B1C0F33FA1C12789E
:102120001A703B1C0E333A1C0F3211780F220A40F2
:102130001A703B1C0F333A1C0F32127812091A70B6
:102140003B1C0D3330221A703B1C0F331A784B4B5B
:102150009200D3583A1C0D321278101C08211A1C18
:102160000523444CA0473B1C0D331B780633DAB2E1
:102170003B1C0E331978414B8900CB58101C0821A9
:102180001A1C05233B4CA0473B1C0F33BA1C12788A
:102190001A703B1C0E333A1C0F3211780F220A4082
:1021A0001A703B1C0F333A1C0F32127812091A7046
:1021B0003B1C0D3344221A703B1C0F331A782F4BF3
:1021C0009200D3583A1C0D321278101C08211A1CA8
:1021D0000523284CA0473B1C0D331B780633DAB28D
:1021E0003B1C0E331978254B8900CB58101C082155
:1021F0001A1C05231F4CA0471C4B9B781A1C01235B
:10220000134007D01A4B182018211A1C0523194C0B
:10221000A04706E0184B182018211A1C0523154C5E
:10222000A047124B9B781A1C0223134007D0104B77
:102230001E2018211A1C05230E4CA04706E00E4B49
:102240001E2018211A1C05230A4CA047074B9B7817
:102250001A1C0423134013D0054B242018211A1CE8
:102260000523044CA04712E0894C0000200C0020FC
:1022700060EA00005D480000A8EA000008000020B5
:10228000AF4B242018211A1C0523AE4CA0473B1C41
:102290000D3330221A703B1C0F33AB4AD27A1A70BE
:1022A0003B1C0E333A1C0F3211780F220A401A7071
:1022B0003B1C0F333A1C0F32127812091A703B1C68
:1022C0000F331A78A14B9200D3583A1C0D32127872
:1022D000101C18211A1C05239A4CA0473B1C0D33D7
:1022E0001B780633DAB23B1C0E331978974B890002
:1022F000CB58101C18211A1C0523924CA0473B1CDC
:102300000F33914A127B1A703B1C0E333A1C0F326A
:1023100011780F220A401A703B1C0F333A1C0F32FF
:10232000127812091A703B1C0D331B780C33DAB289
:102330003B1C0F331978854B8900CB58101C182192
:102340001A1C05237F4CA0473B1C0D331B7812330E
:10235000DAB23B1C0E3319787C4B8900CB58101C29
:1023600018211A1C0523774CA0473B1C0D334B2228
:102370001A703B1C0F33744A527B1A703B1C0E338D
:102380003A1C0F3211780F220A401A703B1C0F338F
:102390003A1C0F32127812091A703B1C0F331A784C
:1023A0006A4B9200D3583A1C0D321278101C182137
:1023B0001A1C0523634CA0473B1C0D331B780633C6
:1023C000DAB23B1C0E331978604B8900CB58101CD5
:1023D00018211A1C05235B4CA0473B1C0F335A4A9B
:1023E000927B1A703B1C0E333A1C0F3211780F226D
:1023F0000A401A703B1C0F333A1C0F321278120934
:102400001A703B1C0D331B780C33DAB23B1C0F33B4
:1024100019784E4B8900CB58101C18211A1C052323
:10242000484CA0473B1C0D331B781233DAB23B1CDF
:102430000E331978454B8900CB58101C18211A1CF3
:102440000523404CA0473B1C0D3369221A703B1CEE
:102450000F333D4AD27B1A703B1C0E333A1C0F32AD
:1024600011780F220A401A703B1C0F333A1C0F32AE
:10247000127812091A703B1C0F331A78334B9200F2
:10248000D3583A1C0D321278101C18211A1C05233F
:102490002C4CA0473B1C0D331B780633DAB23B1C97
:1024A0000E331978294B8900CB58101C18211A1C9F
:1024B0000523244CA0473B1C0F33234A127C1A707F
:1024C0003B1C0E333A1C0F3211780F220A401A704F
:1024D0003B1C0F333A1C0F32127812091A703B1C46
:1024E0000D331B780C33DAB23B1C0F331978174BC2
:1024F0008900CB58101C18211A1C0523114CA04729
:102500003B1C0D331B781233DAB23B1C0E331978A7
:102510000E4B8900CB58101C18211A1C0523094C9E
:10252000A0470B4BDB781A1C0123134014D0094B36
:10253000182020211A1C0523024CA04713E0C04696
:10254000A8EA00005D480000AC060020080000205A
:10255000200C002060EA0000F84B182020211A1CF3
:102560000523F74CA047391C0831BA1D3B1D081C38
:10257000111C1A1CF34B98473B1C0D3330221A7068
:102580003B1C08331A883B1C0A33120A1A803B1C76
:102590000F333A1C0A3212881A703B1C0E333A1C55
:1025A0000F3211780F220A401A703B1C0F333A1C6D
:1025B0000F32127812091A703B1C0F331A78E24B53
:1025C0009200D3583A1C0D321278101C20211A1C8C
:1025D0000523DB4CA0473B1C0D331B780633DAB2D6
:1025E0003B1C0E331978D84B8900CB58101C202186
:1025F0001A1C0523D24CA0473B1C083319883B1CEE
:102600000A330F220A401A803B1C0F333A1C0A324D
:1026100012881A703B1C0E333A1C0F3211780F22AD
:102620000A401A703B1C0F333A1C0F321278120901
:102630001A703B1C0D331B780C33DAB23B1C0F3382
:102640001978C14B8900CB58101C20211A1C052376
:10265000BB4CA0473B1C0D331B781233DAB23B1C3A
:102660000E331978B84B8900CB58101C20211A1C46
:102670000523B34CA0473B1C0D334B221A70BB1DE6
:102680001A883B1C0A33120A1A803B1C0F333A1C6F
:102690000A3212881A703B1C0E333A1C0F32117822
:1026A0000F220A401A703B1C0F333A1C0F3212786B
:1026B00012091A703B1C0F331A78A34B9200D3589F
:1026C0003A1C0D321278101C20211A1C05239C4C38
:1026D000A0473B1C0D331B780633DAB23B1C0E338C
:1026E0001978994B8900CB58101C20211A1C0523FE
:1026F000934CA047BB1D19883B1C0A330F220A408C
:102700001A803B1C0F333A1C0A3212881A703B1C89
:102710000E333A1C0F3211780F220A401A703B1CFC
:102720000F333A1C0F32127812091A703B1C0D330A
:102730001B780C33DAB23B1C0F331978824B8900BB
:10274000CB58101C20211A1C05237D4CA0473B1C94
:102750000D331B781233DAB23B1C0E3319787A4BE7
:102760008900CB58101C20211A1C0523744CA0474B
:102770003B1C0D3369221A703B1D1A883B1C0A331F
:10278000120A1A803B1C0F333A1C0A3212881A7044
:102790003B1C0E333A1C0F3211780F220A401A707C
:1027A0003B1C0F333A1C0F32127812091A703B1C73
:1027B0000F331A78644B9200D3583A1C0D321278BA
:1027C000101C20211A1C05235D4CA0473B1C0D3317
:1027D0001B780633DAB23B1C0E3319785A4B89004A
:1027E000CB58101C20211A1C0523554CA0473B1D1B
:1027F00019883B1C0A330F220A401A803B1C0F33F6
:102800003A1C0A3212881A703B1C0E333A1C0F32E3
:1028100011780F220A401A703B1C0F333A1C0F32FA
:10282000127812091A703B1C0D331B780C33DAB284
:102830003B1C0F331978444B8900CB58101C2021C6
:102840001A1C05233E4CA0473B1C0D331B7812334A
:10285000DAB23B1C0E3319783B4B8900CB58101C65
:1028600020211A1C0523364CA0473B1C0D3328227F
:102870001A703B1C0F3300221A703B1C0F331A785E
:10288000314B9200D3583A1C0D321278101C28217B
:102890001A1C05232A4CA0473B1C0F3300221A7038
:1028A0003B1C0D331B780633DAB23B1C0F3319780F
:1028B000254B8900CB58101C28211A1C0523204CBD
:1028C000A0473B1C0F3300221A703B1C0D331B78B2
:1028D0001233DAB23B1C0F3319781B4B8900CB58EB
:1028E000101C28211A1C0523154CA0473B1C0F3334
:1028F00003221A703B1C0D331B781833DAB23B1CD1
:102900000F331978104B8900CB58101C28211A1C42
:1029100005230B4CA0473B1C0D334C221A703B1C6B
:102920000F3300221A703B1C0F331A78064B9200AB
:10293000D3583A1C0D32127808E0C046A8EA0000CD
:102940005D480000D10D000008000020101C282167
:102950001A1C0523364CA0473B1C0F3309221A7062
:102960003B1C0D331B780633DAB23B1C0F3319784E
:10297000304B8900CB58101C28211A1C05232C4CE5
:10298000A0473B1C0F3302221A703B1C0D331B78EF
:102990001233DAB23B1C0F331978264B8900CB581F
:1029A000101C28211A1C0523214CA0473B1C0F3367
:1029B00008221A703B1C0D331B781833DAB23B1C0B
:1029C0000F3319781B4B8900CB58101C28211A1C77
:1029D0000523174CA0473B1C0F3301221A703B1CE8
:1029E0000D331B782433DAB23B1C0F331978114BAB
:1029F0008900CB58101C28211A1C05230C4CA04719
:102A00003B1C0F3305221A703B1C0D331B782A33F5
:102A1000DAB23B1C0F331978064B8900CB58101CD7
:102A200028211A1C0523024CA047BD4605B090BDC5
:102A30005D4800000800002090B585B000AF0A1C7A
:102A4000FB1D011C1970BB1D1A70FB1D1B78092B87
:102A500016D8BB1D1B78012B12D1FB1D1B785D4ABC
:102A6000D25C0132D1B25B4AD154FB1D1B78594A6A
:102A7000D35C632B04D9FB1D1B78564A0021D1542B
:102A8000554B1B78082B4CD1FB1D1B78032B48D8CA
:102A9000FB1D1A783B1C0F334E498A5C1A703B1C95
:102AA0000F331B78092B2AD93C1C0E343B1C0F33E7
:102AB0001A784A4B101C0A219847031C23703B1CB0
:102AC0000E331B780A2252425343D9B23B1C0F33B8
:102AD0003A1C0F3212788A181A70FB1D1B780233C9
:102AE000DBB2DB00DAB23B1C0E3319783C4B8900B9
:102AF000CB587420111C1A1C05233A4CA047FB1D0F
:102B00001B780233DBB2DB00DAB23B1C0F331978DF
:102B1000334B8900CB587A20111C1A1C0523314CE9
:102B2000A0472D4B1B78092B50D1FB1D1B78072B81
:102B30004CD8FB1D1B78032B48D9FB1D1A783B1C76
:102B40000F3324498A5C1A703B1C0F331B78092B06
:102B50002AD93C1C0E343B1C0F331A781F4B101C17
:102B60000A219847031C23703B1C0E331B780A2252
:102B700052425343D9B23B1C0F333A1C0F321278E6
:102B80008A181A70FB1D1B78023BDBB2DB00DAB23D
:102B90003B1C0E331978124B8900CB587420111C42
:102BA0001A1C05230F4CA047FB1D1B78023BDBB210
:102BB000DB00DAB23B1C0F331978094B8900CB5884
:102BC0007A20111C1A1C0523064CA047BD4605B0EF
:102BD00090BDC046A0060020E505002011B1000010
:102BE000080000205D48000090B585B000AFBC4BE8
:102BF0001B78082B08D1BB4B181C0121BA4B9847F6
:102C00003B1C0E3300221A70B54B1B78092B08D1E0
:102C10003B1C0E3304221A70B44B181C0121B24B1A
:102C200098473B1C0D3300221A70BDE13B1C0E334C
:102C30001A78AF4B1201D35C002B14D13B1C0E331E
:102C40001B78AB4A1B01D31801331B78002B0AD128
:102C50003B1C0E331B78A64A1B01D31802331B788A
:102C6000002B00D192E13B1C0C3317221A703B1C45
:102C70000E3319783B1C0B339D4A09018A5C1A708C
:102C80003B1C0A333A1C0B3211780F220A401A708F
:102C90003B1C0B333A1C0B32127812091A703B1C86
:102CA0000D331B780233DBB2DB00DAB23B1C0B3393
:102CB0001978904B8900CB58391C0C310978081CC5
:102CC000111C1A1C05238C4CA0473B1C0C331B7891
:102CD0000633D9B23B1C0D331B780233DBB2DB0069
:102CE000DAB23B1C0A331878824B8000C358081CA8
:102CF000111C1A1C0523804CA0473B1C0E331A786C
:102D00003B1C0B337A4912018A18013212781A706F
:102D10003B1C0A333A1C0B3211780F220A401A70FE
:102D20003B1C0B333A1C0B32127812091A703B1CF5
:102D30000C331B780C33D9B23B1C0D331B78023398
:102D4000DBB2DB00DAB23B1C0B331878694B800036
:102D5000C358081C111C1A1C0523674CA0473B1CB8
:102D60000C331B781233D9B23B1C0D331B78023362
:102D7000DBB2DB00DAB23B1C0A3318785D4B800013
:102D8000C358081C111C1A1C05235B4CA0473B1C94
:102D90000E331A783B1C0B33554912018A18023244
:102DA00012781A703B1C0A333A1C0B3211780F222E
:102DB0000A401A703B1C0B333A1C0B321278120972
:102DC0001A703B1C0C331B781833D9B23B1C0D33E3
:102DD0001B780233DBB2DB00DAB23B1C0B33187812
:102DE000444B8000C358081C111C1A1C0523424C7C
:102DF000A0473B1C0C331B781E33D9B23B1C0D3350
:102E00001B780233DBB2DB00DAB23B1C0A331878E2
:102E1000384B8000C358081C111C1A1C0523364C63
:102E2000A0473C1C09343B1C0E331A783B1D101C78
:102E3000191C324B9847031C23703B1C0F33002294
:102E40001A7037E03B1C0F331B783A1DD35C202BE4
:102E500029D03B1C0F331A783B1C0B33391D8A5C7D
:102E60001A703B1C0F331B781A1C9218D318DB18EE
:102E7000DAB23B1C0C331B78D318DBB22A33D9B23D
:102E80003B1C0D331B780233DBB2DB00DAB23B1C98
:102E90000B331878174B8000C358081C111C1A1CE0
:102EA0000523154CA0473B1C0F331A783B1C0F33EE
:102EB00001321A703B1C0F331B78022BC2D93C1C09
:102EC00009343B1C0E331A783B1D101C191C0C4B8B
:102ED0009847031C23703B1C0F3300221A7049E0F3
:102EE000E5050020B0F1000009490000B0F5000040
:102EF0002C0A0020080000205D480000311000006E
:102F0000611100003B1C0F331B783A1DD35C202B52
:102F100029D03B1C0F331A783B1C0B33391D8A5CBC
:102F20001A703B1C0F331B781A1C9218D318DB182D
:102F3000DAB23B1C0C331B78D318DBB24033D9B266
:102F40003B1C0D331B780233DBB2DB00DAB23B1CD7
:102F50000B331878194B8000C358081C111C1A1C1D
:102F60000523174CA0473B1C0F331A783B1C0F332B
:102F700001321A703B1C0F331B78022BC2D93B1C49
:102F80000E331B78181C00210E4B98473B1C0E3348
:102F90001A783B1C0E3301321A703B1C0D331A7821
:102FA0003B1C0D3301321A703B1C0D331B78032B75
:102FB00000D83BE6BD4605B090BDC04608000020E5
:102FC0005D480000392A000090B585B000AF7860F8
:102FD0000A1CFB1C1A70CD4B1B780133DAB2CB4BA9
:102FE0001A70CA4B1B78632B02D9C84B00221A7087
:102FF000C74B1B78072B00D084E13B1C0F33C34A1F
:1030000012781A703B1C0F331B78092B24D93C1CF7
:103010000E343B1C0F331A78BE4B101C0A21984704
:10302000031C23703B1C0E331B780A22524253436D
:10303000D9B23B1C0F333A1C0F3212788A181A701F
:103040003B1C0E331A78B44B9200D3581E2010212B
:103050001A1C0523B14CA0473B1C0F331A78AE4B0A
:103060009200D358242010211A1C0523AB4CA047F2
:103070003B1C0D3330221A703B1C0E337A681278D9
:103080001A703B1C0C333A1C0E3211780F220A4086
:103090001A703B1C0E333A1C0E32127812091A7049
:1030A0003B1C0E331A789C4B9200D3583A1C0D32BD
:1030B0001278101C10211A1C0523984CA0473B1CA9
:1030C0000D331B780633DAB23B1C0C331978924B64
:1030D0008900CB58101C10211A1C05238F4CA047C7
:1030E0003B1C0E337A6852781A703B1C0C333A1C26
:1030F0000E3211780F220A401A703B1C0E333A1C14
:103100000E32127812091A703B1C0D331B780C33E7
:10311000DAB23B1C0E3319787F4B8900CB58101C58
:1031200010211A1C05237D4CA0473B1C0D331B7836
:103130001233DAB23B1C0C331978774B8900CB5829
:10314000101C10211A1C0523744CA0473B1C0D3386
:103150004B221A703B1C0E337A6892781A703B1C13
:103160000C333A1C0E3211780F220A401A703B1CA5
:103170000E333A1C0E32127812091A703B1C0E33B1
:103180001A78654B9200D3583A1C0D321278101CF5
:1031900010211A1C0523614CA0473B1C0D331B78E2
:1031A0000633DAB23B1C0C3319785B4B8900CB58E1
:1031B000101C10211A1C0523584CA0473B1C0E3331
:1031C0007A68D2781A703B1C0C333A1C0E32117894
:1031D0000F220A401A703B1C0E333A1C0E32127832
:1031E00012091A703B1C0D331B780C33DAB23B1CEE
:1031F0000E331978484B8900CB58101C10211A1C2B
:103200000523464CA0473B1C0D331B781233DAB222
:103210003B1C0C331978404B8900CB58101C1021F3
:103220001A1C05233D4CA0473B1C0D3369221A7024
:103230003B1C0E337A6812791A703B1C0C333A1C13
:103240000E3211780F220A401A703B1C0E333A1CC2
:103250000E32127812091A703B1C0E331A782E4B5C
:103260009200D3583A1C0D321278101C10211A1CEF
:1032700005232A4CA0473B1C0D331B780633DAB2DA
:103280003B1C0C331978244B8900CB58101C10219F
:103290001A1C0523214CA0473B1C0E337A68527937
:1032A0001A703B1C0C333A1C0E3211780F220A4064
:1032B0001A703B1C0E333A1C0E32127812091A7027
:1032C0003B1C0D331B780C33DAB23B1C0E331978E0
:1032D000114B8900CB58101C10211A1C05230F4CD0
:1032E000A0473B1C0D331B781233DAB23B1C0C3366
:1032F0001978094B8900CB58101C10211A1C052382
:10330000064CA047BD4605B090BDC0469F060020B4
:10331000E505002011B10000080000205D48000014
:1033200080B586B000AF3B1C0C33181C02210A226A
:103330008F4B9847031C002B00D1D4E03B1C0C336F
:103340001B78432B14D13B1C0C335B78522B0FD1D1
:103350003B1C0C339B78452B0AD13B1C0C33DB7890
:10336000452B05D13B1C0C331B79442B00D195E038
:103370003B1C0C3343221A703B1C0C3352225A70F4
:103380003B1C0C3345229A703B1C0C334522DA70EF
:103390003B1C0C3344221A713B1C0C3356225A71CD
:1033A0003B1C0C3330229A713B1C0C332E22DA71F9
:1033B0003B1C0C3330221A723B1C0C3331225A72E4
:1033C0003B1C173300221A7016E03B1C17331B7886
:1033D0003A1C0C32D2183B1C17331B780233DBB279
:1033E000101C191C0122634B98473B1C17331A7899
:1033F0003B1C173301321A703B1C17331B78092B07
:10340000E3D93B1C0C335A221A703B1C0C33181C9A
:1034100028210122574B98473B1C0C3301221A707C
:103420003B1C0C33181C29210122524B98473B1C92
:103430000C3303221A703B1C0C33181C2A21012266
:103440004C4B98473B1C0C3300221A703B1C0C332E
:10345000181C2B210122474B98473B1C0C330022A0
:103460001A703B1C0C33181C2C210122414B98472D
:103470003B1C0C3300221A703B1C0C33181C2D21F2
:1034800001223C4B98473B1C0C3300221A703B1C1A
:103490000C33181C2E210122364B98473B1C173346
:1034A00000221A701AE03B1C17331B782833DBB25A
:1034B0003A1C0B32101C191C01222D4B98473B1C47
:1034C00017331B783A1C0B3211782B4AD1543B1C12
:1034D00017331A783B1C173301321A703B1C173311
:1034E0001B781B2BDFD93B1C173300221A700CE012
:1034F0003B1C17331B783A1D0021D1543B1C17335A
:103500001A783B1C173301321A703B1C17331B7897
:10351000052BEDD93B1D181CFA210622144B9847A8
:10352000031C002B20D0032001210122134B9847BC
:103530003B1C173300221A7011E03B1C17331B7819
:103540003A1C17321278391D8A5C0B49CB18DA7293
:103550003B1C17331A783B1C173301321A703B1C83
:1035600017331B78052BE8D9BD4606B080BDC04691
:10357000653D0000E13E0000AC0600202969000026
:1035800080B582B000AF0A1CFB1D011C1970BB1D69
:103590001A70FA1DBB1D1B78101C191C0122024B4E
:1035A0009847BD4602B080BDE13E000080B584B0C2
:1035B00000AF021CFB1D1A703B1C0F33FA1D127862
:1035C000D2091A703B1C0E33FA1D127852091A7078
:1035D0000D4BBB603B1C0F331B78002B0ED13B1CEB
:1035E0000F331B789B001022D219D318083B1A689E
:1035F0003B1C0E331B78DB01D31800E00023181CA2
:10360000BD4604B080BDC0460044004180B582B0D4
:1036100000AF021CFB1D1A70FB1D1B78181C034B0E
:103620009847031C181CBD4602B080BDAD35000094
:1036300080B582B000AF78607B6800221A707B682A
:1036400001225A707B6800229A70BD4602B080BD8C
:1036500080B584B000AF0A1CFB1D011C1970BB1D96
:103660001A70FB1D1B78181C0D4B9847031CFB6040
:10367000FB1D1A781F2313400122111C99400B1CBB
:10368000BB60BB1D1B78002B03D0FB68BA689A6136
:1036900002E0FB68BA685A61BD4604B080BDC0460E
:1036A0000D36000080B584B000AF78607B681B6881
:1036B000FB60FB681B8A9BB21A1C80231B02134011
:1036C0005A1E9341DBB2181CBD4604B080BDC046F3
:1036D00080B582B000AF78607B6801221A707B6889
:1036E00000225A607B6800229A607B68C0229203A5
:1036F000DA607B6800221A747B6800225A747B6847
:1037000001229A747A6820230121D1547B681433F2
:10371000181C00210C220A4B98477B68094A5A6101
:103720007B6800225A627B6800229A627B680022D2
:10373000DA627B6800221A63BD4602B080BDC046D3
:1037400071CF0000A086010080B582B000AF786024
:103750007B680A221A707B6800225A707B680022FC
:103760009A70BD4602B080BD80B584B000AF78606D
:1037700039603B681A787B681A703B685A787B68B6
:103780005A703B689A787B689A703B1C0C33181C03
:103790000B4B98473B1C0C3301221A707B681A783C
:1037A0003B1C0C33101C191C064B98477B681B787C
:1037B000181C0121044B9847BD4604B080BDC0468B
:1037C00031360000AD7A00005136000080B584B07B
:1037D00000AF78607B681B68FB60C0467B68181C84
:1037E000064B9847031C002BF8D1FB681B6802228C
:1037F0001A43FB681A60BD4604B080BDA5360000C0
:1038000080B58EB000AF3B1C181C174B98473B1C73
:103810000A221A70154A3B1C101C191C144B98479D
:103820003B1D181C134B98473B1DC0229203DA60C6
:103830003B1D114A5A623B1D104A9A623B1D0122F0
:103840005242DA623B1D0E4A1A630E490E4A3B1D74
:10385000081C111C1A1C0D4B98470A4B181C0C4BCA
:103860009847BD460EB080BD49370000CC06002009
:1038700069370000D136000003000800030009008A
:1038800003000B00D006002000100042858C0000D1
:10389000CD37000080B582B000AF104B98470420B0
:1038A000012100220E4B98473B1D00221A703B1D40
:1038B0008F20191C01220B4B9847031C002B08D0AA
:1038C0003B1D1B78332B04D1042001210122044B22
:1038D00098470123181CBD4602B080BD0138000086
:1038E00029690000E938000090B587B000AF396061
:1038F000FB1D011C1970BB1D1A703B683B61002346
:10390000FB60BB1D1B780D2B59D80123FB602E4A91
:103910002E4B101C191C01222D4B98473B1C1733B2
:1039200000221A7010E03B1C17331B785A1C3B69AD
:10393000591C39611978274B99543B1C17331A7855
:103940003B1C173301321A703A1C1732BB1D127818
:103950001B789A42E7D31F4BFA1D12781A70BB1DD1
:103960001B789BB201339BB217481A491A4A1B4C69
:10397000A047154A154B101C191C0022144B9847E0
:103980003B683B613B1C173300221A7010E03B6917
:103990005A1C3A613A1C1732127801320E498A5C7D
:1039A0001A703B1C17331A783B1C173301321A70FC
:1039B0003A1C1732BB1D12781B789A42E7D3FB687A
:1039C000181CBD4607B090BDD0060020CC060020D4
:1039D000798D0000E8060020D8060020558E0000F2
:1039E00080B584B000AF021CFB1D1A703B1C0F3366
:1039F000FA1D1278D2091A703B1C0E33FA1D127888
:103A000052091A700D4BBB603B1C0F331B78002B07
:103A10000ED13B1C0F331B789B001022D219D318F8
:103A2000083B1A683B1C0E331B78DB01D31800E0FF
:103A30000023181CBD4604B080BDC04600440041B0
:103A400080B582B000AF021CFB1D1A70FB1D1B78F5
:103A5000181C034B9847031C181CBD4602B080BDC0
:103A6000E139000080B584B000AF021CFB1D1A7064
:103A7000FB1D1B78181C0C4B9847031CFB60FB1D9F
:103A80001A781F2313400122111C99400B1CBB60A4
:103A9000FB681B6ABA6813405A1E9341DBB2181CBC
:103AA000BD4604B080BDC046413A000080B582B03A
:103AB00000AFFB1D054A12781A70044B00221A70E1
:103AC000FB1D1B78181CBD4602B080BDF806002007
:103AD00090B583B000AF594B1B88DB189CB22420F3
:103AE000574B9847031CE3189AB2544B1A80554B16
:103AF0001B88DB189CB22520514B9847031CE31808
:103B00009AB2504B1A80504B1B88DB189CB226206F
:103B10004B4B9847031CE3189AB24B4B1A804B4B04
:103B20001B88DB189CB22720454B9847031CE318E1
:103B30009AB2464B1A80BB1D454A12881A803F4BE9
:103B40001B881A1C0723134003D1414B01221A8002
:103B500002E03F4B00221A803D4B1B88BA1D00211A
:103B6000525E1BB29A420CD03A4B1B78012213438F
:103B7000DAB2384B1A70384B1B6880221A43364B26
:103B80001A60BB1D354A12881A802E4B1B881A1CDE
:103B90000723134003D1314B01221A8002E02F4B3F
:103BA00000221A802D4B1B88BA1D0021525E1BB2C9
:103BB0009A420CD0274B1B7804221343DAB2254BD0
:103BC0001A70254B1B6880221A43234B1A60BB1DB9
:103BD000234A12881A801C4B1B881A1C0723134087
:103BE00003D11F4B01221A8002E01D4B00221A80D4
:103BF0001B4B1B88BA1D0021525E1BB29A420CD08F
:103C0000144B1B7802221343DAB2124B1A70124B78
:103C10001B6880221A43104B1A600C4B1B881A1C1D
:103C20000723134003D10F4B01221A8002E00D4BF2
:103C300000221A80BD4603B090BDC046E6050020B4
:103C4000653A0000E8050020EA050020EC050020A8
:103C5000FE060020F8060020080C0020FC060020CC
:103C6000FA0600200007002080B584B000AF78601D
:103C70007B681B68FB60FB681B8A9BB21A1C802355
:103C80001B0213405A1E9341DBB2181CBD4604B000
:103C900080BDC04680B582B000AF7860C0467B680A
:103CA000181C044B9847031C002BF8D1BD4602B0EA
:103CB00080BDC046693C000080B582B000AF78602E
:103CC0007B6864221A607B6800221A717B6800227C
:103CD0001A747B68802292039A607B6801225242A8
:103CE000DA817B68012252429A817B6800225A6104
:103CF0007B6800229A617B6800221A777B68002229
:103D00001A62BD4602B080BD80B584B000AF786055
:103D10007B681B68BB600023FB607B68181C104B32
:103D20009847BB681B6802221A43BB681A600CE004
:103D3000FB680133FB607B68DB881A1CFB689A42D6
:103D400003D8BB6810221A8206E0BB681B8A9BB2AC
:103D50001A1C10231340EBD0BD4604B080BDC046F2
:103D6000953C000080B584B000AF7860FB1C1970F2
:103D7000BB1C1A703B1C0F3300221A707B68BB609F
:103D8000514B50221A80504B504A5A604E4B0022E1
:103D90001A724D4B00225A724B4B00229A724A4BB8
:103DA00001225A80494BFA1C12781A703B1C0E33C0
:103DB00000221A703B1C0D3300221A7020E0444A86
:103DC000414B101C191C434B9847031C002B0AD174
:103DD0003B1C0D3301221A703B1C0E333A1C0E3271
:103DE00012781A700CE03B1C0E331A783B1C0E3311
:103DF00001321A703B1C0D333A1C0D3212781A70C6
:103E00003B1C0D331B78002B04D13B1C0E331B785D
:103E1000C72BD4D93B1C0D331B78012B44D1BB1CC1
:103E20001B789AB2284B5A80274B7A685A603B1C01
:103E30000E3300221A703B1C0D3300221A7020E052
:103E4000234A214B101C191C234B9847031C002BA1
:103E50000AD13B1C0D3301221A703B1C0E333A1C55
:103E60000E3212781A700CE03B1C0E331A783B1C91
:103E70000E3301321A703B1C0D333A1C0D3212788E
:103E80001A703B1C0D331B78002B04D13B1C0E33E6
:103E90001B78C72BD4D93B1C0D331B78012B03D1C6
:103EA0003B1C0F3301221A703B1C0F331B78002B75
:103EB00002D10A4B01221A703B1C0F331B78181CCD
:103EC000BD4604B080BDC046300700203C0700203E
:103ED00008070020ED810000A180000004070020F9
:103EE00080B586B000AF7860FB1C1970BB1C1A70DF
:103EF0003B1C173300221A707B683B61414B5022F8
:103F00001A80404B404A5A603E4B00221A723D4B89
:103F100000225A723B4B00229A72BB1C1B789BB248
:103F200001339AB2374B5A80374BFA1C12781A7009
:103F30003B1C0F3300221A7010E03B1C0F331B7820
:103F40005A1C3B69591C396119782F4B99543B1CF9
:103F50000F331A783B1C0F3301321A703A1C0F32A0
:103F6000BB1C12781B789A42E7D33B1C1633002205
:103F70001A703B1C153300221A7020E0234A214B93
:103F8000101C191C224B9847031C002B0AD13B1C08
:103F9000153301221A703B1C16333A1C1632127864
:103FA0001A700CE03B1C16331A783B1C1633013296
:103FB0001A703B1C15333A1C153212781A703B1CD0
:103FC00015331B78002B04D13B1C16331B78C72BF1
:103FD000D4D93B1C15331B78012B03D13B1C173361
:103FE00001221A703B1C17331B78002B02D1094B9E
:103FF00001221A703B1C17331B78181CBD4606B0F3
:1040000080BDC046300700203C0700200807002084
:10401000ED8100000407002080B58AB000AF3B1D91
:10402000181C0D4B98473B1D0C4ADA813B1D0C4A6E
:104030005A613B1D0B4A9A610B490C4A3B1D081CF7
:10404000111C1A1C0A4B9847074B181C094B984720
:10405000BD460AB080BDC046B93C00001027000034
:1040600003000C0003000D000807002000180042A8
:10407000BD7D0000093D000080B584B000AF664BF7
:104080009847032002210022644B98470320012116
:104090000022624B98470320042100225F4B98477F
:1040A0003B1C0F3300221A700CE03B1C0F331B78B3
:1040B0005B4A0021D1543B1C0F331A783B1C0F3351
:1040C00001321A703B1C0F331B78052BEDD9544B72
:1040D000181CFA210622534B9847031C002B20D0B2
:1040E0000320012101224D4B98473B1C0F33002236
:1040F0001A7011E03B1C0F331B783A1C0F321278F8
:1041000047498A5C4849CB18DA723B1C0F331A784E
:104110003B1C0F3301321A703B1C0F331B78052BED
:10412000E8D93B1D181C02210A223E4B9847031C6C
:10413000002B3FD0032001210122384B98473B1D23
:104140001B78432B12D13B1D5B78522B0ED13B1DAC
:104150009B78452B0AD10320022101222F4B98473F
:104160000320042101222D4B984751E03B1D46229C
:104170001A703B1D72225A703B1D181C002102222E
:104180002A4B9847031C002B42D03B1D00221A707B
:104190003B1D00225A703B1D181C00210222214B9E
:1041A0009847031C002B33D00320022101221B4B14
:1041B00098472DE0032001210122184B98473B1D11
:1041C00046221A703B1D72225A703B1D181C00219A
:1041D0000222164B9847031C002B14D03B1D0022D3
:1041E0001A703B1D00225A703B1D181C0021022230
:1041F0000C4B9847031C002B0AD0032002210122FC
:10420000064B984704E0032001210022034B984706
:10421000BD4604B080BDC0461940000029690000B9
:1042200028070020653D0000AC060020E13E0000AC
:1042300080B584B000AF021CFB1D1A703B1C0F330D
:10424000FA1D1278D2091A703B1C0E33FA1D12782F
:1042500052091A700D4BBB603B1C0F331B78002BAF
:104260000ED13B1C0F331B789B001022D219D318A0
:10427000083B1A683B1C0E331B78DB01D31800E0A7
:104280000023181CBD4604B080BDC0460044004158
:1042900080B582B000AF021CFB1D1A70FB1D1B789D
:1042A000181C034B9847031C181CBD4602B080BD68
:1042B0003142000080B584B000AFF860B9607A6028
:1042C000BB687A681A40FB689A617B68DB43BA680E
:1042D0001A40FB685A61BD4604B080BD80B582B00B
:1042E00000AF78607B6800221A707B6801225A70E8
:1042F0007B6800229A70BD4602B080BD80B584B054
:1043000000AF0A1CFB1D011C1970BB1D1A70FB1DA0
:104310001B78181C0D4B9847031CFB60FB1D1A787B
:104320001F2313400122111C99400B1CBB60BB1DB5
:104330001B78002B03D0FB68BA689A6102E0FB6827
:10434000BA685A61BD4604B080BDC04691420000C3
:1043500080B582B000AF021CBB1D1A80BD4602B002
:1043600080BDC04680B584B000AF021CBB1D1A8062
:104370003B1C0E3300221A803B1C0E3300221A8095
:1043800009E00520094B98473B1C0E331A883B1C5B
:104390000E3301321A803A1C0E32BB1D12881B8864
:1043A0009A42EED9BD4604B080BDC04651430000DC
:1043B00080B584B000AF021CFB1D1A703B1C0C338F
:1043C000181C214B9847FB1D1B78012B04D13B1C6B
:1043D0000C3300221A7003E03B1C0C3301221A70CC
:1043E0003B1C0C331020191C184B98473B1C0C33FA
:1043F0001120191C154B98473B1C0C331220191C1B
:10440000124B98473B1C0C331320191C0F4B984739
:104410003B1C0C331420191C0C4B98473B1C0C33D1
:104420001520191C094B98473B1C0C331620191CEE
:10443000064B98473B1C0C331720191C034B98471D
:10444000BD4604B080BDC046DD420000AD7A00002C
:1044500080B582B000AF3B1D181C144B98473B1D24
:1044600001221A703B1D1B20191C114B98473B1D44
:104470001820191C0E4B98473B1D0F20191C0C4B84
:1044800098473B1D0E20191C094B98473B1D1920CE
:10449000191C074B984719200021064B984700200C
:1044A000054B9847BD4602B080BDC046DD420000C6
:1044B000AD7A0000FD420000B143000080B582B03B
:1044C00000AF021CFB1D1A70FB1D1B78002B04D1D2
:1044D0001B200021044B984703E01B200121024BC5
:1044E0009847BD4602B080BDFD42000080B582B055
:1044F00000AF021CFB1D1A70FB1D1B78002B04D1A2
:1045000018200021044B984703E018200121024B9A
:104510009847BD4602B080BDFD42000080B582B024
:1045200000AF021CFB1D1A70FB1D1B78002B04D171
:104530000F200021044B984703E00F200121024B7C
:104540009847BD4602B080BDFD42000080B582B0F4
:1045500000AF021CFB1D1A70FB1D1B78002B04D141
:104560000E200021044B984703E00E200121024B4E
:104570009847BD4602B080BDFD42000080B584B0C2
:1045800000AF0A1CFB1D011C1970BB1D1A70FB1D1E
:104590001B78FB60FB681B04FB60BB1D1B78002BBA
:1045A00009D13449FF231A04FB68081C111C1A1C8A
:1045B000314B98475AE00023FB60FB1D1B785BB230
:1045C000002B04DAFB68802252021343FB60FB1DC0
:1045D0001A784023134004D0FB68802292021343D0
:1045E000FB60FB1D1A782023134004D0FB68802257
:1045F000D2021343FB60FB1D1A781023134004D032
:10460000FB68802212031343FB60FB1D1A7808230A
:10461000134004D0FB68802252031343FB60FB1D50
:104620001A780423134004D0FB68802292031343BA
:10463000FB60FB1D1A780223134004D0FB68802224
:10464000D2031343FB60FB1D1A780123134004D0EF
:10465000FB68802212041343FB600649FF231A04FF
:10466000FB68081C111C1A1C034B9847BD4604B07C
:1046700080BDC04600440041B542000080B582B014
:1046800000AF021CFB1D1A7000200B4B9847002046
:104690000A4B984700200A4B9847FB1D1B78181CB3
:1046A0000021084B98470120074B98470020064BF4
:1046B0009847BD4602B080BDB14300001D450000D3
:1046C000ED4400007D4500004D45000080B582B0FE
:1046D00000AF0A1CFB1D011C1970BB1D1A700020C5
:1046E0000C4B984700200C4B984701200B4B9847E8
:1046F000FB1D1A78BB1D1B78101C191C084B984712
:104700000120084B98470020064B9847BD4602B051
:1047100080BDC046B14300001D450000ED440000CF
:104720007D4500004D45000080B500AF0020244BC2
:1047300098470A20234B98470120214B98470A208D
:10474000204B9847A220204B984764201F4B984746
:10475000A0201D4B984764201C4B9847C0201A4B43
:1047600098476420194B9847F820174B98476420C6
:10477000164B98470120144B98476420134B9847D9
:104780002720114B984764200E4B984781200E4BF1
:10479000984764200D4B984708200B4B984764209E
:1047A0000A4B98472F20084B98476420074B98479F
:1047B000AF20054B98476420044B9847BD4680BD09
:1047C000BD440000654300007D46000051430000E9
:1047D00080B584B000AF3960FB1D011C1970BB1D92
:1047E0001A70FB1D1B78072B30D8FB1D1B78503B24
:1047F000DBB2181C174B98471020164B9847002027
:10480000144B98473B1C0E3300221A8019E03B1CC6
:104810000E331B883A68D3181A783B1C0C331A8065
:104820003B1C0C331B88DAB2BB1D1B78101C191CF7
:10483000094B98473B1C0E331A883B1C0E33013240
:104840001A803B1C0E331B887F2BE0D9BD4604B079
:1048500080BDC0467D460000CD46000080B584B0D6
:1048600000AF3A601A1CFB1D1870BB1D19707B1D30
:104870001A703B68FB60FB1D1B785BB2002B3BDBB7
:10488000BB1D1B783F2B37D8FB1D1B781B09DBB2E8
:1048900010221343DBB2181C194B9847FB1D1A78E2
:1048A0000F231340DBB2181C154B9847BB1D1B7818
:1048B000DB08DBB2502252421343DBB2181C104B10
:1048C00098473B1C0B3300221A700EE0FB685A1C01
:1048D000FA601B78181C01210A4B98473B1C0B33CC
:1048E0001A783B1C0B3301321A703A1C0B327B1DB9
:1048F00012781B789A42E9D3BD4604B080BDC04609
:104900007D460000CD46000080B584B000AF7860E1
:104910000A1CFB1C1A703B1C0C3300221A803EE060
:104920003B1C0C331B88DBB2503BDBB2181C204B0A
:10493000984710201E4B984700201D4B98473B1C62
:104940000E3300221A801EE03B1C0E331A883B1CDB
:104950000C331B88DB01D3187A68D3181A783B1CF8
:104960000A331A803B1C0A331B88DAB2FB1C1B7803
:10497000101C191C0F4B98473B1C0E331A883B1C0C
:104980000E3301321A803B1C0E331B887F2BDBD980
:104990003B1C0C331A883B1C0C3301321A803B1C25
:1049A0000C331B88072BBBD9BD4604B080BDC04665
:1049B0007D460000CD46000080B584B000AF021CEB
:1049C000FB1D1A703B1C0F33FA1D1278D2091A70A6
:1049D0003B1C0E33FA1D127852091A700D4BBB6046
:1049E0003B1C0F331B78002B0ED13B1C0F331B7865
:1049F0009B001022D219D318083B1A683B1C0E33B7
:104A00001B78DB01D31800E00023181CBD4604B05E
:104A100080BDC0460044004180B582B000AF021C9A
:104A2000FB1D1A70FB1D1B78181C034B9847031CB9
:104A3000181CBD4602B080BDB949000080B582B0E7
:104A400000AF78607B6800221A707B6801225A7080
:104A50007B6800229A70BD4602B080BD80B584B0EC
:104A600000AF021CFB1D1A70FB1D1B78181C0C4BA1
:104A70009847031CFB60FB1D1A781F23134001227B
:104A8000111C99400B1CBB60FB681B6ABA68134081
:104A90005A1E9341DBB2181CBD4604B080BDC0460F
:104AA000194A000080B584B000AF0A1CFB1D011C30
:104AB0001970BB1D1A70FB1D1B78181C0D4B9847F5
:104AC000031CFB60FB1D1A781F2313400122111CDD
:104AD00099400B1CBB60BB1D1B78002B03D0FB68EF
:104AE000BA689A6102E0FB68BA685A61BD4604B0D0
:104AF00080BDC046194A000080B582B000AF786022
:104B00007B6800221A607B6800225A607B68012261
:104B10001A727B6801225A727B6800229A727B6843
:104B20000222DA72BD4602B080BDC04680B584B0B4
:104B300000AF78607B681B68FB60FB681B8A9BB2D8
:104B40001A1C80231B0213405A1E9341DBB2181C0F
:104B5000BD4604B080BDC04680B582B000AF78606D
:104B60007B6801221A707B6800225A607B680022F1
:104B70009A607B68C0229203DA607B6800221A7414
:104B80007B6800225A747B6801229A747A68202319
:104B90000121D1547B681433181C00210C220A4BCC
:104BA00098477B68094A5A617B6800225A627B6891
:104BB00000229A627B680022DA627B6800221A6314
:104BC000BD4602B080BDC04671CF0000A086010086
:104BD00080B582B000AF78607B680A221A707B686B
:104BE00000225A707B6800229A70BD4602B080BDD8
:104BF00080B584B000AF786039603B681A787B6814
:104C00001A703B685A787B685A703B689A787B6860
:104C10009A703B1C0C33181C0B4B98473B1C0C33F5
:104C200001221A707B681A783B1C0C33101C191C6B
:104C3000064B98477B681B78181C0121044B98474A
:104C4000BD4604B080BDC0463D4A0000AD7A0000BC
:104C5000A54A000080B584B000AF78607B681B680F
:104C6000FB60C0467B68181C064B9847031C002B52
:104C7000F8D1FB681B6802221A43FB681A60BD4624
:104C800004B080BD2D4B000080B582B000AF7860CD
:104C90003960064B9847064B1A787B681A70054BAB
:104CA0001A783B681A70BD4602B080BDE55B000013
:104CB000EF050020EE05002080B586B000AFB9609A
:104CC0007A603B1C0F33021C1A703B1C1733002206
:104CD0001A703B1C0F331B78092B34D83B1C0F3345
:104CE0001A781C4B1201D35C002B13D13B1C0F33E1
:104CF0001B78184A1B01D31801331B78002B09D1EC
:104D00003B1C0F331B78134A1B01D31802331B784B
:104D1000002B18D03B1C0F331B780E4A1B01D318F5
:104D200008339A88BB681A803B1C0F331B78094AEA
:104D30001B01D31808339B791A1C7B681A803B1C13
:104D4000173301221A703B1C17331B78181CBD4601
:104D500006B080BD2C0A002080B584B000AF3B1C9B
:104D60000F3300221A70A7E03B1C0F331B78574A01
:104D70001B01D3181B79002B00D196E03B1C0F338D
:104D80001A78524B1201D35C002B00D18DE03B1CF2
:104D90000F331B784D4A1B01D31800221A713B1C9C
:104DA0000F331B783A1C0F321278484912018A18C7
:104DB0000432527945491B01CB1808339A713B1CC8
:104DC0000F331B783A1C0F321278404912018A18AF
:104DD00008329279283AD2B23C491B01CB180833E9
:104DE0009A713B1C0F331B78384A1B01D3180833C8
:104DF00000229A803B1C0F331B78344A1B01D318C6
:104E000005335B791A1C3B1C0C3312011A803B1CC6
:104E10000C333A1C0C321188E022D2000A401A806E
:104E20003B1C0F331B78294A1B01D31803335A79D3
:104E30003B1C0A331A803B1C0C33391C0C313A1CC6
:104E40000A32098812880A431A803B1C0F331B78E8
:104E50001E4A1B01D31808333A1C0C3212889A8060
:104E60003B1C0C331B887B607B68194A53437B6077
:104E70007A68184B101C18499847031C7B603B1C30
:104E80000C337A681A803B1C0F331B780F4A1B01C6
:104E9000D31808333A1C0C3212889A803B1C0F330B
:104EA0001B78181C01210D4B98473B1C0F331A78B7
:104EB0003B1C0F3301321A703B1C0F331B78092B3C
:104EC00000D851E7BD4604B080BDC0462C0A002082
:104ED0008E36020011B1000040420F00392A000056
:104EE00080B500AF284B9847284B00221A70284BFA
:104EF00000221A70274B00221A70274B1B78002BB8
:104F000002D0224B01221A70234B5B78002B31D048
:104F10001F4B01221A70204B5B781A1C1023134080
:104F200028D01E4B984721E01D4B1B780A2B0ED929
:104F30001C4B181C0A211C4B98470A201B4B9847F6
:104F4000174B1B780A3BDAB2154B1A700EE0144B64
:104F50001B78144A101C191C134B9847104B1B78D4
:104F6000181C124B98470E4B00221A700C4B1B78E2
:104F7000002BD9D1084B9B78002B02D0054B012286
:104F80001A70BD4680BDC0462D590000140A00208D
:104F9000840700205007002054070020F558000027
:104FA000F409002070070020455800001953000044
:104FB00080B584B000AF3B1D181CA34B98473B1D28
:104FC00001221A703B1D3E20191CA04B98473E2021
:104FD00000219F4B98473E2001219D4B98473B1D48
:104FE00000221A703B1D01225A703B1D3F20191CE4
:104FF000964B98473F20974B9847031C1A1C964B9B
:105000001A70964B9847964B00221A703B1C0C3333
:1050100000221A8027E03B1C0C331A88914B1201A6
:105020000021D1543B1C0C331B888E4A1B01D31822
:10503000013300221A703B1C0C331B88894A1B0168
:10504000D318023300221A703B1C0C331B88854A8C
:105050001B01D3180022DA703B1C0C331A883B1C4E
:105060000C3301321A803B1C0C331B88092BD2D91C
:105070007D4B00221A703B1C0C3300221A800CE07E
:105080003B1C0C331B88794A0021D1543B1C0C3348
:105090001A883B1C0C3301321A803B1C0C331B88D2
:1050A000032BEDD93B1C0E3300221A803B1C0A3324
:1050B00000221A805EE03B1C0E331A886C4BD3181A
:1050C0003A1C0E321288101C0A211A1C694B984790
:1050D0003B1C093300221A703B1C0C3300221A803F
:1050E0001EE03B1C0E331A883B1C0C331B88D31864
:1050F0005F4AD25C3B1C0E3319883B1C0C331B8867
:10510000CB185D49CB5C9A4203D03B1C093301228A
:105110001A703B1C0C331A883B1C0C3301321A806A
:105120003B1C09331B78002B04D13B1C0C331B8820
:10513000092BD6D93B1C09331B78002B0CD03B1C08
:105140000E331A884C4BD3183A1C0E321288101C9E
:105150000A211A1C494B98473B1C0E333A1C0E324D
:1051600012880A321A803B1C0A331A883B1C0A3305
:1051700001321A803B1C0A331B883C2B9BD93B1CF9
:105180000E3300221A803B1C0E331A88384BD3187A
:105190003A1C0E321288101C0A211A1C354B9847F3
:1051A0003B1C093300221A703B1C0C3300221A806E
:1051B0001EE03B1C0E331A883B1C0C331B88D31893
:1051C0002B4AD25C3B1C0E3319883B1C0C331B88CA
:1051D000CB182949CB5C9A4203D03B1C09330122EE
:1051E0001A703B1C0C331A883B1C0C3301321A809A
:1051F0003B1C09331B78002B04D13B1C0C331B8850
:10520000092BD6D93B1C09331B78002B05D0012074
:10521000012100221A4B984704E0012001210122BC
:10522000174B9847174B9847174B9847174B98477A
:10523000154B9847154B9847154B9847154B984772
:10524000BD4604B080BDC0463D4A0000AD7A0000B6
:10525000A54A00005D4A0000F6090020155600002E
:10526000FB0900202C0A0020CC0A00205C0700204B
:105270008807002095590000B4D10000995A000019
:1052800029690000915B0000B95B00002D59000006
:1052900099520000D952000080B584B000AF3B1D88
:1052A000181C0B4B98473B1D3F221A603B1D0022E8
:1052B0005A603B1D01221A723B1D0322DA723B1D0C
:1052C0000F20191C034B9847BD4604B080BDC04653
:1052D000F94A00009503000080B500AF054B181C8B
:1052E0000F210022044B98470F200021034B9847C1
:1052F000BD4680BD0153000061050000BD050000F2
:1053000080B500AF034B1B6810221A43014B1A6093
:10531000BD4680BD080C002080B584B000AF021CE3
:10532000FB1D1A70B34B1B781A1CFB1D1B78D3187E
:10533000132B02DDAF4B00221A703B1C0E330022F0
:105340001A7013E0AB4B1B785A1CD1B2A94A1170EA
:105350003A1C0E321278A849895CA84AD1543B1CE9
:105360000E331A783B1C0E3301321A703A1C0E327F
:10537000FB1D12781B789A42E4D332E19F4B181C34
:1053800006219F4B9847031C1A1C9E4B1A709B4B7F
:105390009A799C4B1B789A4200D0FEE001200221B2
:1053A0000122994B9847012004210122964B9847EE
:1053B0003B1C0E3300221A703B1C0F3300221A7064
:1053C0005CE03B1C0E331B78904A1B01D318013361
:1053D0001A788A4B5B789A4249D13B1C0E331A7873
:1053E0008A4B1201D25C854B1B789A423FD13B1C01
:1053F0000E331B78854A1B01D31802331A787F4B72
:105400009B789A4233D13B1C0D3300221A7016E070
:105410003B1C0E3318783B1C0D331B783A1C0D32A5
:10542000127876498A5C79490001C318CB185A7101
:105430003B1C0D331A783B1C0D3301321A703B1C98
:105440000D331B78062BE3D93B1C0E331B786F4AB8
:105450001B01D31801221A716D4B1B688022520068
:105460001A436B4B1A603B1C0F3301221A703B1C12
:105470000E331A783B1C0E3301321A703B1C0E336C
:105480001B78092B04D83B1C0F331B78002B98D0BA
:105490003B1C0F331B78002B00D077E03B1C0E33F6
:1054A00000221A7068E03B1C0E331A78574B120129
:1054B000D35C002B59D13B1C0E331B78534A1B0184
:1054C000D31801331B78002B4FD13B1C0D33002226
:1054D0001A7016E03B1C0E3318783B1C0D331B78FA
:1054E0003A1C0D32127845498A5C48490001C318BC
:1054F000CB185A713B1C0D331A783B1C0D3301320B
:105500001A703B1C0D331B78062BE3D93B1C0E3362
:105510001B783E4A1B01D31801221A713B1C0E3323
:105520001A78364B1978394B1201D1543B1C0E3383
:105530001B78324A527835491B01CB1801331A7057
:105540003B1C0E331B782D4A927830491B01CB1837
:1055500002331A702E4B1B68802252001A432C4BC8
:105560001A603B1C0F3301221A703B1C0E331A7851
:105570003B1C0E3301321A703B1C0E331B78092B77
:1055800004D83B1C0F331B78002B8CD0194B1B7895
:10559000073BDAB2174B1A7023E0164B1B78013B1E
:1055A000DAB2144B1A703B1C0E3300221A7011E051
:1055B0003B1C0E331B783A1C0E32127801320F4915
:1055C000895C0E4AD1543B1C0E331A783B1C0E33B7
:1055D00001321A70074B1B783A1C0E3212789A422D
:1055E000E6D3044B1B78062B00D9C7E6BD4604B0B2
:1055F00080BDC046FB090020D00A0020180A002008
:105600008D570000F5090020296900002C0A0020B0
:10561000080C002080B58EB000AF3B1C181C174B47
:1056200098473B1C20221A70154A3B1C101C191C61
:10563000144B98473B1D181C134B98473B1DC02229
:105640009203DA603B1D114A5A623B1D104A9A626E
:105650003B1D01225242DA623B1D0E4A1A630E497B
:105660000E4A3B1D081C111C1A1C0D4B98470A4B77
:10567000181C0C4B9847BD460EB080BDD14B0000A6
:10568000F8090020F14B0000594B000003002200F4
:1056900003002300030021000C0A0020001C00422C
:1056A000858C0000554C000090B587B000AF786045
:1056B0000A1CFB1C1A707B683B610023FB60FB1C0F
:1056C0001B780D2B51D80123FB602A4A2A4B101C52
:1056D000191C0122294B98473B1C173300221A70D2
:1056E0000FE03B1C17331A783B69591C3961197854
:1056F000234B99543B1C17331A783B1C1733013248
:105700001A703A1C1732FB1C12781B789A42E8D3A5
:10571000FB1C1B789BB2174819491A4A1A4CA04720
:105720007B683B613B1C173300221A700FE03B691A
:105730005A1C3A613A1C1732127812498A5C1A7064
:105740003B1C17331A783B1C173301321A703A1C72
:105750001732FB1C12781B789A42E8D3054A064B95
:10576000101C191C0022054B9847FB68181CBD46ED
:1057700007B090BD0C0A0020F8090020798D0000C8
:1057800060070020FC090020558E000080B584B021
:1057900000AF78600A1CFB1C1A703B1C0A33002205
:1057A0001A803FE07B685A1C7A601A783B1C0C33E5
:1057B0001A803B1C0E3308221A802EE03A1C0A3253
:1057C0003B1C0C3312881B88534099B23B1C083396
:1057D00080220A401A803A1C0A323B1C0A331B887A
:1057E000DB1813803B1C08331B88002B07D03B1CA5
:1057F0000A333A1C0A32128831214A401A803A1C74
:105800000C323B1C0C331B88DB1813803B1C0E3303
:105810001A883B1C0E33013A1A803B1C0E331B883E
:10582000002BCBD1FB1C1B78FA1C591E1170002BCE
:10583000B8D13B1C0A331B88DBB2181CBD4604B030
:1058400080BDC04680B584B000AF78600A1CFB1CE8
:105850001A703B1C0F3300221A700DE03B1C0F33F3
:105860001B787A68D31800221A703B1C0F331A7801
:105870003B1C0F3301321A703A1C0F32FB1C12789A
:105880001B789A42EAD37B6806221A707B68013340
:10589000FA1C12781A70FB1C1B780333DBB27A688F
:1058A000101C191C114B98473B1C0F3300221A7017
:1058B00012E03B1C0F331B783A1C0F321278033274
:1058C00079688A1811780A4AD1543B1C0F331A7828
:1058D0003B1C0F3301321A703A1C0F32FB1C12783A
:1058E0001B789A42E5D3BD4604B080BDA95600009E
:1058F000D00A002080B582B000AF3B1D01221A7093
:105900003B1D00225A703B1D00229A703B1D181C43
:105910000321044B98473B1D9A78034B1A70BD46F0
:1059200002B080BDA9560000F409002080B582B005
:1059300000AF3B1C04221A703B1C00225A703B1C17
:1059400000229A703B1C0022DA703B1C00221A7164
:105950003B1C181C04210D4B9847FB1D00221A709C
:105960000CE0FB1D1B78FA1D1278391C895C084A73
:10597000D154FB1D1A78FB1D01321A70FB1D1B78D8
:10598000032BEED9BD4602B080BDC046A95600002B
:105990005407002080B586B000AF3A60BB1D021CE2
:1059A0001A807B1D0A1C1A703B683B613B1C163336
:1059B000BA1D12881A803B1C153300221A705AE057
:1059C0003B1C08330A221A703B1C0E333A1C163259
:1059D0001288120A1A803B1C0D333A1C0E321288B0
:1059E0001A703B1C08333A1C0D3212785A703B1C5B
:1059F0000E333A1C16321188FF220A401A803B1CD3
:105A00000D333A1C0E3212881A703B1C08333A1CB4
:105A10000D3212789A703B1C08330022DA703B1C5E
:105A2000083300221A713B1C0833181C0521174B40
:105A300098473B1C15331A78BB1D1B88D218144B92
:105A40009A420ADC3B1C15331A78BB1D1B88D318FD
:105A50003A1C083211790F4AD1543B1C16331A886C
:105A60003B1C163301321A803B1C15331A783B1C41
:105A7000153301321A703A1C15327B1D12781B78CF
:105A80009A429DD3BD4606B080BDC046A9560000CF
:105A90006B0200008807002080B588B000AF3A6034
:105AA000BB1D021C1A807B1D0A1C1A703B68FB611F
:105AB0003B1C1A33BA1D12881A803B1C1733002274
:105AC0001A7057E03B1C0C3309221A703B1C14332C
:105AD0003A1C1A321288120A1A803B1C13333A1CE1
